:10000000ECC000001BC1000019C1000017C10000B6
:1000100015C1000013C1000011C100000FC1000094
:100020000DC100000BC1000009C1000007C10000A4
:1000300005C1000003C1000001C10000FFC00000B5
:10004000FDC00000FBC00000F9C00000F7C00000C8
:10005000F5C00000F3C00000F1C000000C94EC58A3
:10006000EDC000000C945B600C948B60E7C0000056
:10007000E5C00000E3C00000E1C00000DFC00000F8
:10008000DDC00000DBC00000D9C00000D7C0000008
:100090000C9402610C943261D1C000000C94AE56F5
:1000A000CDC00000CBC00000C9C00000C7C0000028
:1000B000C5C00000C3C00000C1C00000BFC0000038
:1000C000BDC00000BBC00000B9C000000C94A96115
:1000D0000C94D961B3C000000C9450620C948062FF
:1000E000ADC0000000002200250028002B002E00DB
:1000F0003100340002010000050108010B01050573
:100100000505070508080808020202020A0A08088D
:1001100004040404010101010101010103030303BB
:1001200003030303040707070C0C0C0C0C0C0C0C4A
:100130000202020206060606060606060B0B0B0B5B
:100140000B0B0B0B01021020200808102040102080
:10015000408002010201080402010102040810208B
:100160004080804020100804020180040201804089
:1001700020100804020108040201010204081020F2
:100180004080010204081020408000000A0B020990
:100190000C0D0E0807030401000000000000000021
:1001A000000000000000000000000000000000004F
:1001B000000000000000121110000000000000000C
:1001C000000000000000000000000000000000002F
:1001D000D551F6609D614462ED6211241FBECFEFE0
:1001E000D1E2DEBFCDBF00E00CBF12E0A0E0B2E084
:1001F000E2E7F8EC00E00BBF02C007900D92AC3FC5
:10020000B107D9F729E0ACEFB2E001C01D92AC34E0
:10021000B207E1F710E0CDEED0E000E006C0219794
:100220000109802FFE010E949163C83ED10780E042
:100230000807A9F70E94264C0C943764E1CECF93AF
:10024000DF9300D000D0CDB7DEB769837A838B838C
:100250009C835E834D8389819A81AB81BC81892B8C
:100260008A2B8B2B21F589819A81880F991F880F02
:10027000991F80509E4FFC0180818823C1F48981A1
:100280009A81880F991F880F991F8E5F9D4FFC01DF
:10029000808191810E94334F89819A81880F991FB3
:1002A000880F991F80509E4F21E0FC012083898197
:1002B0009A81880F991F880F991F80509E4F26960C
:1002C0000FB6F894DEBF0FBECDBFDF91CF9108957A
:1002D000CF93DF9300D000D0CDB7DEB79A83898368
:1002E0004B835C836D837E8389819A81892BF9F0AE
:1002F00089819A81FC018181882341F480EA96E812
:10030000A1E0B0E08B839C83AD83BE8389819A8119
:10031000FC01228133818B819C81AD81BE81AC0146
:10032000BD01C9010E94504F80E090E002C088E00A
:1003300090E026960FB6F894DEBF0FBECDBFDF91DA
:10034000CF910895CF92EF920F931F93CF93DF93A6
:10035000CDB7DEB762970FB6F894DEBF0FBECDBF44
:1003600098878F837A8769875C874B870D871E877D
:100370002F87388BE98ACA8A8F819885892B09F45F
:100380009DC08F819885FC01828193813D8529855F
:10039000432F622F0E94075019821A821B821C82EF
:1003A0008F819885FC01428153818F819885FC0162
:1003B00082819381FC01808191810896FC012081DA
:1003C0003181CA01F901199521E0892B09F420E056
:1003D000222309F465C08F819885FC0142815381F5
:1003E0008F819885FC0182819381FC0180819181BC
:1003F0000896FC0120813181CA01F9011995892BE8
:1004000079F029813A814B815C818D859E85AF850C
:10041000B889281739074A075B0710F481E001C043
:1004200080E0882309F447C08F819885FC014281D0
:1004300053818F819885FC0182819381FC018081A9
:1004400091810A96FC0120813181CA01F901199537
:100450009E838D838D819E81019659F48B859C8529
:1004600044E050E060E070E00E94306488E090E09A
:1004700027C089819A81AB81BC819C01AD012F5F2E
:100480003F4F4F4F5F4F29833A834B835C839C01DF
:100490008B859C85820F931F2D81FC0120839BCF30
:1004A0008B859C8544E050E060E070E00E94306401
:1004B00088E090E005C080E090E002C088E090E035
:1004C00062960FB6F894DEBF0FBECDBFDF91CF911D
:1004D0001F910F91EF90CF900895CF92EF920F93CD
:1004E0001F93CF93DF93CDB7DEB72D970FB6F89458
:1004F000DEBF0FBECDBF9B838A837D836C835F830A
:100500004E83088719872A873B87EC86CD868A81A8
:100510009B81892B09F44FC019828A819B81DC0160
:1005200012968D919C912C81622F0E941E508A817F
:100530009B81DC011296ED91FC918A819B81DC010B
:1005400012968D919C91DC018D919C910296DC011B
:100550002D913C91488559858E819F81BC01CF01A9
:10056000F90119958C85882359F08A819B81DC01DA
:1005700012968D919C9160E00E943750898309C04A
:100580008A819B81FC018281938161E00E943750C6
:1005900089838981882319F480E090E00EC08981E5
:1005A000823019F08981833019F484E090E005C02D
:1005B00088E090E002C088E090E02D960FB6F894B5
:1005C000DEBF0FBECDBFDF91CF911F910F91EF9096
:1005D000CF900895CF93DF931F921F92CDB7DEB7D0
:1005E0009A83898300000F900F90DF91CF91089537
:1005F000CF93DF9300D000D0CDB7DEB79C838B8341
:100600007E836D831A82198289819A8126960FB61C
:10061000F894DEBF0FBECDBFDF91CF910895CF9389
:10062000DF9300D000D01F921F92CDB7DEB79E831C
:100630008D8378876F831C821B828D819E81892B9D
:1006400019F48FEF9FEFB5C08F819885892B19F42E
:100650008FEF9FEFAEC08091050290910602A091AE
:100660000702B09108028E3F9F4FAF4FBF4F81F4FA
:100670008F819885FC0180819181A281B3818093D3
:10068000050290930602A0930702B09308020FC0E0
:100690008091050290910602A0910702B091080294
:1006A0002F813885F90180839183A283B383809160
:1006B000050290910602A0910702B09108028D8177
:1006C0009E81FC0182819381FC0180819181A281C4
:1006D000B38180933D0390933E03A0933F03B09377
:1006E00040038D819E81FC0182819381FC01848184
:1006F0009581A681B7818093410390934203A09393
:100700004303B09344038D819E81FC0182819381D8
:10071000FC0180859185A285B385809345039093E4
:100720004603A0934703B09348038D819E81FC014B
:1007300082819381FC0184859585A685B785809308
:10074000490390934A03A0934B03B0934C03109238
:100750004D0310924E0310924F03109250030E94CB
:1007600020101A8219821A82198210C089819A81F6
:10077000880F991F84509D4F2BE430E1FC01318399
:10078000208389819A8101969A83898389819A81BC
:10079000029760F34CD79C838B838B819C81892B40
:1007A00031F481E090E090933C0380933B038B8194
:1007B0009C8128960FB6F894DEBF0FBECDBFDF91A7
:1007C000CF910895CF93DF93CDB7DEB72C970FB6B7
:1007D000F894DEBF0FBECDBF69877A878B879C8771
:1007E0001A8219821B821C821D821E821F82909196
:1007F000390381E0992309F080E0888782E090E066
:1008000090933C0380933B0389859A85AB85BC8597
:10081000892B8A2B8B2B59F480913903882339F447
:1008200080913A03882319F481E090E002C080E0CF
:1008300090E08F8330C06AE070E080E090E00E943A
:10084000BB598B819C81AD81BE81805F984DAF4F3C
:10085000BF4F8B839C83AD83BE8389859A85AB858F
:10086000BC858F3F9F4FAF4FBF4F81F02B813C81A5
:100870004D815E8189859A85AB85BC8582179307FA
:10088000A407B50718F481E090E002C080E090E092
:100890008F8380E024D780913903882339F48091B5
:1008A0003A03882319F48F81882329F283E090E0AA
:1008B00090933C0380933B038F81882321F08CE944
:1008C0009FEF9A8389838885882311F00E944711BE
:1008D00089819A812C960FB6F894DEBF0FBECDBFEA
:1008E000DF91CF910895CF93DF93CDB7DEB76197B6
:1008F0000FB6F894DEBF0FBECDBF9D878C874E87A5
:100900005F87688B798B1A82198281E08B838C8553
:100910009D858F3F910521F018F08FEF9FEF62C00A
:1009200080913B0390913C03039731F080913B030E
:1009300090913C03019731F484E090E090933C0364
:1009400080933B038C859D85029708F58C859D855A
:10095000880F991F84509D4FFC0180819181892BC4
:10096000B1F00E9401169D838C838C819D8102973A
:1009700071F48C859D85880F991F84509D4FFC01D3
:10098000208131818C859D85F90119958B838C851A
:100990009D859F838E832C853D858E859F85A88927
:1009A000B989A901BC01CD011FD6DC01CB01888723
:1009B0009987AA87BB878B81882371F08885998561
:1009C000AA85BB852E813F81AC01BD01C9010E9472
:1009D000D1159A83898304C08E819F810E9443161A
:1009E00089819A8161960FB6F894DEBF0FBECDBFA4
:1009F000DF91CF910895CF93DF931F921F92CDB7D0
:100A0000DEB71A82198280E06AD69A838983898147
:100A10009A810F900F90DF91CF910895CF93DF933C
:100A20001F921F92CDB7DEB71A82198286E090E03E
:100A300090933C0380933B03E2D69A83898344E0FE
:100A400050E060E070E08CEF92E00E9430640E9421
:100A5000D91010923C0310923B0389819A810F9028
:100A60000F90DF91CF910895CF93DF93CDB7DEB78D
:100A700080913A03DF91CF910895CF93DF93CDB763
:100A8000DEB780915103DF91CF910895CF93DF932B
:100A900000D01F92CDB7DEB769837A838B839C83A6
:100AA00089819A81AB81BC81809305029093060273
:100AB000A0930702B093080280E090E00F900F909F
:100AC0000F900F90DF91CF910895CF92EF920F93F7
:100AD0001F93CF93DF9300D0CDB7DEB781E089833A
:100AE000809104028A8380913C0990913D09C12C38
:100AF000E12C02E010E020E030E0AE014F5F5F4FFC
:100B00006DE670E0EADC84E08B8380912C099091A3
:100B10002D09AE014D5F5F4FC12CEE24E39401E03F
:100B200010E020E030E06DE670E0D7DC809305094E
:100B3000809105098823A9F480912C0990912D09B1
:100B4000AE014D5F5F4FCC24C394E12C01E010E077
:100B500020E030E06DE670E0F5DB8B8180930409E6
:100B600002C01092040985E08B8380911C0990914A
:100B70001D09AE014D5F5F4FC12CEE24E39401E0EF
:100B800010E020E030E06DE670E0A7DC8093030920
:100B9000809103098823A9F480911C0990911D0973
:100BA000AE014D5F5F4FCC24C394E12C01E010E017
:100BB00020E030E06DE670E0C5DB8B8180930209B8
:100BC00002C01092020986E08B8380910C099091FB
:100BD0000D09AE014D5F5F4FC12CEE24E39401E09F
:100BE00010E020E030E06DE670E077DC80930109F2
:100BF000809101098823A9F480910C0990910D0935
:100C0000AE014D5F5F4FCC24C394E12C01E010E0B6
:100C100020E030E06DE670E095DB8B818093000989
:100C200002C01092000920E033E0F901868997891B
:100C3000A08DB18D0196A11DB11DF901868B978BF9
:100C4000A08FB18F80E093E0FC0186899789A08D09
:100C5000B18D892B8A2B8B2B79F420E033E0F901BD
:100C6000828D938DA48DB58D0196A11DB11DF901C5
:100C7000828F938FA48FB58F00000F900F900F90ED
:100C8000DF91CF911F910F91EF90CF900895CF9367
:100C9000DF93CDB7DEB780E093E043E250E060E061
:100CA00070E00E94306420E033E080E090E0A0E853
:100CB000BFEBF901868F978FA0A3B1A320E033E0AB
:100CC0008BE09BEFAFECB8E4F90184839583A683B6
:100CD000B78320E033E084EA96EDA2EFBEEEF9019F
:100CE00080879187A287B38720E033E08CEE95E67A
:100CF000A6E5BEE9F90184879587A687B78720E036
:100D000033E085E19BE8AFECBAEDF901808B918B84
:100D1000A28BB38B80E093E023E233E0FC013383CA
:100D200022838FE293E0909324038093230384E350
:100D300092E09093300380932F0384E392E09093AA
:100D400032038093310384E392E0909334038093E1
:100D5000330384E392E0909336038093350384E376
:100D600092E0909338038093370320E033E080E0F3
:100D700093E0FC01828193812C5E3F4FFC0135831F
:100D8000248320E033E080E093E0FC0182819381C2
:100D90002C5F3F4FFC013383228380E093E0FC0112
:100DA000228133818FEF9FEFDC01F90180879187EA
:100DB000A287B38746E050E060E070E080E099E011
:100DC0000E94306444E450E060E070E086E099E026
:100DD0000E94306480E090E5A3ECB8E4809342097F
:100DE00090934309A0934409B093450910923609A2
:100DF00081E08093460981E090E0A0E0B0E080933C
:100E0000370990933809A0933909B0933A0940E023
:100E100050E060E070E0CB0112DA90933D098093DE
:100E20003C0980EA96E8A1E0B0E080933E09909307
:100E30003F09A0934009B093410980913C099091EA
:100E40003D0940EA56E861E070E042DA81E08093D3
:100E50003B0980E090E5A3ECB8E4809332099093DD
:100E60003309A0933409B09335091092260981E023
:100E70008093490981E090E0A0E0B0E080932709E9
:100E800090932809A0932909B0932A0940E050E0E3
:100E900060E070E0CB01D3D990932D0980932C09A9
:100EA00080EA96E8A1E0B0E080932E0990932F09A4
:100EB000A0933009B093310980912C0990912D09AC
:100EC00040EA56E861E070E003DA81E080932B09A4
:100ED00080E090E5A3ECB8E4809322099093230985
:100EE000A0932409B09325091092160981E08093FC
:100EF000480981E090E0A0E0B0E08093170990936A
:100F00001809A0931909B0931A0940E050E060E075
:100F100070E0CB0194D990931D0980931C0980EA5D
:100F200096E8A1E0B0E080931E0990931F09A0937A
:100F30002009B093210980911C0990911D0940EA74
:100F400056E861E070E0C4D981E080931B0980E03D
:100F500090E5A3ECB8E48093120990931309A09351
:100F60001409B09315091092060981E0809347098E
:100F700081E090E0A0E0B0E0809307099093080939
:100F8000A0930909B0930A0940E050E060E070E0E6
:100F9000CB0155D990930D0980930C0980EA96E80E
:100FA000A1E0B0E080930E0990930F09A09310097F
:100FB000B093110980910C0990910D0940EA56E80F
:100FC00061E070E085D981E080930B090000DF913A
:100FD000CF910895CF93DF93CDB7DEB780913609D7
:100FE0008823C1F481E0809336098091370990917C
:100FF0003809A0913909B0913A090197A105B105C5
:1010000049F480913B09882329F080913C09909113
:101010003D09E0DA809126098823C1F481E08093BC
:1010200026098091270990912809A0912909B0915A
:101030002A090197A105B10549F480912B0988235C
:1010400029F080912C0990912D09C4DA809116091C
:101050008823C1F481E0809316098091170990914B
:101060001809A0911909B0911A090197A105B105B4
:1010700049F480911B09882329F080911C099091E3
:101080001D09A8DA809106098823C1F481E08093C4
:1010900006098091070990910809A0910909B0916A
:1010A0000A090197A105B10549F480910B0988232C
:1010B00029F080910C0990910D098CDA0000DF91E4
:1010C000CF9108950F931F93CF93DF9300D000D05B
:1010D00000D01F92CDB7DEB79A8389834B835C83A0
:1010E0006D837E830F83188729873A8729813A8108
:1010F0008B819C81AD81BE81F90180839183A28324
:10110000B38389819A819C012C5F3F4F8F819885A1
:10111000A985BA85F90180839183A283B3830000F6
:101120002A960FB6F894DEBF0FBECDBFDF91CF91E8
:101130001F910F910895EF92FF920F931F93CF93FA
:10114000DF93CDB7DEB76A970FB6F894DEBF0FBE58
:10115000CDBF6D8B7E8B8F8B988F5A8F498F198265
:101160001A821B821C82F894898D9A8D892B09F032
:101170000EC18091660390916703A0916803B091BE
:1011800069032D893E894F89588D281739074A07E9
:101190005B07C8F08091660390916703A091680394
:1011A000B09169032D893E894F89588D79018A0153
:1011B000E81AF90A0A0B1B0BD801C7018D839E831D
:1011C000AF83B88718C08091660390916703A091A0
:1011D0006803B09169032D893E894F89588D790143
:1011E0008A01E81AF90A0A0B1B0BD801C7018D8383
:1011F0009E83AF83B88780916A0390916B03A0911F
:101200006C03B0916D032D813E814F815885820F13
:10121000931FA41FB51F898B9A8BAB8BBC8B8091BE
:101220006A0390916B03A0916C03B0916D032989BF
:101230003A894B895C89281739074A075B0798F474
:1012400080916E0390916F03A0917003B091710330
:101250000196A11DB11D80936E0390936F03A0931F
:101260007003B093710389899A89AB89BC89809393
:101270006A0390936B03A0936C03B0936D0320916A
:101280006E0330916F034091700350917103809110
:101290006A0390916B03A0916C03B0916D03890177
:1012A0009A01AC01BD018EE593E00CDF8D899E892A
:1012B000AF89B88D8093660390936703A09368030A
:1012C000B09369038D819E81AF81B8859C01AD018A
:1012D00060EA76E881E090E00E944C639B01AC01FB
:1012E0008091720390917303A0917403B091750380
:1012F000820F931FA41FB51F8093720390937303F3
:10130000A0937403B093750380917203909173035B
:10131000A0917403B091750389839A83AB83BC83D6
:101320008091050290910602A0910702B0910802F7
:101330008F3F9F4FAF4FBF4F09F442C180910502CD
:1013400090910602A0910702B09108028E3F9F4F34
:10135000AF4FBF4F09F434C120916A0330916B0342
:1013600040916C0350916D038091050290910602AB
:10137000A0910702B091080261E0281739074A07D7
:101380005B0708F460E0862F8093510319C119862A
:101390001A861B861C861D861E861F86188A8091CB
:1013A000090290910A02A0910B02B0910C028F3FAA
:1013B0009F4FAF4FBF4FE1F08091090290910A0219
:1013C000A0910B02B0910C029C01AD012F5F3F4F29
:1013D0004F4F5F4F8D899E89AF89B88DBC01CD017C
:1013E0000E946F63DC01CB018D8B9E8BAF8BB88F1E
:1013F0008091660390916703A0916803B09169039F
:101400002D893E894F89588D281739074A075B0770
:1014100008F447C08091660390916703A091680328
:10142000B09169032D893E894F89588D79018A01D0
:10143000E81AF90A0A0B1B0BD801C70189879A879A
:10144000AB87BC87209166033091670340916803A6
:10145000509169038D899E89AF89B88D79018A0180
:10146000E81AF90A0A0B1B0BD801C7018D879E8762
:10147000AF87B88B2D853E854F85588989859A859C
:10148000AB85BC8582179307A407B50728F019869A
:101490001A861B861C864BC01D861E861F86188AD0
:1014A00046C08091660390916703A0916803B09154
:1014B00069032D893E894F89588D79018A01E81A7F
:1014C000F90A0A0B1B0BD801C70189879A87AB87DA
:1014D000BC87209166033091670340916803509167
:1014E00069038D899E89AF89B88D79018A01E81ACF
:1014F000F90A0A0B1B0BD801C7018D879E87AF879E
:10150000B88B2D853E854F85588989859A85AB8511
:10151000BC8582179307A407B50728F019861A8699
:101520001B861C8604C01D861E861F86188A898518
:101530009A85AB85BC85892B8A2B8B2BF9F0898505
:101540009A85AB85BC859C01AD0160EA76E881E0B7
:1015500090E00E944C639B01AC01809172039091DA
:101560007303A0917403B0917503820F931FA41F9E
:10157000B51F89839A83AB83BC8322C0E09072033A
:10158000F090730300917403109175038D859E850F
:10159000AF85B8899C01AD0160EA76E881E090E012
:1015A0000E944C63DC01CB01A8019701281B390B79
:1015B0004A0B5B0BDA01C90189839A83AB83BC8335
:1015C000789489819A81AB81BC81BC01CD016A96F6
:1015D0000FB6F894DEBF0FBECDBFDF91CF911F9144
:1015E0000F91FF90EF900895CF93DF9300D000D03C
:1015F000CDB7DEB769837A838B839C835E834D830B
:101600002D813E8189819A81AB81BC81A901BC0178
:10161000CD0191DDDC01CB01BC01CD0126960FB6D9
:10162000F894DEBF0FBECDBFDF91CF910895CF9369
:10163000DF9300D000D0CDB7DEB71C821B821E82A4
:101640001D821A8219821092520310925303109233
:1016500054031092550310925603109257031092A0
:1016600058031092590310925A0310925B03109280
:101670005C0310925D039E012B5F3F4FCE010396EA
:10168000B9010E948C482D813E818B819C81B901DA
:101690000E9402369A83898389819A81892B19F065
:1016A00089819A8113C09E012B5F3F4FCE01039623
:1016B000B9010E94B0482D813E818B819C81B90186
:1016C0000E94A5149A83898389819A8126960FB6F0
:1016D000F894DEBF0FBECDBFDF91CF910895CF93B9
:1016E000DF9300D01F921F92CDB7DEB78D831A8291
:1016F00019821B8260E070E0CB010E94BB591C8202
:101700000E94CC379A83898389819A81892B39F009
:1017100089819A81029619F081E08B830DC08C81BA
:10172000882321F489819A81029619F081E090E062
:1017300002C080E090E08C838B818823E1F40E94DA
:10174000D8149A83898389819A81892B39F0898178
:101750009A81029619F081E08B830DC08C818823D9
:1017600021F489819A81029619F081E090E002C00B
:1017700080E090E08C838B818823E1F40E945737CE
:101780009A83898389819A81892B39F089819A8109
:10179000029619F081E08B830DC08C81882321F49F
:1017A00089819A81029619F081E090E002C080E080
:1017B00090E08C838D81882391F060E070E0CB0114
:1017C0000E94BB598B81882319F48C81882319F4DA
:1017D00081E090E002C080E090E08B8302C081E075
:1017E0008B838B81882309F48ACF89819A810F901A
:1017F0000F900F900F900F90DF91CF910895CF939E
:10180000DF9300D000D01F921F92CDB7DEB71886AD
:101810001F8280915103882329F060E070E0CB01A2
:101820000E9424160E9401169E838D8319821A82BB
:101830001B821C8218C06AE070E080E090E00E9489
:10184000BB5989819A81AB81BC81805F984DAF4F34
:10185000BF4F89839A83AB83BC8381E040DF0E94C2
:1018600001169E838D8389819A81AB81BC8181150C
:101870009748A349B34020F48D819E81892BD9F6E6
:101880000E940C1698878F830E94673998878F83F0
:101890001092390310923A0310923D0310923E03C6
:1018A00010923F03109240031092410310924203A2
:1018B0001092430310924403109245031092460382
:1018C00010924703109248031092490310924A0362
:1018D00010924B0310924C0310924D0310924E0342
:1018E00010924F03109250038EEF9FEFAFEFBFEFB8
:1018F0008093050290930602A0930702B09308021A
:101900001092510348E050E060E070E08EE593E013
:101910000E9430641092660310926703109268036D
:101920001092690310926A0310926B0310926C0379
:1019300010926D0310926E0310926F031092700359
:101940001092710310927203109273031092740339
:10195000109275038F81988528960FB6F894DEBF94
:101960000FBECDBFDF91CF910895CF93DF9300D00D
:1019700000D01F921F92CDB7DEB78091780390916F
:101980007903A0917A03B0917B039A83898389813B
:101990009A81892B09F431C180917C03882369F4F1
:1019A0008091780390917903A0917A03B0917B03A1
:1019B000892B8A2B8B2B09F420C180919003909165
:1019C0009103029709F019C180919A03882309F0C5
:1019D00014C189819A81FC0180819181A281B381A6
:1019E0008B839C83AD83BE8380919603882309F407
:1019F000F0C08091890390918A03892B31F0809106
:101A0000890390918A03029719F481E090E002C063
:101A100080E090E08F838091890390918A03019701
:101A200031F08091890390918A03029719F481E043
:101A300090E002C080E090E088878F81882309F4DD
:101A400062C080917D0390917E03A0917F03B0914D
:101A500080039C01AD016B817C818D819E810E9400
:101A6000414E8823B4F08091920390919303A0910A
:101A70009403B091950320917D0330917E034091B2
:101A80007F0350918003BC01CD010E945F4D8823EC
:101A900044F180917D0390917E03A0917F03B091EA
:101AA00080039C01AD016B817C818D819E810E94B0
:101AB000414E181644F58091920390919303A091A2
:101AC0009403B091950320917D0330917E03409162
:101AD0007F0350918003BC01CD010E945F4D88239C
:101AE00091F48091850390918603A0918703B09132
:101AF0008803892B8A2B8B2B19F481E0809399031F
:101B000081E080939A038885882309F462C08091DC
:101B10007D0390917E03A0917F03B09180039C018F
:101B2000AD016B817C818D819E810E945F4D8823F8
:101B3000B4F48091920390919303A0919403B09197
:101B4000950320917D0330917E0340917F03509156
:101B50008003BC01CD010E94414E882344F5809151
:101B60007D0390917E03A0917F03B09180039C013F
:101B7000AD016B817C818D819E810E945F4D8823A8
:101B800041F58091920390919303A0919403B091B9
:101B9000950320917D0330917E0340917F03509106
:101BA0008003BC01CD010E94414E181694F480912F
:101BB000850390918603A0918703B0918803892BB8
:101BC0008A2B8B2B19F481E08093990381E0809319
:101BD0009A0390919A0381E0992309F080E0809321
:101BE00096038B819C81AD81BE81809392039093FB
:101BF0009303A0939403B0939503000028960FB627
:101C0000F894DEBF0FBECDBFDF91CF910895CF9383
:101C1000DF931F92CDB7DEB7198280919003909128
:101C20009103892BC9F410928B0310929A0380912F
:101C30001102882371F182E090E0909391038093E8
:101C400090031092110280918C0390918D03892B47
:101C500001F581E089831DC01092110280918B03F0
:101C6000882349F0109299031092910310929003E7
:101C700010928B030EC080918C0390918D03892B61
:101C800019F481E0898305C080919A0389831092B9
:101C90009A03809190039091910382309105F9F01D
:101CA0008330910530F4009761F0019709F44CC13D
:101CB000AEC18330910509F4EEC0049709F46AC0FF
:101CC000A6C180911102882309F4ACC182E090E0A2
:101CD000909391038093900310921102A3C1898184
:101CE000882309F4A1C18091850390918603A09176
:101CF0008703B0918803181619061A061B06ECF420
:101D000080918C0390918D030197B9F480918503A4
:101D100090918603A0918703B091880380939B03E1
:101D200090939C03A0939D03B0939E0383E090E067
:101D3000909391038093900377C180910D029091CD
:101D40000E02A0910F02B0911002892B8A2B8B2BCF
:101D5000D1F081E08093990380910D0290910E0261
:101D6000A0910F02B091100280939B0390939C036B
:101D7000A0939D03B0939E0384E090E09093910321
:101D80008093900351C11092990310929103109285
:101D900090034AC180919B0390919C03A0919D0365
:101DA000B0919E03892B8A2B8B2B99F080919B03FA
:101DB00090919C03A0919D03B0919E030197A1096E
:101DC000B10980939B0390939C03A0939D03B093D0
:101DD0009E0380919B0390919C03A0919D03B091E1
:101DE0009E03892B8A2B8B2B09F020C180918E03B7
:101DF00090918F03019739F41092990310929103F7
:101E00001092900313C18091810390918203A0915D
:101E10008303B0918403892B8A2B8B2BC9F01092FA
:101E200099038091810390918203A0918303B091E3
:101E3000840380939B0390939C03A0939D03B09392
:101E40009E0381E090E09093910380939003EEC015
:101E500089818823B9F080910D0290910E02A091A2
:101E60000F02B091100280939B0390939C03A09368
:101E70009D03B0939E0384E090E090939103809340
:101E80009003D4C01092990382E090E09093910364
:101E900080939003CBC080919B0390919C03A09171
:101EA0009D03B0919E03892B8A2B8B2B99F08091F7
:101EB0009B0390919C03A0919D03B0919E03019779
:101EC000A109B10980939B0390939C03A0939D0368
:101ED000B0939E0380919B0390919C03A0919D03DE
:101EE000B0919E03892B8A2B8B2B09F0A1C0809186
:101EF0000D0290910E02A0910F02B0911002892B59
:101F00008A2B8B2BD1F081E08093990380910D0275
:101F100090910E02A0910F02B091100280939B034A
:101F200090939C03A0939D03B0939E0384E090E064
:101F300090939103809390037BC010929903109229
:101F400091031092900374C080919B0390919C0325
:101F5000A0919D03B0919E03892B8A2B8B2B99F026
:101F600080919B0390919C03A0919D03B0919E034F
:101F70000197A109B10980939B0390939C03A093BF
:101F80009D03B0939E0380919B0390919C03A0912D
:101F90009D03B0919E03892B8A2B8B2B09F04AC09D
:101FA0008981882369F180910D0290910E02A091A0
:101FB0000F02B0911002892B8A2B8B2BD1F081E07C
:101FC0008093990380910D0290910E02A0910F02CF
:101FD000B091100280939B0390939C03A0939D0368
:101FE000B0939E0384E090E09093910380939003DC
:101FF00021C01092990310929103109290031AC07D
:1020000082E090E0909391038093900313C010922C
:10201000990310929A0310928B03109291031092DD
:10202000900309C0000007C0000005C0000003C005
:10203000000001C0000000000F90DF91CF910895D3
:10204000CF93DF93CDB7DEB7109292031092930334
:1020500010929403109295031092960380918C0332
:1020600090918D0390939803809397031092990316
:1020700010929A0310929B0310929C0310929D035E
:1020800010929E03109291031092900380E090E0D2
:10209000DF91CF910895CF93DF9300D0CDB7DEB716
:1020A0009B838A838A819B81892B09F05BC0209165
:1020B0008C0330918D03809197039091980341E0B8
:1020C0002817390709F440E0498380918C039091E7
:1020D0008D0390939803809397038981882381F0DF
:1020E0001092990310929A0310929B0310929C03F2
:1020F00010929D0310929E031092910310929003F0
:1021000080918C0390918D03019761F580919003EC
:1021100090919103892B21F480911102882391F4ED
:1021200080919003909191030197E1F480919B033A
:1021300090919C03A0919D03B0919E030197A105EE
:10214000B10581F410929B0310929C0310929D03A1
:1021500010929E031092110282E090E090939103FE
:102160008093900380918C0390918D03019751F49B
:1021700080917603909177032A813B812817390754
:1021800009F4F3DB8A819B81892B21F440DD1092D5
:10219000A00307C08091A003882319F080919F03BA
:1021A00002C0809199030F900F900F90DF91CF9113
:1021B0000895CF93DF93CDB7DEB7109292031092BC
:1021C0009303109294031092950310929603109229
:1021D000910310929003109298031092970310921B
:1021E0007703109276031092990310929A0310923B
:1021F0009B0310929C0310929D0310929E031092D9
:102200009F031092A003109278031092790310920A
:102210007A0310927B0310927C0310927D0310923C
:102220007E0310927F031092800388EE93E0A0E07B
:10223000B0E080930D0290930E02A0930F02B09332
:102240001002109281031092820310928303109265
:1022500084031092850310928603109287031092D4
:10226000880310928A031092890381E080931102FF
:1022700010928B0310928D0310928C0310928F0397
:1022800010928E0380E090E0DF91CF910895CF937C
:10229000DF93CDB7DEB780918C0390918D03892BAE
:1022A00001F580911102882359F080918B038823D6
:1022B00039F481E080939F0381E08093A00311C0F3
:1022C00080918B03882351F080911102882331F48F
:1022D00010929F0381E08093A00303C01092A0039B
:1022E00000C00000DF91CF910895CF93DF93CDB769
:1022F000DEB72C970FB6F894DEBF0FBECDBF9E831E
:102300008D8378876F835A8749873C872B871A820A
:1023100019820E945C399C838B838D819E81FC0194
:10232000808191810E94393C8B859C8560E070E0C2
:102330000E94C5389C018F819885FC0131832083E0
:102340000E94AB389C0189859A85FC0131832083EA
:102350008F819885FC0180819181892BE1F08F81AB
:102360009885FC01208131818B819C81B9010E947B
:102370008F409C018D819E81FC01318320838D8162
:102380009E81FC0180819181892B49F486EF9FEF2A
:102390009A83898304C088EF9FEF9A838983898118
:1023A0009A812C960FB6F894DEBF0FBECDBFDF9199
:1023B000CF910895CF93DF9300D000D0CDB7DEB793
:1023C0009A8389837C836B835E834D8389819A8121
:1023D000892B21F089819A810E94393C8D819E81CF
:1023E000FC011182108280E090E026960FB6F894EE
:1023F000DEBF0FBECDBFDF91CF910895CF93DF93A6
:1024000000D000D0CDB7DEB79A8389837C836B83FD
:102410005E834D838D819E8122E030E0FC0131831B
:1024200020838FEF9FEF26960FB6F894DEBF0FBE86
:10243000CDBFDF91CF910895CF93DF9300D01F924E
:10244000CDB7DEB78B836C8385E090E09A83898378
:102450008B81813F18F01A82198229C08B81843EBA
:1024600040F08B81813F28F481E090E09A8389835A
:102470001EC08B81833D18F08B81833E48F08B8199
:10248000803C59F48C81882341F08C81833028F47E
:1024900082E090E09A8389830AC08B81883C38F07F
:1024A0008B81833D20F483E090E09A838983898146
:1024B0009A810F900F900F900F90DF91CF91089518
:1024C000CF93DF93CDB7DEB767970FB6F894DEBF33
:1024D0000FBECDBF998B888B7B8B6A8B5D8B4C8BB2
:1024E0003F8B2E8B888999899C838B838B819C81E0
:1024F000FC0180818D8319828D81803C49F48A8919
:102500009B89029728F08B819C81FC0181818983C2
:102510008091A2039091A303892B09F455C069818E
:102520008D818ADF9B878A871A828A859B8505979A
:10253000C1F18A859B85880F991F88559C4FFC01A6
:10254000808191819D878C871F861E868C859D85C5
:10255000892B39F18D81882F90E02C853D85F901FB
:1025600019959F878E8721E08E859F85892B09F499
:1025700020E02A838A818823A1F08E859F85FC0133
:10258000228133818C899D89FC01318320838E8552
:102590009F85FC01248135818E899F89FC013183CF
:1025A00020838A81882309F053C08C899D892EEF6E
:1025B00031E1FC01318320838E899F8921E933E158
:1025C000FC013183208344C08D818F3FA9F5809128
:1025D000A8039091A9039F838E838C899D89FC0118
:1025E000118210828E899F89FC01118210828E8156
:1025F0009F81892B69F12E813F818FEF90E0F90156
:1026000019959987888788859985892B09F1888507
:102610009985FC01228133818C899D89FC0131835C
:10262000208388859985FC01248135818E899F8945
:10263000FC01318320830CC08C899D892AED31E116
:10264000FC01318320838E899F89FC0111821082D5
:10265000000067960FB6F894DEBF0FBECDBFDF91C6
:10266000CF910895CF93DF93CDB7DEB78091A203CA
:102670009091A303DF91CF910895CF93DF931F92A1
:102680001F92CDB7DEB79A83898389819A8190930F
:10269000A3038093A20300000F900F90DF91CF91CE
:1026A0000895CF93DF93CDB7DEB78091A403DF9178
:1026B000CF910895CF93DF931F92CDB7DEB7898373
:1026C0009091A4038981892B8093A40300000F902B
:1026D000DF91CF910895CF93DF931F92CDB7DEB7EF
:1026E0008983898180959091A40389238093A40391
:1026F00000000F90DF91CF910895CF93DF93CDB776
:10270000DEB78091A503DF91CF910895CF93DF933A
:10271000CDB7DEB78091A6039091A703DF91CF914B
:102720000895CF93DF9300D000D000D01F92CDB793
:10273000DEB79E838D8378876F835A8749878D8123
:102740009E81892B51F48F8198859C838B838B810B
:102750009C812FEFFC01208394C08F8198859A8300
:10276000898389819A812EEFFC0120838D819E814E
:10277000092E000CAA0BBB0B4096A11DB11D803188
:102780009105A105B10508F076C0FC018827E45346
:10279000FC4E8F4F0C94916335142F14291423147D
:1027A0001D1417140B1411140514FF13F913F4134B
:1027B000E213DC13E813EE1389819A8120E3FC0114
:1027C00021835FC089819A8129E2FC01218359C05C
:1027D00089819A8122E2FC01218353C089819A81F7
:1027E00020E2FC0121834DC089819A81FC01118284
:1027F00048C089819A8123E2FC01218342C08981FA
:102800009A8121E2FC0121833CC089819A8121E1E6
:10281000FC01218336C089819A8127E2FC01218352
:1028200030C089819A812AE2FC0121832AC08981F2
:102830009A8120E1FC01218324C089819A8124E2CC
:10284000FC0121831EC089819A8128E2FC01218339
:1028500018C089819A8126E2FC01218312C08981F6
:102860009A8121E3FC0121830CC089819A8123E3B1
:10287000FC01218306C089819A8120E2FC01218329
:1028800000C000002A960FB6F894DEBF0FBECDBF81
:10289000DF91CF910895CF93DF9300D000D000D087
:1028A0001F92CDB7DEB79E838D8378876F835A875B
:1028B00049871A8219828F819885892BD9F11C82C8
:1028C0001B821C821B822BC02B813C81C901880F7B
:1028D000991F820F931F880F991F9C018F819885E4
:1028E000820F931FFC01808191812D813E812817E9
:1028F000390781F42B813C81C901880F991F820F10
:10290000931F880F991F9C018F819885820F931FB9
:102910009A8389838B819C8101969C838B832B81F5
:102920003C8189859A852817390720F489819A8105
:10293000892B51F289819A812A960FB6F894DEBFCD
:102940000FBECDBFDF91CF910895CF93DF9300D01D
:102950001F92CDB7DEB79A8389837C836B83809186
:10296000A103882319F084EF9FEF1BC049D554D5EC
:102970009093A9038093A8030E94B42B0E94CC2BB0
:102980009093AD038093AC030E949D340E94A834C1
:102990009093AB038093AA0381E08093A10380E02E
:1029A00090E00F900F900F900F90DF91CF910895CE
:1029B000EF92FF920F931F93CF93DF93CDB7DEB7C4
:1029C00064970FB6F894DEBF0FBECDBF1A8219828E
:1029D0001C821B8218861F821A8619861C861B86FB
:1029E0001E861D86188A1F861E821D821A8A198AD3
:1029F0001C8A1B8A8091A103882319F487EF9FEF1B
:102A0000C3C0BE01635F7F4F9E01255F3F4FAE0194
:102A1000475F5F4FCE0107968B01BC0180E090E0DD
:102A20000E9409389A83898389819A81892B49F088
:102A300089819A81049629F089819A81059609F005
:102A400096C08F819885892B59F02B853C858D8583
:102A50009E85280F391F89859A858217930728F448
:102A600088EF9FEF9A83898385C02F8138858B8576
:102A70009C85820F931F9E838D836D857E859E012D
:102A80002D5E3F4FAE014F5E5F4F8D819E8118DD01
:102A900089899A89892B29F484EF9FEF9A83898306
:102AA00069C029893A896B857C858F819885AE01BB
:102AB000415F5F4FF90119959C838B838B899C89BA
:102AC000892B09F451C08F859889892B09F44CC052
:102AD0001A8219822D853E858F8598892817390796
:102AE00068F42F853889AE01455F5F4FBE01675F8F
:102AF0007F4FCE010796F9DB9A8389832D853E852A
:102B00008D819E81A90160E070E00E94306489811E
:102B10009A81892B49F52F8138858B859C85820F79
:102B2000931F9E838D832B893C894F8558896D81A6
:102B30007E818B819C81F90119956F8578894B8500
:102B40005C8529853A858F8198857B018A01AC0156
:102B50006FEF7FEF81E090E00E94B2369A83898325
:102B600089819A81892B29F489819A810DC000007D
:102B700001C000008F819885892B21F08F81988575
:102B80000E94393C89819A8164960FB6F894DEBF21
:102B90000FBECDBFDF91CF911F910F91FF90EF90AE
:102BA0000895CF93DF9300D000D01F921F92CDB72E
:102BB000DEB79C838B834D835E836F8378871A8215
:102BC00019828091A103882319F487EF9FEF10C029
:102BD0008D819E81AF81B885EB81FC8120E0AC01C5
:102BE000BD01CF010E94E82E9A83898389819A8151
:102BF00028960FB6F894DEBF0FBECDBFDF91CF9100
:102C00000895CF93DF93CDB7DEB78091A203909163
:102C1000A303DF91CF910895CF93DF93CDB7DEB7B4
:102C20000E94C7340E94193316D448E050E060E097
:102C300070E088EA93E00E9430641092A10380E083
:102C400090E0DF91CF910895CF93DF9300D000D033
:102C5000CDB7DEB76B837C838D839E838B819C8114
:102C6000AD81BE81BC01CD010E94A62F9A838983CC
:102C700089819A8126960FB6F894DEBF0FBECDBF2C
:102C8000DF91CF910895CF93DF9300D01F921F92D1
:102C9000CDB7DEB79D838C8381E089838C819D8154
:102CA000298140E050E0BA010E94E82E9B838A838C
:102CB0008A819B810F900F900F900F900F90DF9162
:102CC000CF910895CF93DF9300D01F921F92CDB77D
:102CD000DEB78D8381E090E09A8389830E941C395E
:102CE0009C838B838D81282F30E08B819C8149814F
:102CF0005A81BA010E945B63CB0141E02817390772
:102D000008F040E0842F0F900F900F900F900F90DD
:102D1000DF91CF910895CF93DF9300D01F921F9240
:102D2000CDB7DEB79C838B836D83A1D39A838983D0
:102D30008091B503482F50E029813A818B819C8195
:102D4000B9010E94276400000F900F900F900F9020
:102D50000F90DF91CF910895CF93DF93CDB7DEB77A
:102D60002D970FB6F894DEBF0FBECDBF9987888729
:102D70007B876A875D874C871A8219822885398507
:102D80008A859B85820F931F9C838B838B819C817B
:102D90009E838D831F820E94C4318F838F818823FD
:102DA00051F48C859D8522E030E0FC013183208345
:102DB00085EF9FEF2DC08D819E81FC01818188234D
:102DC00031F08D819E81FC018181813019F481E097
:102DD00090E002C080E090E08F838F81882351F4DF
:102DE0008C859D8522E030E0FC01318320838EEFCD
:102DF0009FEF0EC081E090E040DC1A8219828C8542
:102E00009D8528E030E0FC013183208389819A810F
:102E10002D960FB6F894DEBF0FBECDBFDF91CF91D8
:102E20000895CF93DF9300D000D01F921F92CDB7AB
:102E3000DEB79C838B837E836D8358874F838B8122
:102E40009C81892BA9F58D819E819A8389838981B3
:102E50009A8148E050E060E070E00E94306489812F
:102E60009A812FEFFC01208325E089819A81FC0162
:102E7000218320E089819A81FC0122830E941C39F0
:102E8000282F89819A81FC0123830E9413399C0198
:102E900089819A81FC013583248389819A8121E08B
:102EA000FC01268389819A8121E0FC01278308C0E7
:102EB0004F8158852D813E818B819C81B90131DC08
:102EC000000028960FB6F894DEBF0FBECDBFDF918D
:102ED000CF910895CF93DF9300D000D01F92CDB74C
:102EE000DEB79B838A837D836C835F834E8381E01F
:102EF00089830E94C43189838981882351F48E811A
:102F00009F8122E030E0FC013183208385EF9FEF39
:102F10000CC080E090E0B1DB8E819F8121E030E049
:102F2000FC013183208380E090E027960FB6F8946F
:102F3000DEBF0FBECDBFDF91CF910895CF93DF935A
:102F400000D000D0CDB7DEB79A8389837C836B83B2
:102F50005E834D838D819E8126E030E0FC013183CC
:102F6000208380E090E026960FB6F894DEBF0FBE77
:102F7000CDBFDF91CF910895CF93DF9300D000D0E4
:102F80001F921F92CDB7DEB79C838B837E836D83A8
:102F900058874F838D819E819A83898389819A8105
:102FA00046E050E060E070E00E94306489819A81E0
:102FB0002FEFFC01208375DB282F89819A81FC018A
:102FC00021839BDB282F89819A81FC0122839EDB50
:102FD0009C0189819A81FC01358324830000289615
:102FE0000FB6F894DEBF0FBECDBFDF91CF9108952D
:102FF000CF93DF9300D000D01F92CDB7DEB79B8375
:103000008A837D836C835F834E8319820E94A731FC
:1030100089838981882321F00E9441390E94B83137
:103020008E819F8122E030E0FC01318320838BEF91
:103030009FEF27960FB6F894DEBF0FBECDBFDF918E
:10304000CF910895CF93DF93CDB7DEB72D970FB60D
:10305000F894DEBF0FBECDBF998788877B876A87CC
:103060005D874C871A821982288539858A859B85D8
:10307000820F931F9C838B838B819C819E838D8386
:103080001F828D819E81FC0123818D819E81FC01A7
:1030900084819581A681B781422FBC01CD01F6D1F3
:1030A0008F838F81882351F48C859D8522E030E0C9
:1030B000FC013183208384EF9FEF09C08C859D85BF
:1030C00021E030E0FC013183208389819A812D96B3
:1030D0000FB6F894DEBF0FBECDBFDF91CF9108953C
:1030E000CF93DF93CDB7DEB72F970FB6F894DEBF3F
:1030F0000FBECDBF9B878A877D876C875F874E8792
:103100001A8219822A853B858C859D85820F931FA3
:103110009C838B838B819C819E838D831F82A7D10F
:10312000998788878D819E81FC018181CBDD8F838A
:103130008F81882351F48E859F8522E030E0FC0149
:10314000318320838EEF9FEF22C088859985892B5C
:1031500051F48E859F8522E030E0FC01318320838D
:1031600084EF9FEF14C08D819E81FC01818180934B
:10317000B5038091B503882F90E09C012F5F3F4FEE
:103180008E859F85FC013183208389819A812F96CA
:103190000FB6F894DEBF0FBECDBFDF91CF9108957B
:1031A000CF93DF93CDB7DEB72D970FB6F894DEBF80
:1031B0000FBECDBF998788877B876A875D874C87DD
:1031C00088859985892B91F552D19A8389838A853F
:1031D0009B859C838B838B819C8141E050E060E0E8
:1031E00070E00E9430648B819C812FEFFC01208372
:1031F00089819A81892B11F18091B503882F90E004
:1032000001962C853D8528173907C1F48A859B8551
:1032100001969E838D831F828D819E816F817BDDD0
:103220008091B50364D11092B50308C04C855D85CB
:103230002A853B8588859985B90173DA00002D962A
:103240000FB6F894DEBF0FBECDBFDF91CF910895CA
:10325000CF93DF93CDB7DEB72D970FB6F894DEBFCF
:103260000FBECDBF998788877B876A875D874C872C
:103270001A821982288539858A859B85820F931F3A
:103280009C838B838B819C819E838D831F828D8108
:103290009E81FC01818116DD8F838F81882351F40B
:1032A0008C859D8522E030E0FC01318320838EEF08
:1032B0009FEF31C08D819E81FC0123818D819E8194
:1032C000FC0184819581A681B781422FBC01CD018B
:1032D000DDD08F838F81882351F48C859D8522E0FA
:1032E00030E0FC013183208384EF9FEF14C08D8197
:1032F0009E81FC0181818093B5038091B503882F65
:1033000090E09C012F5F3F4F8C859D85FC013183B0
:10331000208389819A812D960FB6F894DEBF0FBE67
:10332000CDBFDF91CF910895CF93DF93CDB7DEB7B7
:103330002D970FB6F894DEBF0FBECDBF9987888753
:103340007B876A875D874C8788859985892B91F56E
:103350008ED09A8389838A859B859C838B838B817E
:103360009C8141E050E060E070E00E9430648B811D
:103370009C812FEFFC01208389819A81892B11F197
:103380008091B503882F90E001962C853D85281704
:103390003907C1F48A859B8501969E838D831F82A0
:1033A0008D819E816F81B7DC8091B503A0D0109292
:1033B000B50308C04C855D852A853B858885998540
:1033C000B901AFD900002D960FB6F894DEBF0FBE3D
:1033D000CDBFDF91CF910895CF93DF931F921F92BE
:1033E000CDB7DEB79A83898389819A8147E050E01F
:1033F00065E372E050DA0F900F90DF91CF9108955E
:10340000CF93DF93CDB7DEB78CEE99E110D093D098
:103410000000DF91CF910895CF93DF93CDB7DEB752
:103420008091B6039091B703DF91CF910895CF9328
:10343000DF931F921F92CDB7DEB79A83898389816C
:103440009A819093B7038093B60300000F900F907A
:10345000DF91CF910895CF93DF93CDB7DEB773D0CF
:1034600080E090E0E4DF0000DF91CF910895CF93FA
:10347000DF93CDB7DEB78091B0039091B103A091F7
:10348000B203B091B303DF91CF910895CF93DF934F
:1034900000D01F921F92CDB7DEB769837A838B83EA
:1034A0009C834D838D81882351F489819A81AB81DE
:1034B000BC81892B8A2B8B2B11F480E010C0898171
:1034C0009A81AB81BC818093B0039093B103A093A8
:1034D000B203B093B3038D818093B40381E00F9066
:1034E0000F900F900F900F90DF91CF910895CF9391
:1034F000DF931F92CDB7DEB789832091B00330915F
:10350000B1034091B2035091B3038981882F90E0B9
:10351000A0E0B0E0820F931FA41FB51F8093B003FB
:103520009093B103A093B203B093B30300000F9044
:10353000DF91CF910895CF93DF93CDB7DEB7000031
:10354000DF91CF910895CF93DF93CDB7DEB7000021
:10355000DF91CF910895CF93DF9300D0CDB7DEB741
:103560009B838A831982F8948091BE039091BF0354
:1035700021E0892B09F020E029838981882309F43F
:10358000789489810F900F900F90DF91CF910895DB
:10359000CF93DF931F921F92CDB7DEB79A838983B3
:1035A000789400000F900F90DF91CF910895CF9302
:1035B000DF931F921F92CDB7DEB79A838983F89469
:1035C0008091BE039091BF0301969093BF038093B7
:1035D000BE03789400000F900F90DF91CF91089573
:1035E000CF93DF931F921F92CDB7DEB79A83898363
:1035F000F8948091BE039091BF0301979093BF030D
:103600008093BE03789400000F900F90DF91CF91CC
:103610000895CF93DF931F921F92CDB7DEB79A83A1
:1036200089832091B8033091B90349815A8163E1BC
:10363000649FC001659F900D1124820F931FFC01B0
:1036400083819481029799F02091B8033091B90356
:1036500049815A8163E1649FC001659F900D1124E7
:10366000820F931FFC0183819481039719F481E0F9
:1036700090E002C080E090E00F900F90DF91CF913A
:103680000895CF93DF9300D0CDB7DEB719821B82A8
:103690001A821B821A8209C08A819B81BADF8983C0
:1036A0008A819B8101969B838A838091BA03909142
:1036B000BB032A813B812817390718F489818823A5
:1036C00059F381E09981992309F080E00F900F90E0
:1036D0000F90DF91CF910895CF93DF9300D01F9289
:1036E0001F92CDB7DEB79B838A836C834D83809115
:1036F000B8039091B903892B09F477C08091BA037C
:103700009091BB032A813B812817390708F06DC0CF
:103710002091B8033091B9034A815B8163E1649FD2
:10372000C001659F900D1124820F931FFC018081C1
:103730009181892B09F459C02091B8033091B903C4
:103740004A815B8163E1649FC001659F900D1124F4
:10375000820F931FFC0182819C81981708F045C05D
:103760002091B8033091B9034A815B8163E1649F82
:10377000C001659F900D1124820F931FFC012081D1
:1037800031818C81482F50E06DE0649FC001659FBE
:10379000900D1124820F931FFC0180819181892B50
:1037A00021F12091B8033091B9034A815B8163E133
:1037B000649FC001659F900D1124820F931FFC012F
:1037C000208131818C81482F50E06DE0649FC001E1
:1037D000659F900D1124820F931FFC0182819D81B2
:1037E000981718F481E090E002C080E090E08983AF
:1037F00089810F900F900F900F900F90DF91CF91D4
:103800000895CF93DF9300D000D000D0CDB7DEB7BE
:103810008C836D832E833F834887598719828D81DE
:10382000882F90E09B838A838C818F3F41F48A812B
:103830009B818F3F910509F010F481E08983898194
:1038400029960FB6F894DEBF0FBECDBFDF91CF91A2
:103850000895CF93DF931F92CDB7DEB78983898117
:10386000882F90E08F7E21E0892B09F020E0822FC5
:103870000F90DF91CF910895CF93DF931F921F9206
:10388000CDB7DEB78A8319828A81882331F08A8195
:10389000813019F08A81823011F481E08983898135
:1038A0000F900F90DF91CF910895CF93DF931F92E8
:1038B0001F92CDB7DEB78A8319828A81882331F0BF
:1038C0008A81813019F08A81823011F481E0898304
:1038D00089810F900F90DF91CF910895CF93DF935F
:1038E000CDB7DEB781E0DF91CF910895CF93DF931D
:1038F00000D0CDB7DEB79B838A832091B803309187
:10390000B9034A815B8163E1649FC001659F900DAB
:103910001124820F931FFC0183858230D9F42091FA
:10392000B8033091B9034A815B8163E1649FC001B0
:10393000659F900D1124820F931FFC012581368114
:1039400080911A0290911B022817390719F081E023
:1039500090E002C080E090E089838981882339F07B
:103960008A819B81892B19F481E090E002C080E07C
:1039700090E0898389810F900F900F90DF91CF9114
:103980000895CF93DF9300D000D01F92CDB7DEB75C
:103990009E838D836F838D819E81FC012081318187
:1039A0008F81482F50E06DE0649FC001659F900DAE
:1039B0001124820F931F9C838B838B819C81FC013C
:1039C000438154818D819E81FC0125853685429FEE
:1039D000C001439F900D529F900D112401969A8330
:1039E00089838F81882379F48D819E81FC01878171
:1039F000882F90E080719927892B29F089819A81FD
:103A000004969A83898389819A8127960FB6F894C0
:103A1000DEBF0FBECDBFDF91CF910895CF93DF936F
:103A200000D000D000D01F921F92CDB7DEB79B8789
:103A30008A871D821C821A8219821B821B821EC0E9
:103A40008A859B856B819DDF9F838E83198618866F
:103A50008E819F8161E070E00E94C53899878887D8
:103A60002885398589819A818217930720F4888572
:103A700099859A8389838B818F5F8B838A859B85C8
:103A8000FC0182819B819817D8F28A859B85AC01C5
:103A90004F5E5F4F8A859B85FC018281282F30E035
:103AA000C901880F991F280F391F89819A81B9018F
:103AB0000E94383D9D838C838C819D81892B39F0B8
:103AC0008A859B852FEF3FEFFC01328B218B8C8108
:103AD0009D812B960FB6F894DEBF0FBECDBFDF9150
:103AE000CF910895CF93DF931F921F92CDB7DEB78A
:103AF0009A83898389819A81FC01818992890196BF
:103B000039F089819A81FC01818992890E94DA3E8B
:103B100089819A812FEF3FEFFC01328B218B0000CE
:103B20000F900F90DF91CF910895CF93DF93CDB792
:103B3000DEB761970FB6F894DEBF0FBECDBF9D878D
:103B40008C877F876E87598B488B1A8219822C85C8
:103B50003D858E859F85820F931F9C838B838B81F0
:103B60009C819E838D838D819E81FC0182819381C6
:103B700098878F838D819E81FC01848189878D81C7
:103B80009E81FC0185818A871B868F8198854A8565
:103B90006985A2DD8B878B85882351F48889998973
:103BA00022E030E0FC01318320838EEF9FEF2BC0B9
:103BB0008F8198852EDD982F81E0992309F080E090
:103BC0008B878B85882351F48889998922E030E09E
:103BD000FC013183208388EF9FEF15C08F8198858A
:103BE00090931702809316028985809318028A8524
:103BF000809319028889998921E030E0FC013183A2
:103C0000208389819A8161960FB6F894DEBF0FBE3A
:103C1000CDBFDF91CF910895CF93DF93CDB7DEB7BE
:103C200063970FB6F894DEBF0FBECDBF9F878E8718
:103C3000798B688B5B8B4A8B1A8219822E853F8524
:103C400088899989820F931F9C838B838B819C81A8
:103C50009E838D83809116029091170298878F839F
:103C6000809118028987809119028A871C861B8699
:103C70001D868F8198854A8569852EDD8D878D8586
:103C8000882351F48A899B8922E030E0FC0131834A
:103C900020838AEF9FEF9AC08F819885BADC982F96
:103CA00081E0992309F080E08D878D85882351F488
:103CB0008A899B8922E030E0FC013183208388EFF0
:103CC0009FEF84C08D819E81FC0184819581A681B6
:103CD000B7812D813E81F90162812D813E81F901FB
:103CE00071819C01AD01872F8CDD8D878D858823A7
:103CF00051F48A899B8922E030E0FC0131832083E2
:103D00008EEF9FEF63C02091B8033091B9034F81CC
:103D1000588563E1649FC001659F900D1124820F57
:103D2000931FFC01208131818985482F50E06DE08F
:103D3000649FC001659F900D1124820F931FFC01A9
:103D4000408151818A85282F30E0C901880F991F51
:103D5000880F991F880F991F821B930B840F951F43
:103D60009C878B878D819E81FC0121818B859C8521
:103D7000FC0120838D819E81FC0122818B859C85A5
:103D8000FC0121838D819E81FC0123818B859C8593
:103D9000FC0122838D819E81FC0184819581A68115
:103DA000B7812B853C85F90183839483A583B683F2
:103DB000809119028F5F809319028A899B8921E083
:103DC00030E0FC013183208389819A8163960FB6AC
:103DD000F894DEBF0FBECDBFDF91CF910895CF9392
:103DE000DF93CDB7DEB72F970FB6F894DEBF0FBEC7
:103DF000CDBF9B878A877D876C875F874E871A82B6
:103E000019822A853B858C859D85820F931F9C8313
:103E10008B838B819C819E838D8318861F8219865C
:103E20008091B8039091B903892B79F08D819E819F
:103E3000FC01228133818091BA039091BB03281742
:103E4000390718F481E090E002C080E090E08987B3
:103E50008985882351F48E859F8522E030E0FC011E
:103E6000318320838EEF9FEFA3C02091B803309160
:103E7000B9038D819E81FC014281538163E1649F7E
:103E8000C001659F900D1124820F931F98878F8327
:103E90008D819E81FC0182819381BBDB982F81E023
:103EA000992309F080E089878985882351F48E85DC
:103EB0009F8522E030E0FC013183208388EF9FEF73
:103EC00077C08D819E81FC018481958121E08038BD
:103ED000910508F020E029878985882351F48E8593
:103EE0009F8522E030E0FC01318320838EEF9FEF3D
:103EF0005FC08D819E81FC01978181E0992309F04B
:103F000080E089878985882351F48E859F8522E00A
:103F100030E0FC01318320838EEF9FEF49C08D811B
:103F20009E81FC01818195DC89878985882351F4F4
:103F30008E859F8522E030E0FC013183208386EF6F
:103F40009FEF36C08D819E81FC0121818F819885F4
:103F5000FC0127838D819E81FC01248135818F8125
:103F60009885FC01368325838D819E81FC01268105
:103F70008F819885FC0120878D819E81FC0127819E
:103F80008F819885FC0121878F819885FC01808530
:103F9000823028F48F81988521E0FC0120878E856E
:103FA0009F8521E030E0FC013183208389819A8163
:103FB0002F960FB6F894DEBF0FBECDBFDF91CF9125
:103FC00008950F931F93CF93DF93CDB7DEB76C9710
:103FD0000FB6F894DEBF0FBECDBF988F8F8B7A8F50
:103FE000698F5C8F4B8F1B861A862F89388D898D40
:103FF0009A8D820F931F9D878C878C859D859F87C7
:104000008E87198A188A8E859F85FC01828193810B
:10401000CC01A0E0B0E08A8B9B8BAC8BBD8B19826E
:104020001E8A8091B8039091B903892B99F08091F1
:10403000BA039091BB03CC01A0E0B0E02A893B8990
:104040004C895D89281739074A075B071CF481E012
:1040500090E002C080E090E089838981882351F458
:104060008B8D9C8D22E030E0FC01318320838EEF2C
:104070009FEF40C28A899B89AC89BD8980931202D7
:1040800090931302A0931402B09315022091B803E9
:104090003091B9034A895B8963E1649FC001659FE0
:1040A000900D1124820F931F998B888B8E859F858D
:1040B000FC018181E1DB89838981882351F48B8D27
:1040C0009C8D22E030E0FC013183208386EF9FEF5E
:1040D00011C204DC882309F47DC088899989FC0118
:1040E00083819481892B09F075C088899989FC01A5
:1040F0008781882F90E082709927892B81F18889A8
:104100009989FC0180819181892B91F08091BD0377
:10411000282F30E088899989FC018281882F90E0DE
:10412000820F931F813891051CF481E090E002C05A
:1041300080E090E089838981882309F43EC0209142
:10414000BD0388899989FC0122872091BD03888954
:104150009989FC018281820F8093BD032EC08889DA
:104160009989FC0180819181892B91F08091BC0318
:10417000282F30E088899989FC018281882F90E07E
:10418000820F931F8D3F91051CF481E090E002C0E7
:1041900080E090E089838981882379F02091BC03B5
:1041A00088899989FC0122872091BC038889998993
:1041B000FC018281820F8093BC038981882351F4A2
:1041C0008B8D9C8D22E030E0FC013183208387EFD2
:1041D0009FEF90C18E859F85FC018181813039F0F0
:1041E0008E859F85FC018181823009F0CBC01B82C6
:1041F0001A8281E089831B821A82B5C01D821C82CB
:104200001F821E821D821C822EC088899989FC0112
:10421000208131814A815B816DE0649FC001659F8F
:10422000900D1124820F931FFC01408151812C813C
:104230003D81C901880F991F880F991F880F991F09
:10424000821B930B840F951FFC018181882F90E0C6
:104250002E813F81820F931F9F838E838C819D814E
:1042600001969D838C8388899989FC012081318105
:104270004A815B816DE0649FC001659F900D1124B0
:10428000820F931FFC018281882F90E02C813D8159
:10429000281739070CF4B9CF8A819B81892B21F526
:1042A00088899989FC018781882F90E080719927FE
:1042B000892BD1F088899989FC01458556852E8105
:1042C0003F81429FC001439F900D529F900D11244A
:1042D0008C010B5F1F4F0E94133921E0801791075B
:1042E00008F420E0298319C088899989FC01458553
:1042F00056852E813F81429FC001439F900D529F62
:10430000900D11248C010F5F1F4F0E94133921E083
:104310008017910708F420E029838981882351F4CC
:104320008B8D9C8D22E030E0FC013183208387EF70
:104330009FEFE0C088899989FC01208131814A8101
:104340005B816DE0649FC001659F900D1124820F19
:10435000931F2E813F81FC01348323838A819B81BB
:1043600001969B838A8388899989FC018281882FA1
:1043700090E02A813B812817390724F4898188231A
:1043800009F03CCF88899989FC0185819681E3D821
:104390008E8B8E89882309F49EC0198618868E8597
:1043A0009F85FC018181882F90E081309105D1F0BB
:1043B0008230910509F469C0892B09F071C08889A0
:1043C000998921E030E0FC01348323835AD9882382
:1043D00009F463C081E090E00E943D1380E40E94F4
:1043E0006B135BC088899989FC0181899289019648
:1043F000C9F588899989FC012581368180911A0245
:1044000090911B022817390799F488899989AC0182
:104410004F5E5F4F20911E0230911F0280911C025F
:1044200090911D02B9010E94D33F998788871AC0D5
:104430008A899B89AC89BD89181619061A061B063C
:104440008CF088899989FC0185819681892B51F4AA
:1044500088899989E3DA9987888788899989FC010D
:10446000108A178688859985892BC9F48889998946
:1044700023E030E0FC013483238382E090E00E945B
:104480003D1380E40E945A130AC08889998922E06A
:1044900030E0FC013483238303C0000001C000002E
:1044A00088899989FC018581968172D88B8D9C8D34
:1044B00022E030E0FC013183208388859985892BB7
:1044C00051F08B8D9C8D22E030E0FC013183208304
:1044D0008DEF9FEF0FC08E89882351F48B8D9C8DBB
:1044E00022E030E0FC013183208385EF9FEF02C0A2
:1044F0008A859B856C960FB6F894DEBF0FBECDBF44
:10450000DF91CF911F910F910895CF93DF9300D04A
:1045100000D01F921F92CDB7DEB79C838B837E8322
:104520006D8358874F838B819C81892B29F58D81E1
:104530009E819A83898389819A812FEFFC01208350
:104540002091B8033091B903809112029091130227
:10455000A0911402B0911502AC0163E1649FC00107
:10456000659F900D1124820F931FFC012285898184
:104570009A81FC01218309C04F8158852D813E819C
:104580008B819C81B9010E949113000028960FB67F
:10459000F894DEBF0FBECDBFDF91CF910895CF93CA
:1045A000DF93CDB7DEB766970FB6F894DEBF0FBEC8
:1045B000CDBF9A8B898B7C8B6B8B5E8B4D8B1886DA
:1045C0001F8229893A898B899C89820F931F9A8738
:1045D000898789859A859C878B871D861E86198287
:1045E0001A821B821C828B859C85FC0181815DD98E
:1045F0008D878D85882351F48D899E8922E030E056
:10460000FC013183208386EF9FEF20C28091B803A5
:104610009091B903892B49F08091BA039091BB0323
:10462000892B19F081E090E002C080E090E08D8756
:104630008D85882351F48D899E8922E030E0FC012C
:10464000318320838EEF9FEF01C20E94A7318E87B6
:104650008E85882309F4EBC11E821D82188A1F866D
:104660008B859C85FC018181882F90E081309105AC
:1046700009F456C08230910509F46CC1892B09F008
:10468000BFC119821A821B821C8231C02091B803DB
:104690003091B90349815A8163E1649FC001659FEC
:1046A000900D1124820F931FFC0183819481892B2B
:1046B00099F02091B8033091B90349815A8163E19F
:1046C000649FC001659F900D1124820F931F21E00C
:1046D00030E0FC013483238389819A81AB81BC81E2
:1046E0000196A11DB11D89839A83AB83BC83809100
:1046F000BA039091BB03CC01A0E0B0E029813A81DC
:104700004B815C81281739074A075B070CF4BECF41
:1047100081E090E00E943D1380E40E946B1370C121
:1047200019821A821B821C82ACC02091B80330917E
:10473000B90349815A8163E1649FC001659F900D6F
:104740001124820F931FFC0183819481029709F049
:104750008DC02091B8033091B90349815A8163E13A
:10476000649FC001659F900D1124820F931FFC016F
:1047700081899289019609F079C02091B80330911E
:10478000B90349815A8163E1649FC001659F900D1F
:104790001124820F931FFC012581368180911A021A
:1047A00090911B0228173907F9F42091B803309132
:1047B000B90349815A8163E1649FC001659F900DEF
:1047C0001124820F931FAC014F5E5F4F20911E0298
:1047D00030911F0280911C0290911D02B9010E942C
:1047E000D33F9E838D8342C089819A81AB81BC81F6
:1047F000181619061A061B06CCF12091B803309141
:10480000B90349815A8163E1649FC001659F900D9E
:104810001124820F931FFC0185819681892B31F52C
:104820002091B8033091B90349815A8163E1649FB3
:10483000C001659F900D1124820F931FEFD89E83B6
:104840008D832091B8033091B90349815A8163E186
:10485000649FC001659F900D1124820F931FFC017E
:10486000108A178689819A81988B8F8789819A818E
:10487000AB81BC810196A11DB11D89839A83AB8355
:10488000BC838091BA039091BB03CC01A0E0B0E05F
:1048900029813A814B815C81281739074A075B07D8
:1048A0002CF48D819E81892B09F43FCF8D819E81CF
:1048B000892B09F0A2C019821A821B821C8238C07F
:1048C0002091B8033091B90349815A8163E1649F13
:1048D000C001659F900D1124820F931FFC018381FD
:1048E00094810297D1F42091B8033091B9034981A2
:1048F0005A8163E1649FC001659F900D1124820F6E
:10490000931F23E030E0FC013483238382E090E0B6
:104910000E943D1380E40E945A1389819A81AB81E1
:10492000BC810196A11DB11D89839A83AB83BC8391
:104930008091BA039091BB03CC01A0E0B0E0298143
:104940003A814B815C81281739074A075B070CF4D1
:10495000B7CF53C019821A821B821C8231C02091AA
:10496000B8033091B90349815A8163E1649FC00162
:10497000659F900D1124820F931FFC018381948108
:10498000029799F42091B8033091B90349815A8173
:1049900063E1649FC001659F900D1124820F931FF6
:1049A00021E030E0FC013483238389819A81AB814B
:1049B000BC810196A11DB11D89839A83AB83BC8301
:1049C0008091BA039091BB03CC01A0E0B0E02981B3
:1049D0003A814B815C81281739074A075B070CF441
:1049E000BECF0E94411B882351F081E090E00E94DD
:1049F0003D1380E40E946B1302C0000001C0000060
:104A00000E94B8318D819E81892B51F08D899E89BC
:104A100022E030E0FC01318320838DEF9FEF16C050
:104A20008D899E8921E030E0FC01318320838E85D1
:104A3000882351F48D899E8922E030E0FC01318386
:104A4000208385EF9FEF02C08F81988566960FB611
:104A5000F894DEBF0FBECDBFDF91CF910895CF9305
:104A6000DF9300D000D0CDB7DEB79A8389837C83F3
:104A70006B835E834D838D819E8128E030E0FC0155
:104A80003183208380E090E026960FB6F894DEBF55
:104A90000FBECDBFDF91CF910895CF93DF9300D0AC
:104AA00000D01F921F92CDB7DEB79C838B837E838D
:104AB0006D8358874F838D819E819A8389838981F5
:104AC0009A8148E050E060E070E00E9430648981A3
:104AD0009A812FEFFC01208389819A8121E1FC01D9
:104AE000218389819A812FEF3FEFFC013383228359
:104AF00089819A8120E830E0FC0135832483898113
:104B00009A81FC01168289819A81FC01178200003A
:104B100028960FB6F894DEBF0FBECDBFDF91CF91C0
:104B20000895CF93DF9300D000D0CDB7DEB79A833E
:104B300089837C836B835E834D838D819E8128E096
:104B400030E0FC013183208380E090E026960FB6B0
:104B5000F894DEBF0FBECDBFDF91CF910895CF9304
:104B6000DF9300D000D01F921F92CDB7DEB79C8399
:104B70008B837E836D8358874F838D819E819A833B
:104B8000898389819A8148E050E060E070E00E946A
:104B9000306489819A812FEFFC01208389819A8179
:104BA00021E0FC01218389819A812FEFFC0122837E
:104BB00089819A8121E0FC01238389819A812FEFE9
:104BC000FC01248389819A8124E3FC012583898166
:104BD0009A8121E030E0FC0137832683000028968B
:104BE0000FB6F894DEBF0FBECDBFDF91CF91089511
:104BF000CF93DF9300D000D000D0CDB7DEB79D8338
:104C00008C837F836E83598748871A8219821B821F
:104C10000E94C4318B838B81882351F488859985C8
:104C200022E030E0FC013183208385EF9FEF0DC04F
:104C300081E090E00E943D138885998521E030E075
:104C4000FC013183208389819A8129960FB6F894DB
:104C5000DEBF0FBECDBFDF91CF910895CF93DF931D
:104C6000CDB7DEB765970FB6F894DEBF0FBECDBFE8
:104C7000998B888B7B8B6A8B5D8B4C8B1C821B8208
:104C8000288939898A899B89820F931F9E838D8306
:104C90008D819E8198878F838F819885FC01828189
:104CA0009381CC01A0E0B0E089879A87AB87BC876D
:104CB0001E861D861F861A8219828091B8039091E4
:104CC000B90321E0892B09F020E02F878F85882305
:104CD00051F48C899D8922E030E0FC0131832083EE
:104CE0008CEF9FEFC9C089859A85AB85BC85181666
:104CF00019061A061B065CF489859A85AB85BC8566
:104D00000097A140B1051CF481E090E002C080E072
:104D100090E08F878F85882351F48C899D8922E0CC
:104D200030E0FC01318320838EEF9FEFA5C08985A1
:104D30009A8543E1489F9001499F300D1124C90194
:104D40000E948F3B9E878D878D859E85892B51F490
:104D50008C899D8922E030E0FC01318320838DEF36
:104D60009FEF8AC089859A8543E1489F9001499FBA
:104D7000300D11248D859E85A90160E070E00E94B0
:104D800030648D859E859093B9038093B80389859F
:104D90009A859093BB038093BA031A82198253C0F9
:104DA00029813A8143E1429FC001439F900D112424
:104DB0002D853E85820F931F2FEF3FEFFC01328B35
:104DC000218B29813A8143E1429FC001439F900D8D
:104DD00011242D853E85820F931FFC0113862981A6
:104DE0003A8143E1429FC001439F900D11242D85DC
:104DF0003E85820F931F21E0FC01248729813A819F
:104E000043E1429FC001439F900D11242D853E85B3
:104E1000820F931F21E030E0FC013687258729812E
:104E20003A8143E1429FC001439F900D11242D859B
:104E30003E85820F931FFC01108A178689819A8113
:104E400001969A83898389819A81092E000CAA0B85
:104E5000BB0B29853A854B855C8582179307A40790
:104E6000B5070CF49DCF8C899D8921E030E0FC01D1
:104E7000318320838B819C8165960FB6F894DEBFC9
:104E80000FBECDBFDF91CF9108950F931F93CF93A6
:104E9000DF93CDB7DEB760970FB6F894DEBF0FBED5
:104EA000CDBF9C878B877E876D87588B4F871A82F3
:104EB00019822B853C858D859E85820F931F9C834F
:104EC0008B838B819C819E838D838D819E81FC0150
:104ED0008281938198878F838D819E81FC0184815B
:104EE00089871A868091B8039091B90321E0892BB4
:104EF00009F420E02A878A85882351F48F859889D0
:104F000022E030E0FC01318320838CEF9FEFC9C0A9
:104F10008091BA039091BB0341E02F813885281717
:104F2000390708F040E04A878A85882351F48F8545
:104F3000988922E030E0FC01318320838EEF9FEFDF
:104F4000B0C08985882331F089858D3F18F481E0D0
:104F500090E002C080E090E08A878A85882351F43F
:104F60008F85988922E030E0FC01318320838EEF29
:104F70009FEF97C02091B8033091B9034F815885B6
:104F800063E1649FC001659F900D1124820F931F00
:104F9000FC018081918121E0892B09F020E02A87A2
:104FA0008A85882351F48F85988922E030E0FC01BE
:104FB000318320838CEF9FEF74C08985882F90E028
:104FC0002DE0289FB001299F700D11242091B80376
:104FD0003091B9034F815885E3E1E49FC001E59F1B
:104FE000900D11248901080F191FCB010E948F3BDE
:104FF000F801918380832091B8033091B9034F81E8
:10500000588563E1649FC001659F900D1124820F54
:10501000931FFC0180819181892B51F48F859889A0
:1050200022E030E0FC01318320838DEF9FEF39C017
:105030008985882F90E02DE0289FB001299F700D71
:1050400011242091B8033091B9034F815885E3E1D1
:10505000E49FC001E59F900D1124820F931FFC0176
:1050600080819181AB0160E070E00E94306420910A
:10507000B8033091B9034F81588563E1649FC00143
:10508000659F900D1124820F931F2985FC012283B7
:105090008F85988921E030E0FC013183208389816C
:1050A0009A8160960FB6F894DEBF0FBECDBFDF9138
:1050B000CF911F910F9108950F931F93CF93DF937B
:1050C000CDB7DEB761970FB6F894DEBF0FBECDBF88
:1050D0009D878C877F876E87598B488B1A821982B0
:1050E0002C853D858E859F85820F931F9C838B83A6
:1050F0008B819C819E838D838D819E81FC01828129
:10510000938198878F838D819E81FC01848189871B
:105110008D819E81FC0185818A871B868091B803E1
:105120009091B90321E0892B09F420E02B878B852E
:10513000882351F48889998922E030E0FC01318389
:1051400020838CEF9FEF57C18091BA039091BB03EE
:1051500041E02F8138852817390708F040E04B8758
:105160008B85882351F48889998922E030E0FC01FD
:10517000318320838EEF9FEF3EC12091B8033091A1
:10518000B9034F81588563E1649FC001659F900D0D
:105190001124820F931FFC018081918121E0892BD2
:1051A00009F420E02B878B85882351F4888999891D
:1051B00022E030E0FC01318320838CEF9FEF1BC1A4
:1051C0002091B8033091B9034F81588563E1649F02
:1051D000C001659F900D1124820F931FFC019281E5
:1051E00081E02985291708F080E08B878B8588234B
:1051F00051F48889998922E030E0FC0131832083D1
:105200008EEF9FEFF8C02091B8033091B9034F8122
:10521000588563E1649FC001659F900D1124820F42
:10522000931FFC01208131818985482F50E06DE07A
:10523000649FC001659F900D1124820F931FFC0194
:105240008081918121E0892B09F020E02B878B85DB
:10525000882351F48889998922E030E0FC01318368
:1052600020838CEF9FEFC7C081E09A85992309F4D2
:1052700080E08B878B85882351F48889998922E087
:1052800030E0FC01318320838EEF9FEFB4C08A852C
:10529000282F30E0C901880F991F880F991F880FA8
:1052A000991FBC01621B730B2091B8033091B903A5
:1052B0004F815885E3E1E49FC001E59F900D1124E3
:1052C000820F931FFC01208131818985482F50E096
:1052D000EDE0E49FC001E59F900D11248901080FC6
:1052E000191FCB010E948F3BF8019183808320918D
:1052F000B8033091B9034F81588563E1649FC001C1
:10530000659F900D1124820F931FFC012081318134
:105310008985482F50E06DE0649FC001659F900D26
:105320001124820F931FFC0180819181892B51F4FC
:105330008889998922E030E0FC01318320838DEF58
:105340009FEF59C08A85282F30E0C901880F991F27
:10535000880F991F880F991FBC01621B730B209146
:10536000B8033091B9034F815885E3E1E49FC00150
:10537000E59F900D1124820F931FFC012081318144
:105380008985482F50E0EDE0E49FC001E59F900D36
:105390001124820F931FFC0180819181AB0160E099
:1053A00070E00E9430642091B8033091B9034F81BE
:1053B000588563E1649FC001659F900D1124820FA1
:1053C000931FFC01208131818985482F50E06DE0D9
:1053D000649FC001659F900D1124820F931F2A8541
:1053E000FC0122838889998921E030E0FC01318326
:1053F000208389819A8161960FB6F894DEBF0FBE33
:10540000CDBFDF91CF911F910F910895CF93DF937F
:1054100000D000D0CDB7DEB79A8389837C836B83BD
:105420005E834D838D819E8122E030E0FC013183DB
:10543000208380EF9FEF26960FB6F894DEBF0FBE55
:10544000CDBFDF91CF910895CF93DF93CDB7DEB776
:1054500063970FB6F894DEBF0FBECDBF9F878E87D0
:10546000798B688B5B8B4A8B1A8219822E853F85DC
:1054700088899989820F931F9C838B838B819C8160
:105480009E838D838D819E81FC018281938198878B
:105490008F838D819E81FC01848189878D819E818E
:1054A000FC0185818A878D819E81FC01868197819F
:1054B0009C878B8781E08D878091B8039091B90399
:1054C00021E0892B09F420E02D878D85882351F474
:1054D0008A899B8922E030E0FC01318320838CEFB4
:1054E0009FEFE0C08091BA039091BB0341E02F8110
:1054F00038852817390708F040E04D878D858823C7
:1055000051F48A899B8922E030E0FC0131832083B9
:105510008EEF9FEFC7C021E08F819885892B09F01E
:1055200020E02D878D85882351F48A899B8922E08C
:1055300030E0FC013183208386EF9FEFB3C0898583
:10554000882319F08985823019F481E090E002C047
:1055500080E090E08D878D85882351F48A899B892E
:1055600022E030E0FC013183208386EF9FEF9AC078
:1055700081E09A85913009F080E08D878D858823C0
:1055800051F48A899B8922E030E0FC013183208339
:1055900086EF9FEF87C08985882321F48B859C85C2
:1055A000019739F08985882339F08B859C8502978E
:1055B00018F081E090E002C080E090E08D878D855A
:1055C000882351F48A899B8922E030E0FC013183F1
:1055D000208386EF9FEF66C08F8198850E94091B0C
:1055E000982F81E0992309F080E08D878D858823AD
:1055F00051F48A899B8922E030E0FC0131832083C9
:1056000088EF9FEF4FC02091B8033091B9034F81CD
:10561000588563E1649FC001659F900D1124820F3E
:10562000931F2985FC0123872091B8033091B9038A
:105630004F81588563E1649FC001659F900D1124DF
:10564000820F931F2A85FC0124872091B803309193
:10565000B9034F81588563E1649FC001659F900D38
:105660001124820F931F2B853C85FC0136872587EB
:105670002091B8033091B9034F81588563E1649F4D
:10568000C001659F900D1124820F931FFC01108AA9
:1056900017868A899B8921E030E0FC0131832083D1
:1056A00089819A8163960FB6F894DEBF0FBECDBF95
:1056B000DF91CF910895CF93DF9300D000D000D039
:1056C0001F921F92CDB7DEB79F838E83798768873D
:1056D0005B874A871A8219822E813F818885998546
:1056E000820F931F9C838B838B819C81FC01918112
:1056F00081E0913009F080E08D838D81882351F421
:105700008A859B8522E030E0FC01318320838FEF86
:105710009FEF0CC04A855B85288539858E819F81E6
:10572000B90192DE9A83898389819A812B960FB67B
:10573000F894DEBF0FBECDBFDF91CF910895CF9318
:10574000DF931F921F92CDB7DEB79A838983898139
:105750009A814DE050E06FE572E00E944B140F908B
:105760000F90DF91CF910895CF93DF93CDB7DEB740
:105770001092BF031092BE0346E050E060E070E07C
:1057800088EB93E00E9430648FE99BE210D05ED7F3
:105790000000DF91CF910895CF93DF93CDB7DEB7AF
:1057A0008091C0039091C103DF91CF910895CF9371
:1057B000DF931F921F92CDB7DEB79A8389838981C9
:1057C0009A819093C1038093C00300000F900F90C3
:1057D000DF91CF910895CF93DF9300D000D0CDB764
:1057E000DEB79E838D831A8219821C821B82809170
:1057F000B8039091B903892B49F08091BA03909135
:10580000BB032D813E812817390718F08FEF9FEFDA
:105810004EC02091B8033091B9034D815E8163E1A0
:10582000649FC001659F900D1124820F931F9C837C
:105830008B838D819E810E94761C882339F08B8119
:105840009C81FC0187859089892B19F480E090E088
:105850002EC01A82198219C08B819C81FC01208183
:10586000318149815A816DE0649FC001659F900D2F
:105870001124820F931FFC01858196810E94393C7F
:1058800089819A8101969A8389838B819C81FC010D
:105890008281882F90E029813A8128173907E4F224
:1058A0008B819C81FC01108A178680E090E026960F
:1058B0000FB6F894DEBF0FBECDBFDF91CF91089534
:1058C000CF93DF9300D000D000D01F921F92CDB7AE
:1058D000DEB79E838D836F83288739874A875B87EE
:1058E0008D819E81FC01208131818F81482F50E084
:1058F0006DE0649FC001659F900D1124820F931F7E
:105900009C838B838B819C81FC01818592859A830A
:1059100089838B819C81FC01148613868D819E81F5
:10592000FC0192858F81292F280F89819A81FC01A2
:10593000208389819A8101969A8389838F81882324
:1059400031F58D819E81FC018781882F90E08071E7
:105950009927892BE1F088859985AA85BB852981BE
:105960003A81F90180839183A283B3838B819C81E7
:10597000FC0183859485049629813A81820F931FC7
:105980009A8389838B819C81FC01148613868B8189
:105990009C8129813A81FC013287218700002B9666
:1059A0000FB6F894DEBF0FBECDBFDF91CF91089543
:1059B000CF93DF9300D000D000D01F921F92CDB7BD
:1059C000DEB79B878A8719828A859B85FC01818542
:1059D00092859B838A83198277C08A859B85FC0187
:1059E000408151818981282F30E0C901880F991F9A
:1059F000880F991F880F991F821B930B840F951F87
:105A00009D838C838C819D81FC0183819481A58100
:105A1000B6819F838E838C819D81FC0180818F3F25
:105A200059F18E819F819987888788859985FC01A6
:105A300020813181428153818C819D81FC01808153
:105A4000682F70E081E090E002C0880F991F6A958E
:105A5000E2F7092E000CAA0BBB0B82239323A4238D
:105A6000B52321E0892B8A2B8B2B09F420E08A8136
:105A70009B81FC0120830DC08C819D81FC01818173
:105A8000482F50E02E813F818A819B81B9010E947D
:105A900027648C819D81FC018181282F30E08A85DB
:105AA0009B85FC0183859485820F931F2A813B810E
:105AB000820F931F9B838A838A859B85FC011486B2
:105AC000138689818F5F89838A859B85FC0182810A
:105AD0009981981708F481CF8A859B852A813B811B
