:10000000F9C0000028C1000026C1000024C1000082
:1000100022C1000020C100001EC100001CC1000060
:100020001AC1000018C1000016C1000014C1000070
:1000300012C1000010C100000EC100000CC1000080
:100040000AC1000008C1000006C1000004C1000090
:1000500002C1000000C10000FEC000000C94125A52
:10006000FAC000000C94B3620C94E362F4C0000088
:10007000F2C00000F0C00000EEC00000ECC00000C4
:10008000EAC00000E8C00000E6C00000E4C00000D4
:100090000C945A630C948A63DEC000000C94D4570D
:1000A000DAC00000D8C00000D6C00000D4C00000F4
:1000B000D2C00000D0C00000CEC00000CCC0000004
:1000C000CAC00000C8C00000C6C000000C94016493
:1000D0000C943164C0C000000C94A8640C94D864E3
:1000E000BAC0000000002100240027002A002D00D3
:1000F0003000330001010000040107010A01000083
:100100002200250028002B002E00310034000201BF
:100110000000050108010B01050505050705080894
:100120000808020202020A0A080804040404010181
:100130000101010101010303030303030303040796
:1001400007070C0C0C0C0C0C0C0C0202020206062D
:100150000606060606060B0B0B0B0B0B0B0B010220
:1001600010202008081020401020408002010201C9
:100170000804020101020408102040808040201081
:1001800008040201800402018040201008040201DA
:100190000804020101020408102040800102040842
:1001A0001020408000000A0B02090C0D0E08070306
:1001B000040100000000000000000000000000003A
:1001C000000000000000000000000000000000002F
:1001D00012111000000000000000000000000000EC
:1001E00000000000000000000000FB524E63F563B9
:1001F0009C64456511241FBECFEFD1E2DEBFCDBFA9
:1002000000E00CBF12E0A0E0B2E0E2E2FDEC00E0B2
:100210000BBF02C007900D92AC3FB107D9F729E0A0
:10022000ACEFB2E001C01D92A336B207E1F710E0D7
:10023000CAEFD0E000E006C021970109802FFE013F
:100240000E94E965C53FD10780E00807A9F70E9431
:100250004C4D0C948F66D4CECF93DF9300D01F9279
:10026000CDB7DEB769837A838B839C8389819A813A
:10027000AB81BC81C697A105B10530F489818A5C48
:1002800060E00E948C5C04C0898160E00E948C5C0C
:1002900089819A8101969C0189819A81AB81BC8177
:1002A000A901BC01CD01B1D089819A8101960F903D
:1002B0000F900F900F90DF91CF910895CF93DF9320
:1002C00000D000D000D0CDB7DEB79D838C837F8374
:1002D0006E8359874887CE010496FC01808188236C
:1002E00099F0CE010496FC01808181508983898137
:1002F0000E94255C9B838A832A813B818E819F811A
:10030000FC013183208305C08E819F81FC01118215
:100310001082000029960FB6F894DEBF0FBECDBF45
:10032000DF91CF910895CF93DF9300D0CDB7DEB7A3
:100330009B838A83CE010296FC018081882389F009
:100340001982CE010296FC018081815089838981C6
:10035000882F90E0A0E0B0E040E050E0BC01CD018B
:1003600054D000000F900F900F90DF91CF9108951F
:10037000CF93DF9300D000D000D0CDB7DEB76E832F
:100380007F83888799871C821B821A8219821D822B
:100390008E819F81A885B985689412F8B695A79536
:1003A000979587951694D1F79C838B838E81877060
:1003B0008D838B819C8184509D4FFC0140818D8178
:1003C000282F30E081E090E002C0880F991F2A9525
:1003D000E2F78423882F90E09A83898389819A8128
:1003E000892B31F08E819F8101969A83898302C087
:1003F0001A82198289819A8129960FB6F894DEBFF4
:100400000FBECDBFDF91CF910895CF93DF9300D082
:1004100000D000D01F92CDB7DEB76D837E838F836F
:1004200098875A8749871A8219821B821C828D817C
:100430009E81AF81B885689412F8B695A795979577
:1004400087951694D1F79A8389838D8187708B83E2
:100450008B81282F30E081E090E002C0880F991F47
:100460002A95E2F78C8389859A85892B99F48C816A
:1004700080958C8389819A8184509D4FFC01908165
:100480008C81292F282389819A8184509D4FFC01DA
:1004900020830FC089819A8184509D4FFC019081F7
:1004A0008C81292F282B89819A8184509D4FFC01B2
:1004B000208300002A960FB6F894DEBF0FBECDBF92
:1004C000DF91CF910895CF93DF9300D000D0CDB7C7
:1004D000DEB769837A838B839C835E834D838981B6
:1004E0009A81AB81BC81892B8A2B8B2B21F5898149
:1004F0009A81880F991F880F991F80509E4FFC0189
:1005000080818823C1F489819A81880F991F880F7F
:10051000991F8E5F9D4FFC01808191810E945950EF
:1005200089819A81880F991F880F991F80509E4F4B
:1005300021E0FC01208389819A81880F991F880F0F
:10054000991F80509E4F26960FB6F894DEBF0FBEBF
:10055000CDBFDF91CF910895CF93DF9300D000D02E
:10056000CDB7DEB79A8389834B835C836D837E83AB
:1005700089819A81892BF9F089819A81FC01818195
:10058000882341F480EA96E8A1E0B0E08B839C8365
:10059000AD83BE8389819A81FC01228133818B8165
:1005A0009C81AD81BE81AC01BD01C9010E94765024
:1005B00080E090E002C088E090E026960FB6F894C4
:1005C000DEBF0FBECDBFDF91CF910895CF92EF92E6
:1005D0000F931F93CF93DF93CDB7DEB762970FB61C
:1005E000F894DEBF0FBECDBF98878F837A87698767
:1005F0005C874B870D871E872F87388BE98ACA8ACD
:100600008F819885892B09F49DC08F819885FC0185
:10061000828193813D852985432F622F0E942D5130
:1006200019821A821B821C828F819885FC0142816B
:1006300053818F819885FC0182819381FC018081A7
:1006400091810896FC0120813181CA01F901199537
:1006500021E0892B09F420E0222309F465C08F8171
:100660009885FC01428153818F819885FC018281AC
:100670009381FC01808191810896FC012081318168
:10068000CA01F9011995892B79F029813A814B81A9
:100690005C818D859E85AF85B889281739074A0703
:1006A0005B0710F481E001C080E0882309F447C0B3
:1006B0008F819885FC01428153818F819885FC014F
:1006C00082819381FC01808191810A96FC012081C5
:1006D0003181CA01F90119959E838D838D819E8197
:1006E000019659F48B859C8544E050E060E070E011
:1006F0000E94886688E090E027C089819A81AB815A
:10070000BC819C01AD012F5F3F4F4F4F5F4F29834D
:100710003A834B835C839C018B859C85820F931F5E
:100720002D81FC0120839BCF8B859C8544E050E08C
:1007300060E070E00E94886688E090E005C080E09C
:1007400090E002C088E090E062960FB6F894DEBFB9
:100750000FBECDBFDF91CF911F910F91EF90CF9042
:100760000895CF92EF920F931F93CF93DF93CDB75E
:10077000DEB72D970FB6F894DEBF0FBECDBF9B83BB
:100780008A837D836C835F834E83088719872A87DA
:100790003B87EC86CD868A819B81892B09F44FC0EB
:1007A00019828A819B81DC0112968D919C912C810A
:1007B000622F0E9444518A819B81DC011296ED9147
:1007C000FC918A819B81DC0112968D919C91DC01C8
:1007D0008D919C910296DC012D913C914885598523
:1007E0008E819F81BC01CF01F90119958C858823E9
:1007F00059F08A819B81DC0112968D919C9160E079
:100800000E945D51898309C08A819B81FC0182819C
:10081000938161E00E945D5189838981882319F465
:1008200080E090E00EC08981823019F089818330A8
:1008300019F484E090E005C088E090E002C088E010
:1008400090E02D960FB6F894DEBF0FBECDBFDF91BE
:10085000CF911F910F91EF90CF900895CF93DF9399
:100860001F921F92CDB7DEB79A83898300000F9045
:100870000F90DF91CF910895CF93DF9300D000D0F8
:10088000CDB7DEB79C838B837E836D831A821982FA
:1008900089819A8126960FB6F894DEBF0FBECDBF30
:1008A000DF91CF910895CF93DF9300D000D01F92B6
:1008B0001F92CDB7DEB79E838D8378876F831C82AE
:1008C0001B828D819E81892B19F48FEF9FEFB5C01C
:1008D0008F819885892B19F48FEF9FEFAEC080919F
:1008E000040290910502A0910602B09107028E3F8A
:1008F0009F4FAF4FBF4F81F48F819885FC0180815E
:100900009181A281B3818093040290930502A09308
:100910000602B09307020FC0809104029091050275
:10092000A0910602B09107022F813885F9018083DA
:100930009183A283B3838091040290910502A091D8
:100940000602B09107028D819E81FC018281938114
:10095000FC0180819181A281B381809346039093B1
:100960004703A0934803B09349038D819E81FC0106
:1009700082819381FC0184819581A681B7818093D6
:100980004A0390934B03A0934C03B0934D038D8186
:100990009E81FC0182819381FC0180859185A285E5
:1009A000B38580934E0390934F03A0935003B0936D
:1009B00051038D819E81FC0182819381FC0184859C
:1009C0009585A685B7858093520390935303A09392
:1009D0005403B0935503109256031092570310928C
:1009E0005803109259030E9446111A8219821A82E2
:1009F000198210C089819A81880F991F8B5F9C4F43
:100A000021E731E1FC013183208389819A810196BC
:100A10009A83898389819A81029760F32ED79C8378
:100A20008B838B819C81892B31F481E090E09093C2
:100A30004503809344038B819C8128960FB6F894DC
:100A4000DEBF0FBECDBFDF91CF910895CF93DF936F
:100A5000CDB7DEB72C970FB6F894DEBF0FBECDBF73
:100A600069877A878B879C871A8219821B821C82EE
:100A70001D821E821F829091420381E0992309F01A
:100A800080E0888782E090E0909345038093440360
:100A900089859A85AB85BC85892B8A2B8B2B59F44C
:100AA00080914203882339F480914303882319F409
:100AB00081E090E002C080E090E08F8330C06AE087
:100AC00070E080E090E00E94E15A8B819C81AD81D2
:100AD000BE81805F984DAF4FBF4F8B839C83AD83AA
:100AE000BE8389859A85AB85BC858F3F9F4FAF4F6D
:100AF000BF4F81F02B813C814D815E8189859A8534
:100B0000AB85BC8582179307A407B50718F481E06D
:100B100090E002C080E090E08F8380E006D7809173
:100B20004203882339F480914303882319F48F8189
:100B3000882329F283E090E0909345038093440357
:100B40008F81882321F08CE99FEF9A8389838885A0
:100B5000882311F00E946D1289819A812C960FB61C
:100B6000F894DEBF0FBECDBFDF91CF910895CF9334
:100B7000DF93CDB7DEB761970FB6F894DEBF0FBE37
:100B8000CDBF9D878C874E875F87688B798B1A8254
:100B9000198281E08B838C859D858F3F910521F0A3
:100BA00018F08FEF9FEF62C080914403909145034E
:100BB000039731F08091440390914503019731F4FC
:100BC00084E090E090934503809344038C859D8559
:100BD000029708F58C859D85880F991F8B5F9C4F28
:100BE000FC0180819181892BB1F00E9427179D83A0
:100BF0008C838C819D81029771F48C859D85880FF3
:100C0000991F8B5F9C4FFC01208131818C859D85D4
:100C1000F90119958B838C859D859F838E832C8507
:100C20003D858E859F85A889B989A901BC01CD0123
:100C300001D6DC01CB0188879987AA87BB878B8186
:100C4000882371F088859985AA85BB852E813F818F
:100C5000AC01BD01C9010E94F7169A83898304C0C3
:100C60008E819F810E94691789819A8161960FB652
:100C7000F894DEBF0FBECDBFDF91CF910895CF9323
:100C8000DF931F921F92CDB7DEB71A82198280E0E0
:100C90004CD69A83898389819A810F900F90DF9136
:100CA000CF910895CF93DF931F921F92CDB7DEB7F8
:100CB0001A82198286E090E0909345038093440362
:100CC000C4D69A83898344E050E060E070E085E018
:100CD00093E00E9488660E94FF11109245031092D3
:100CE000440389819A810F900F90DF91CF910895ED
:100CF000CF93DF93CDB7DEB780914303DF91CF91E0
:100D00000895CF93DF93CDB7DEB780915A03DF917B
:100D1000CF910895CF93DF9300D01F92CDB7DEB768
:100D200069837A838B839C8389819A81AB81BC811F
:100D30008093040290930502A0930602B0930702E9
:100D400080E090E00F900F900F900F90DF91CF9187
:100D50000895CF92EF920F931F93CF93DF931F923B
:100D6000CDB7DEB76BE370E080E090E001DB9093FD
:100D70005C0980935B0980915B0990915C0943E079
:100D800050E06DE179E09ADA87E0898380914B0940
:100D900090914C09C12CEE24E39401E010E020E096
:100DA00030E0AE014F5F5F4F6DE670E0DADC8093BC
:100DB0002409809124098823A9F480914B099091FA
:100DC0004C09CC24C394E12C01E010E020E030E099
:100DD000AE014F5F5F4F6DE670E0F8DB8981809375
:100DE000230902C01092230985E0898380913B0981
:100DF00090913C09C12CEE24E39401E010E020E046
:100E000030E0AE014F5F5F4F68E570E0AADC809391
:100E10002209809122098823A9F480913B099091AD
:100E20003C09CC24C394E12C01E010E020E030E048
:100E3000AE014F5F5F4F68E570E0C8DB898180934A
:100E4000210902C01092210986E0898380912B0933
:100E500090912C09C12CEE24E39401E010E020E0F5
:100E600030E0AE014F5F5F4F68E570E07ADC809361
:100E70002009809120098823A9F480912B09909161
:100E80002C09CC24C394E12C01E010E020E030E0F8
:100E9000AE014F5F5F4F68E570E098DB898180931A
:100EA0001F0902C010921F0929E033E0F901868969
:100EB0009789A08DB18D0196A11DB11DF901868B79
:100EC000978BA08FB18F89E093E0FC018689978989
:100ED000A08DB18D892B8A2B8B2B79F429E033E0FF
:100EE000F901828D938DA48DB58D0196A11DB11D43
:100EF000F901828F938FA48FB58F00000F90DF913F
:100F0000CF911F910F91EF90CF900895CF93DF93E2
:100F1000CDB7DEB789E093E043E250E060E070E0F7
:100F20000E94886629E033E080E090E0A0E8BFEB13
:100F3000F901868F978FA0A3B1A329E033E086E45F
:100F400098EBACEDB9EEF90184839583A683B78362
:100F500029E033E08FE09AEBADEBBAEDF901808741
:100F60009187A287B38729E033E089E39FE5ACED61
:100F7000BFE0F90184879587A687B78729E033E02A
:100F80008FE397EAA0E6B5E8F901808B918BA28BFD
:100F9000B38B89E093E02CE233E0FC0133832283BE
:100FA00088E393E090932D0380932C0384E392E0F5
:100FB000909339038093380384E392E090933B034A
:100FC00080933A0384E392E090933D0380933C0343
:100FD00084E392E090933F0380933E0384E392E0A6
:100FE000909341038093400329E033E089E093E04C
:100FF000FC01828193812C5E3F4FFC013583248369
:1010000029E033E089E093E0FC01828193812C5F49
:101010003F4FFC013383228389E093E0FC0122816E
:1010200033818FEF9FEFDC01F90180879187A287E1
:10103000B38748E050E060E070E08DE199E00E9405
:1010400088664CE350E060E070E085E299E00E9441
:1010500088661092550981E08093600981E090E0F4
:10106000A0E0B0E08093560990935709A0935809E7
:10107000B09359096BE370E080E090E0EDD8909375
:101080005C0980935B0981E080935A0980E090E5D8
:10109000A3ECB8E48093510990935209A0935309AB
:1010A000B09354091092450981E080935F0981E073
:1010B00090E0A0E0B0E08093460990934709A093A8
:1010C0004809B093490940E050E060E070E0CB018E
:1010D000FAD990934C0980934B0980EA96E8A1E0F5
:1010E000B0E080934D0990934E09A0934F09B093BF
:1010F000500980914B0990914C0940EA56E861E013
:1011000070E02ADA81E080934A0980E090E5A3EC60
:10111000B8E48093410990934209A0934309B093A6
:1011200044091092350981E080935E0981E090E0E6
:10113000A0E0B0E08093360990933709A093380976
:10114000B093390940E050E060E070E0CB01BBD9DA
:1011500090933C0980933B0980EA96E8A1E0B0E0D7
:1011600080933D0990933E09A0933F09B0934009B5
:1011700080913B0990913C0940EA56E861E070E0BB
:10118000EBD981E080933A0980E090E5A3ECB8E4E4
:101190008093310990933209A0933309B0933409B5
:1011A0001092250981E080935D0981E090E0A0E044
:1011B000B0E08093260990932709A0932809B09363
:1011C000290940E050E060E070E0CB017CD99093C9
:1011D0002C0980932B0980EA96E8A1E0B0E0809387
:1011E0002D0990932E09A0932F09B0933009809177
:1011F0002B0990912C0940EA56E861E070E0ACD9E7
:1012000081E080932A090000DF91CF910895CF9368
:10121000DF93CDB7DEB780915509882309F581E0CA
:10122000809355098091560990915709A0915809CA
:10123000B09159090197A105B10591F480915A091E
:10124000882371F06BE370E080E090E091D8909398
:101250005C0980935B0980915B0990915C0963D87C
:10126000809145098823C1F481E0809345098091EC
:10127000460990914709A0914809B0914909019701
:10128000A105B10549F480914A09882329F080918C
:101290004B0990914C09E2DA809135098823C1F419
:1012A00081E0809335098091360990913709A091AA
:1012B0003809B09139090197A105B10549F4809128
:1012C0003A09882329F080913B0990913C09C6DABC
:1012D000809125098823C1F481E0809325098091BC
:1012E000260990912709A0912809B0912909019711
:1012F000A105B10549F480912A09882329F080913C
:101300002B0990912C09AADA0000DF91CF91089562
:101310000F931F93CF93DF9300D000D000D01F9284
:10132000CDB7DEB79A8389834B835C836D837E83DD
:101330000F83188729873A8729813A818B819C817D
:10134000AD81BE81F90180839183A283B3838981BA
:101350009A819C012C5F3F4F8F819885A985BA8522
:10136000F90180839183A283B38300002A960FB68C
:10137000F894DEBF0FBECDBFDF91CF911F910F91CB
:101380000895EF92FF920F931F93CF93DF93CDB702
:10139000DEB76A970FB6F894DEBF0FBECDBF6D8B78
:1013A0007E8B8F8B988F5A8F498F19821A821B825E
:1013B0001C82F894898D9A8D892B09F00EC1809139
:1013C0006F0390917003A0917103B09172032D8906
:1013D0003E894F89588D281739074A075B07C8F09F
:1013E00080916F0390917003A0917103B09172038B
:1013F0002D893E894F89588D79018A01E81AF90AA9
:101400000A0B1B0BD801C7018D839E83AF83B8875E
:1014100018C080916F0390917003A0917103B091F7
:1014200072032D893E894F89588D79018A01E81A06
:10143000F90A0A0B1B0BD801C7018D839E83AF836A
:10144000B8878091730390917403A0917503B09154
:1014500076032D813E814F815885820F931FA41FF3
:10146000B51F898B9A8BAB8BBC8B8091730390914A
:101470007403A0917503B091760329893A894B8949
:101480005C89281739074A075B0798F4809177032E
:1014900090917803A0917903B0917A030196A11DF0
:1014A000B11D8093770390937803A0937903B09351
:1014B0007A0389899A89AB89BC8980937303909355
:1014C0007403A0937503B093760320917703309152
:1014D00078034091790350917A038091730390913E
:1014E0007403A0917503B091760389019A01AC0150
:1014F000BD0187E693E00CDF8D899E89AF89B88DA9
:1015000080936F0390937003A0937103B093720361
:101510008D819E81AF81B8859C01AD0160EA76E83E
:1015200081E090E00E94A4659B01AC0180917B0367
:1015300090917C03A0917D03B0917E03820F931F55
:10154000A41FB51F80937B0390937C03A0937D031E
:10155000B0937E0380917B0390917C03A0917D03E7
:10156000B0917E0389839A83AB83BC83809104020C
:1015700090910502A0910602B09107028F3F9F4F04
:10158000AF4FBF4F09F442C1809104029091050210
:10159000A0910602B09107028E3F9F4FAF4FBF4F01
:1015A00009F434C1209173033091740340917503A1
:1015B000509176038091040290910502A091060259
:1015C000B091070261E0281739074A075B0708F462
:1015D00060E0862F80935A0319C119861A861B86EC
:1015E0001C861D861E861F86188A8091080290918F
:1015F0000902A0910A02B0910B028F3F9F4FAF4F9B
:10160000BF4FE1F08091080290910902A0910A0277
:10161000B0910B029C01AD012F5F3F4F4F4F5F4FC9
:101620008D899E89AF89B88DBC01CD010E94C765A7
:10163000DC01CB018D8B9E8BAF8BB88F80916F03BC
:1016400090917003A0917103B09172032D893E892E
:101650004F89588D281739074A075B0708F447C098
:1016600080916F0390917003A0917103B091720308
:101670002D893E894F89588D79018A01E81AF90A26
:101680000A0B1B0BD801C70189879A87AB87BC87D8
:1016900020916F0330917003409171035091720358
:1016A0008D899E89AF89B88D79018A01E81AF90A76
:1016B0000A0B1B0BD801C7018D879E87AF87B88B9C
:1016C0002D853E854F85588989859A85AB85BC8552
:1016D00082179307A407B50728F019861A861B8678
:1016E0001C864BC01D861E861F86188A46C08091A8
:1016F0006F0390917003A0917103B09172032D89D3
:101700003E894F89588D79018A01E81AF90A0A0B36
:101710001B0BD801C70189879A87AB87BC872091AB
:101720006F033091700340917103509172038D8962
:101730009E89AF89B88D79018A01E81AF90A0A0BE6
:101740001B0BD801C7018D879E87AF87B88B2D856E
:101750003E854F85588989859A85AB85BC858217DA
:101760009307A407B50728F019861A861B861C86DE
:1017700004C01D861E861F86188A89859A85AB85BA
:10178000BC85892B8A2B8B2BF9F089859A85AB85B3
:10179000BC859C01AD0160EA76E881E090E00E94A2
:1017A000A4659B01AC0180917B0390917C03A09187
:1017B0007D03B0917E03820F931FA41FB51F898301
:1017C0009A83AB83BC8322C0E0907B03F0907C03C0
:1017D00000917D0310917E038D859E85AF85B8892C
:1017E0009C01AD0160EA76E881E090E00E94A4658A
:1017F000DC01CB01A8019701281B390B4A0B5B0BBD
:10180000DA01C90189839A83AB83BC837894898187
:101810009A81AB81BC81BC01CD016A960FB6F89468
:10182000DEBF0FBECDBFDF91CF911F910F91FF9013
:10183000EF900895CF93DF9300D000D0CDB7DEB7FF
:1018400069837A838B839C835E834D832D813E8164
:1018500089819A81AB81BC81A901BC01CD0191DD57
:10186000DC01CB01BC01CD0126960FB6F894DEBF9A
:101870000FBECDBFDF91CF910895CF93DF9300D0FE
:1018800000D0CDB7DEB71C821B821E821D821A8259
:10189000198210925B0310925C0310925D03109208
:1018A0005E0310925F031092600310926103109226
:1018B0006203109263031092640310926503109206
:1018C00066039E012B5F3F4FCE010396B9010E9434
:1018D000B2492D813E818B819C81B9010E942837BC
:1018E0009A83898389819A81892B19F089819A81C8
:1018F00013C09E012B5F3F4FCE010396B9010E949A
:10190000D6492D813E818B819C81B9010E94CB15E6
:101910009A83898389819A8126960FB6F894DEBFCF
:101920000FBECDBFDF91CF910895CF93DF9300D04D
:101930001F921F92CDB7DEB78D831A8219821B8248
:1019400060E070E0CB010E94E15A1C820E94F238F4
:101950009A83898389819A81892B39F089819A8137
:10196000029619F081E08B830DC08C81882321F4CD
:1019700089819A81029619F081E090E002C080E0AE
:1019800090E08C838B818823E1F40E94FE159A837A
:10199000898389819A81892B39F089819A8102967C
:1019A00019F081E08B830DC08C81882321F489811B
:1019B0009A81029619F081E090E002C080E090E008
:1019C0008C838B818823E1F40E947D389A838983FC
:1019D00089819A81892B39F089819A81029619F03F
:1019E00081E08B830DC08C81882321F489819A81C9
:1019F000029619F081E090E002C080E090E08C83D4
:101A00008D81882391F060E070E0CB010E94E15A63
:101A10008B81882319F48C81882319F481E090E06C
:101A200002C080E090E08B8302C081E08B838B81D9
:101A3000882309F48ACF89819A810F900F900F90A3
:101A40000F900F90DF91CF910895CF93DF9300D047
:101A500000D01F921F92CDB7DEB718861F828091EB
:101A60005A03882329F060E070E0CB010E944A17F6
:101A70000E9427179E838D8319821A821B821C82E3
:101A800018C06AE070E080E090E00E94E15A89812D
:101A90009A81AB81BC81805F984DAF4FBF4F8983E6
:101AA0009A83AB83BC8381E040DF0E9427179E832B
:101AB0008D8389819A81AB81BC8181159748A34927
:101AC000B34020F48D819E81892BD9F60E94321774
:101AD00098878F830E948D3A98878F831092420354
:101AE000109243031092460310924703109248034A
:101AF0001092490310924A0310924B0310924C0328
:101B000010924D0310924E0310924F031092500307
:101B100010925103109252031092530310925403E7
:101B200010925503109256031092570310925803C7
:101B3000109259038EEF9FEFAFEFBFEF8093040237
:101B400090930502A0930602B093070210925A03E5
:101B500048E050E060E070E087E693E00E9488662D
:101B600010926F031092700310927103109272031F
:101B700010927303109274031092750310927603FF
:101B800010927703109278031092790310927A03DF
:101B900010927B0310927C0310927D0310927E03BF
:101BA0008F81988528960FB6F894DEBF0FBECDBF03
:101BB000DF91CF910895CF93DF9300D000D01F9293
:101BC0001F92CDB7DEB78091810390918203A091DF
:101BD0008303B09184039A83898389819A81892BB5
:101BE00009F431C180918503882369F480918103D0
:101BF00090918203A0918303B0918403892B8A2B57
:101C00008B2B09F420C18091990390919A0302973C
:101C100009F019C18091A303882309F014C18981B7
:101C20009A81FC0180819181A281B3818B839C8305
:101C3000AD83BE8380919F03882309F4F0C0809117
:101C4000920390919303892B31F0809192039091AC
:101C50009303029719F481E090E002C080E090E0E5
:101C60008F838091920390919303019731F080913B
:101C7000920390919303029719F481E090E002C0DF
:101C800080E090E088878F81882309F462C080918A
:101C9000860390918703A0918803B09189039C01EA
:101CA000AD016B817C818D819E810E94674F88236D
:101CB000B4F080919B0390919C03A0919D03B091FF
:101CC0009E032091860330918703409188035091B1
:101CD0008903BC01CD010E94854E882344F1809187
:101CE000860390918703A0918803B09189039C019A
:101CF000AD016B817C818D819E810E94674F18169A
:101D000044F580919B0390919C03A0919D03B09119
:101D10009E03209186033091870340918803509160
:101D20008903BC01CD010E94854E882391F48091E6
:101D30008E0390918F03A0919003B0919103892B12
:101D40008A2B8B2B19F481E08093A20381E080938E
:101D5000A3038885882309F462C08091860390914B
:101D60008703A0918803B09189039C01AD016B8129
:101D70007C818D819E810E94854E8823B4F4809160
:101D80009B0390919C03A0919D03B0919E03209191
:101D90008603309187034091880350918903BC01E9
:101DA000CD010E94674F882344F58091860390916E
:101DB0008703A0918803B09189039C01AD016B81D9
:101DC0007C818D819E810E94854E882341F5809182
:101DD0009B0390919C03A0919D03B0919E03209141
:101DE0008603309187034091880350918903BC0199
:101DF000CD010E94674F181694F480918E03909144
:101E00008F03A0919003B0919103892B8A2B8B2B88
:101E100019F481E08093A20381E08093A303909161
:101E2000A30381E0992309F080E080939F038B81D5
:101E30009C81AD81BE8180939B0390939C03A09372
:101E40009D03B0939E03000028960FB6F894DEBF62
:101E50000FBECDBFDF91CF910895CF93DF931F9237
:101E6000CDB7DEB719828091990390919A03892B9F
:101E7000C9F4109294031092A30380911002882356
:101E800071F182E090E090939A038093990310920D
:101E900010028091950390919603892B01F581E0C2
:101EA00089831DC01092100280919403882349F009
:101EB0001092A20310929A03109299031092940325
:101EC0000EC08091950390919603892B19F481E0BF
:101ED000898305C08091A30389831092A303809115
:101EE000990390919A0382309105F9F0833091051E
:101EF00030F4009761F0019709F44CC1AEC1833012
:101F0000910509F4EEC0049709F46AC0A6C1809156
:101F10001002882309F4ACC182E090E090939A0308
:101F20008093990310921002A3C18981882309F438
:101F3000A1C180918E0390918F03A0919003B091E5
:101F40009103181619061A061B06ECF480919503E6
:101F5000909196030197B9F480918E0390918F032D
:101F6000A0919003B09191038093A4039093A50353
:101F7000A093A603B093A70383E090E090939A0305
:101F80008093990377C180910C0290910D02A091EA
:101F90000E02B0910F02892B8A2B8B2BD1F081E09E
:101FA0008093A20380910C0290910D02A0910E02E9
:101FB000B0910F028093A4039093A503A093A6036E
:101FC000B093A70384E090E090939A0380939903E1
:101FD00051C11092A20310929A03109299034AC120
:101FE0008091A4039091A503A091A603B091A703AB
:101FF000892B8A2B8B2B99F08091A4039091A503B8
:10200000A091A603B091A7030197A109B1098093FC
:10201000A4039093A503A093A603B093A703809174
:10202000A4039091A503A091A603B091A703892BC7
:102030008A2B8B2B09F020C18091970390919803F4
:10204000019739F41092A20310929A031092990307
:1020500013C180918A0390918B03A0918C03B0915E
:102060008D03892B8A2B8B2BC9F01092A2038091B0
:102070008A0390918B03A0918C03B0918D03809380
:10208000A4039093A503A093A603B093A70381E0B4
:1020900090E090939A0380939903EEC089818823FE
:1020A000B9F080910C0290910D02A0910E02B091B6
:1020B0000F028093A4039093A503A093A603B0936B
:1020C000A70384E090E090939A0380939903D4C08F
:1020D0001092A20382E090E090939A038093990378
:1020E000CBC08091A4039091A503A091A603B091C9
:1020F000A703892B8A2B8B2B99F08091A4039091B5
:10210000A503A091A603B091A7030197A109B10966
:102110008093A4039093A503A093A603B093A70371
:102120008091A4039091A503A091A603B091A70369
:10213000892B8A2B8B2B09F0A1C080910C029091E6
:102140000D02A0910E02B0910F02892B8A2B8B2BCE
:10215000D1F081E08093A20380910C0290910D0256
:10216000A0910E02B0910F028093A4039093A50357
:10217000A093A603B093A70384E090E090939A0302
:10218000809399037BC01092A20310929A0310923D
:10219000990374C08091A4039091A503A091A60314
:1021A000B091A703892B8A2B8B2B99F08091A403E4
:1021B0009091A503A091A603B091A7030197A1094F
:1021C000B1098093A4039093A503A093A603B093B1
:1021D000A7038091A4039091A503A091A603B091B9
:1021E000A703892B8A2B8B2B09F04AC0898188236E
:1021F00069F180910C0290910D02A0910E02B091B4
:102200000F02892B8A2B8B2BD1F081E08093A203C4
:1022100080910C0290910D02A0910E02B0910F02DC
:102220008093A4039093A503A093A603B093A70360
:1022300084E090E090939A038093990321C01092D8
:10224000A20310929A03109299031AC082E090E0C0
:1022500090939A038093990313C01092A203109253
:10226000A3031092940310929A031092990309C049
:10227000000007C0000005C0000003C0000001C04E
:10228000000000000F90DF91CF910895CF93DF936E
:10229000CDB7DEB710929B0310929C0310929D0362
:1022A00010929E0310929F03809195039091960344
:1022B0009093A1038093A0031092A2031092A30312
:1022C0001092A4031092A5031092A6031092A703E4
:1022D00010929A031092990380E090E0DF91CF91E1
:1022E0000895CF93DF9300D0CDB7DEB79B838A8369
:1022F0008A819B81892B09F05BC0209195033091E5
:1023000096038091A0039091A10341E0281739071B
:1023100009F440E04983809195039091960390934E
:10232000A1038093A0038981882381F01092A203E6
:102330001092A3031092A4031092A5031092A60377
:102340001092A70310929A0310929903809195031B
:1023500090919603019761F58091990390919A036A
:10236000892B21F480911002882391F480919903A4
:1023700090919A030197E1F48091A4039091A503B1
:10238000A091A603B091A7030197A105B10581F41F
:102390001092A4031092A5031092A6031092A70313
:1023A0001092100282E090E090939A038093990338
:1023B0008091950390919603019751F480917F034A
:1023C000909180032A813B812817390709F4F3DBB8
:1023D0008A819B81892B21F440DD1092A90307C0DB
:1023E0008091A903882319F08091A80302C08091ED
:1023F000A2030F900F900F90DF91CF910895CF938C
:10240000DF93CDB7DEB710929B0310929C0310921E
:102410009D0310929E0310929F0310929A031092B4
:1024200099031092A1031092A003109280031092BE
:102430007F031092A2031092A3031092A4031092A0
:10244000A5031092A6031092A7031092A80310925E
:10245000A9031092810310928203109283031092B9
:1024600084031092850310928603109287031092C2
:1024700088031092890388EE93E0A0E0B0E0809397
:102480000C0290930D02A0930E02B0930F021092D3
:102490008A0310928B0310928C0310928D0310927A
:1024A0008E0310928F03109290031092910310925A
:1024B00093031092920381E0809310021092940390
:1024C000109296031092950310929803109297031E
:1024D00080E090E0DF91CF910895CF93DF93CDB767
:1024E000DEB78091950390919603892B01F5809139
:1024F0001002882359F080919403882339F481E0F5
:102500008093A80381E08093A90311C08091940374
:10251000882351F080911002882331F41092A8038F
:1025200081E08093A90303C01092A90300C00000BA
:10253000DF91CF910895CF93DF93CDB7DEB72C977E
:102540000FB6F894DEBF0FBECDBF9E838D83788714
:102550006F835A8749873C872B871A8219820E948A
:10256000823A9C838B838D819E81FC018081918145
:102570000E945F3D8B859C8560E070E00E94EB3996
:102580009C018F819885FC01318320830E94D13981
:102590009C0189859A85FC01318320838F819885F0
:1025A000FC0180819181892BE1F08F819885FC016C
:1025B000208131818B819C81B9010E94B5419C01B0
:1025C0008D819E81FC01318320838D819E81FC0160
:1025D00080819181892B49F486EF9FEF9A838983CB
:1025E00004C088EF9FEF9A83898389819A812C9612
:1025F0000FB6F894DEBF0FBECDBFDF91CF91089527
:10260000CF93DF9300D000D0CDB7DEB79A83898314
:102610007C836B835E834D8389819A81892B21F032
:1026200089819A810E945F3D8D819E81FC0111828A
:10263000108280E090E026960FB6F894DEBF0FBEC1
:10264000CDBFDF91CF910895CF93DF9300D000D01D
:10265000CDB7DEB79A8389837C836B835E834D839A
:102660008D819E8122E030E0FC01318320838FEF59
:102670009FEF26960FB6F894DEBF0FBECDBFDF9159
:10268000CF910895CF93DF9300D01F92CDB7DEB7DF
:102690008B836C8385E090E09A8389838B81813F73
:1026A00018F01A82198229C08B81843E40F08B81F8
:1026B000813F28F481E090E09A8389831EC08B815A
:1026C000833D18F08B81833E48F08B81803C59F428
:1026D0008C81882341F08C81833028F482E090E063
:1026E0009A8389830AC08B81883C38F08B81833D33
:1026F00020F483E090E09A83898389819A810F9006
:102700000F900F900F90DF91CF910895CF93DF93AB
:10271000CDB7DEB767970FB6F894DEBF0FBECDBF5B
:10272000998B888B7B8B6A8B5D8B4C8B3F8B2E8B35
:10273000888999899C838B838B819C81FC01808112
:102740008D8319828D81803C49F48A899B89029707
:1027500028F08B819C81FC01818189838091AB036E
:102760009091AC03892B09F455C069818D818ADF72
:102770009B878A871A828A859B850597C1F18A85FE
:102780009B85880F991F8F549C4FFC0180819181FC
:102790009D878C871F861E868C859D85892B39F1A8
:1027A0008D81882F90E02C853D85F90119959F87B3
:1027B0008E8721E08E859F85892B09F420E02A836E
:1027C0008A818823A1F08E859F85FC012281338137
:1027D0008C899D89FC01318320838E859F85FC0136
:1027E000248135818E899F89FC01318320838A81F0
:1027F000882309F053C08C899D8924E233E1FC01D0
:10280000318320838E899F8927EB34E1FC0131835A
:10281000208344C08D818F3FA9F58091B1039091B1
:10282000B2039F838E838C899D89FC011182108263
:102830008E899F89FC01118210828E819F81892B54
:1028400069F12E813F818FEF90E0F9011995998709
:10285000888788859985892B09F188859985FC0168
:10286000228133818C899D89FC0131832083888575
:102870009985FC01248135818E899F89FC013183F2
:1028800020830CC08C899D8920E033E1FC013183D9
:1028900020838E899F89FC01118210820000679637
:1028A0000FB6F894DEBF0FBECDBFDF91CF91089574
:1028B000CF93DF93CDB7DEB78091AB039091AC039C
:1028C000DF91CF910895CF93DF931F921F92CDB7E1
:1028D000DEB79A83898389819A819093AC03809330
:1028E000AB0300000F900F90DF91CF910895CF932D
:1028F000DF93CDB7DEB78091AD03DF91CF9108951F
:10290000CF93DF931F92CDB7DEB789839091AD034C
:102910008981892B8093AD0300000F90DF91CF91C7
:102920000895CF93DF931F92CDB7DEB78983898156
:1029300080959091AD0389238093AD0300000F90A3
:10294000DF91CF910895CF93DF93CDB7DEB780911C
:10295000AE03DF91CF910895CF93DF93CDB7DEB76C
:102960008091AF039091B003DF91CF910895CF9301
:10297000DF9300D000D000D01F92CDB7DEB79E838A
:102980008D8378876F835A8749878D819E81892BB4
:1029900051F48F8198859C838B838B819C812FEF51
:1029A000FC01208394C08F8198859A8389838981D3
:1029B0009A812EEFFC0120838D819E81092E000CCF
:1029C000AA0BBB0B4096A11DB11D80319105A1053D
:1029D000B10508F076C0FC018827EE50FB4E8F4F02
:1029E0000C94E9655B1555154F15491543153D15B3
:1029F000311537152B1525151F151A150815021534
:102A00000E15141589819A8120E3FC0121835FC092
:102A100089819A8129E2FC01218359C089819A81A7
:102A200022E2FC01218353C089819A8120E2FC01CA
:102A300021834DC089819A81FC01118248C089811E
:102A40009A8123E2FC01218342C089819A8121E29B
:102A5000FC0121833CC089819A8121E1FC01218311
:102A600036C089819A8127E2FC01218330C08981A7
:102A70009A812AE2FC0121832AC089819A8120E17E
:102A8000FC01218324C089819A8124E2FC012183F5
:102A90001EC089819A8128E2FC01218318C08981A6
:102AA0009A8126E2FC01218312C089819A8121E367
:102AB000FC0121830CC089819A8123E3FC012183DD
:102AC00006C089819A8120E2FC01218300C00000B8
:102AD0002A960FB6F894DEBF0FBECDBFDF91CF911F
:102AE0000895CF93DF9300D000D000D01F92CDB7D0
:102AF000DEB79E838D8378876F835A8749871A82D2
:102B000019828F819885892BD9F11C821B821C82A6
:102B10001B822BC02B813C81C901880F991F820F1A
:102B2000931F880F991F9C018F819885820F931F97
:102B3000FC01808191812D813E812817390781F424
:102B40002B813C81C901880F991F820F931F880F29
:102B5000991F9C018F819885820F931F9A83898387
:102B60008B819C8101969C838B832B813C81898501
:102B70009A852817390720F489819A81892B51F287
:102B800089819A812A960FB6F894DEBF0FBECDBF19
:102B9000DF91CF910895CF93DF9300D01F92CDB7EF
:102BA000DEB79A8389837C836B838091AA03882311
:102BB00019F084EF9FEF1BC049D554D59093B20311
:102BC0008093B1030E94DA2C0E94F22C9093B603FA
:102BD0008093B5030E94C3350E94CE359093B40311
:102BE0008093B30381E08093AA0380E090E00F908C
:102BF0000F900F900F90DF91CF910895EF92FF9279
:102C00000F931F93CF93DF93CDB7DEB764970FB6C3
:102C1000F894DEBF0FBECDBF1A8219821C821B82C0
:102C200018861F821A8619861C861B861E861D869C
:102C3000188A1F861E821D821A8A198A1C8A1B8A7C
:102C40008091AA03882319F487EF9FEFC3C0BE01C8
:102C5000635F7F4F9E01255F3F4FAE01475F5F4F30
:102C6000CE0107968B01BC0180E090E00E942F39D5
:102C70009A83898389819A81892B49F089819A81F4
:102C8000049629F089819A81059609F096C08F8172
:102C90009885892B59F02B853C858D859E85280F3D
:102CA000391F89859A858217930728F488EF9FEF4B
:102CB0009A83898385C02F8138858B859C85820F77
:102CC000931F9E838D836D857E859E012D5E3F4F74
:102CD000AE014F5E5F4F8D819E8118DD89899A8993
:102CE000892B29F484EF9FEF9A83898369C029890E
:102CF0003A896B857C858F819885AE01415F5F4FF6
:102D0000F90119959C838B838B899C89892B09F404
:102D100051C08F859889892B09F44CC01A82198279
:102D20002D853E858F8598892817390768F42F856A
:102D30003889AE01455F5F4FBE01675F7F4FCE01AF
:102D40000796F9DB9A8389832D853E858D819E8147
:102D5000A90160E070E00E94886689819A81892BD0
:102D600049F52F8138858B859C85820F931F9E8323
:102D70008D832B893C894F8558896D817E818B811C
:102D80009C81F90119956F8578894B855C8529852A
:102D90003A858F8198857B018A01AC016FEF7FEFC7
:102DA00081E090E00E94D8379A83898389819A8153
:102DB000892B29F489819A810DC0000001C000008F
:102DC0008F819885892B21F08F8198850E945F3DA6
:102DD00089819A8164960FB6F894DEBF0FBECDBF8D
:102DE000DF91CF911F910F91FF90EF900895CF93B6
:102DF000DF9300D000D01F921F92CDB7DEB79C8327
:102E00008B834D835E836F8378871A8219828091CA
:102E1000AA03882319F487EF9FEF10C08D819E814C
:102E2000AF81B885EB81FC8120E0AC01BD01CF0111
:102E30000E940E309A83898389819A8128960FB6E1
:102E4000F894DEBF0FBECDBFDF91CF910895CF9331
:102E5000DF93CDB7DEB78091AB039091AC03DF91E8
:102E6000CF910895CF93DF93CDB7DEB70E94ED35B4
:102E70000E943F3416D448E050E060E070E081EBFF
:102E800093E00E9488661092AA0380E090E0DF91B0
:102E9000CF910895CF93DF9300D000D0CDB7DEB7A8
:102EA0006B837C838D839E838B819C81AD81BE816E
:102EB000BC01CD010E94CC309A83898389819A819B
:102EC00026960FB6F894DEBF0FBECDBFDF91CF912F
:102ED0000895CF93DF9300D01F921F92CDB7DEB736
:102EE0009D838C8381E089838C819D81298140E051
:102EF00050E0BA010E940E309B838A838A819B81B5
:102F00000F900F900F900F900F90DF91CF91089539
:102F1000CF93DF9300D01F921F92CDB7DEB78D8382
:102F200081E090E09A8389830E94423A9C838B835C
:102F30008D81282F30E08B819C8149815A81BA0193
:102F40000E94B365CB0141E02817390708F040E043
:102F5000842F0F900F900F900F900F90DF91CF91D3
:102F60000895CF93DF9300D01F921F92CDB7DEB7A5
:102F70009C838B836D83A1D39A8389838091BE03C5
:102F8000482F50E029813A818B819C81B9010E94B0
:102F90007F6600000F900F900F900F900F90DF91C1
:102FA000CF910895CF93DF93CDB7DEB72D970FB6AE
:102FB000F894DEBF0FBECDBF998788877B876A876D
:102FC0005D874C871A821982288539858A859B8579
:102FD000820F931F9C838B838B819C819E838D8327
:102FE0001F820E94EA328F838F81882351F48C855F
:102FF0009D8522E030E0FC013183208385EF9FEF47
:103000002DC08D819E81FC018181882331F08D81CD
:103010009E81FC018181813019F481E090E002C041
:1030200080E090E08F838F81882351F48C859D858B
:1030300022E030E0FC01318320838EEF9FEF0EC051
:1030400081E090E040DC1A8219828C859D8528E021
:1030500030E0FC013183208389819A812D960FB65F
:10306000F894DEBF0FBECDBFDF91CF910895CF930F
:10307000DF9300D000D01F921F92CDB7DEB79C83A4
:103080008B837E836D8358874F838B819C81892BB3
:10309000A9F58D819E819A83898389819A8148E0EF
:1030A00050E060E070E00E94886689819A812FEF8D
:1030B000FC01208325E089819A81FC01218320E0A5
:1030C00089819A81FC0122830E94423A282F8981BA
:1030D0009A81FC0123830E94393A9C0189819A815B
:1030E000FC013583248389819A8121E0FC012683B8
:1030F00089819A8121E0FC01278308C04F8158858E
:103100002D813E818B819C81B90131DC00002896A4
:103110000FB6F894DEBF0FBECDBFDF91CF910895FB
:10312000CF93DF9300D000D01F92CDB7DEB79B8343
:103130008A837D836C835F834E8381E089830E94D1
:10314000EA3289838981882351F48E819F8122E02C
:1031500030E0FC013183208385EF9FEF0CC080E0DD
:1031600090E0B1DB8E819F8121E030E0FC01318372
:10317000208380E090E027960FB6F894DEBF0FBE64
:10318000CDBFDF91CF910895CF93DF9300D000D0D2
:10319000CDB7DEB79A8389837C836B835E834D834F
:1031A0008D819E8126E030E0FC013183208380E028
:1031B00090E026960FB6F894DEBF0FBECDBFDF912C
:1031C000CF910895CF93DF9300D000D01F921F922C
:1031D000CDB7DEB79C838B837E836D8358874F8307
:1031E0008D819E819A83898389819A8146E050E00E
:1031F00060E070E00E94886689819A812FEFFC016F
:10320000208375DB282F89819A81FC0121839BDB38
:10321000282F89819A81FC0122839EDB9C01898170
:103220009A81FC0135832483000028960FB6F89418
:10323000DEBF0FBECDBFDF91CF910895CF93DF9357
:1032400000D000D01F92CDB7DEB79B838A837D83E9
:103250006C835F834E8319820E94CD32898389817A
:10326000882321F00E94673A0E94DE328E819F817E
:1032700022E030E0FC01318320838BEF9FEF279623
:103280000FB6F894DEBF0FBECDBFDF91CF9108958A
:10329000CF93DF93CDB7DEB72D970FB6F894DEBF8F
:1032A0000FBECDBF998788877B876A875D874C87EC
:1032B0001A821982288539858A859B85820F931FFA
:1032C0009C838B838B819C819E838D831F828D81C8
:1032D0009E81FC0123818D819E81FC0184819581E9
:1032E000A681B781422FBC01CD01F6D18F838F819A
:1032F000882351F48C859D8522E030E0FC013183E8
:10330000208384EF9FEF09C08C859D8521E030E00C
:10331000FC013183208389819A812D960FB6F89420
:10332000DEBF0FBECDBFDF91CF910895CF93DF9366
:10333000CDB7DEB72F970FB6F894DEBF0FBECDBF67
:103340009B878A877D876C875F874E871A82198261
:103350002A853B858C859D85820F931F9C838B835B
:103360008B819C819E838D831F82A7D199878887BB
:103370008D819E81FC018181CBDD8F838F818823AC
:1033800051F48E859F8522E030E0FC01318320835B
:103390008EEF9FEF22C088859985892B51F48E8509
:1033A0009F8522E030E0FC013183208384EF9FEF92
:1033B00014C08D819E81FC0181818093BE03809128
:1033C000BE03882F90E09C012F5F3F4F8E859F8525
:1033D000FC013183208389819A812F960FB6F8945E
:1033E000DEBF0FBECDBFDF91CF910895CF93DF93A6
:1033F000CDB7DEB72D970FB6F894DEBF0FBECDBFA9
:10340000998788877B876A875D874C8788859985B8
:10341000892B91F552D19A8389838A859B859C83D8
:103420008B838B819C8141E050E060E070E00E94E2
:1034300088668B819C812FEFFC01208389819A8192
:10344000892B11F18091BE03882F90E001962C8585
:103450003D8528173907C1F48A859B8501969E838F
:103460008D831F828D819E816F817BDD8091BE0364
:1034700064D11092BE0308C04C855D852A853B85CA
:1034800088859985B90173DA00002D960FB6F894F6
:10349000DEBF0FBECDBFDF91CF910895CF93DF93F5
:1034A000CDB7DEB72D970FB6F894DEBF0FBECDBFF8
:1034B000998788877B876A875D874C871A821982FC
:1034C000288539858A859B85820F931F9C838B83F2
:1034D0008B819C819E838D831F828D819E81FC01C7
:1034E000818116DD8F838F81882351F48C859D85A2
:1034F00022E030E0FC01318320838EEF9FEF31C06A
:103500008D819E81FC0123818D819E81FC018481BE
:103510009581A681B781422FBC01CD01DDD08F837B
:103520008F81882351F48C859D8522E030E0FC0159
:103530003183208384EF9FEF14C08D819E81FC0135
:1035400081818093BE038091BE03882F90E09C010F
:103550002F5F3F4F8C859D85FC01318320838981BE
:103560009A812D960FB6F894DEBF0FBECDBFDF91C6
:10357000CF910895CF93DF93CDB7DEB72D970FB6D8
:10358000F894DEBF0FBECDBF998788877B876A8797
:103590005D874C8788859985892B91F58ED09A8394
:1035A00089838A859B859C838B838B819C8141E069
:1035B00050E060E070E00E9488668B819C812FEF74
:1035C000FC01208389819A81892B11F18091BE03AE
:1035D000882F90E001962C853D8528173907C1F486
:1035E0008A859B8501969E838D831F828D819E8116
:1035F0006F81B7DC8091BE03A0D01092BE0308C0DB
:103600004C855D852A853B8588859985B901AFD92B
:1036100000002D960FB6F894DEBF0FBECDBFDF9130
:10362000CF910895CF93DF931F921F92CDB7DEB74E
:103630009A83898389819A8147E050E065E372E04B
:1036400050DA0F900F90DF91CF910895CF93DF93D1
:10365000CDB7DEB782E19BE110D093D00000DF91BF
:10366000CF910895CF93DF93CDB7DEB78091BF039D
:103670009091C003DF91CF910895CF93DF931F9274
:103680001F92CDB7DEB79A83898389819A819093FF
:10369000C0038093BF0300000F900F90DF91CF9184
:1036A0000895CF93DF93CDB7DEB773D080E090E07D
:1036B000E4DF0000DF91CF910895CF93DF93CDB782
:1036C000DEB78091B9039091BA03A091BB03B0918A
:1036D000BC03DF91CF910895CF93DF9300D01F9269
:1036E0001F92CDB7DEB769837A838B839C834D832A
:1036F0008D81882351F489819A81AB81BC81892B8A
:103700008A2B8B2B11F480E010C089819A81AB81C8
:10371000BC818093B9039093BA03A093BB03B09389
:10372000BC038D818093BD0381E00F900F900F90BB
:103730000F900F90DF91CF910895CF93DF931F9259
:10374000CDB7DEB789832091B9033091BA03409198
:10375000BB035091BC038981882F90E0A0E0B0E0CA
:10376000820F931FA41FB51F8093B9039093BA03D0
:10377000A093BB03B093BC0300000F90DF91CF91E7
:103780000895CF93DF93CDB7DEB70000DF91CF91DF
:103790000895CF93DF93CDB7DEB70000DF91CF91CF
:1037A0000895CF93DF9300D0CDB7DEB79B838A8394
:1037B0001982F8948091C7039091C80321E0892B66
:1037C00009F020E029838981882309F4789489818C
:1037D0000F900F900F90DF91CF910895CF93DF93CB
:1037E0001F921F92CDB7DEB79A8389837894000029
:1037F0000F900F90DF91CF910895CF93DF931F9299
:103800001F92CDB7DEB79A838983F8948091C7035E
:103810009091C80301969093C8038093C70378944E
:1038200000000F900F90DF91CF910895CF93DF9319
:103830001F921F92CDB7DEB79A838983F894809147
:10384000C7039091C80301979093C8038093C7035F
:10385000789400000F900F90DF91CF910895CF934F
:10386000DF931F921F92CDB7DEB79A838983209191
:10387000C1033091C20349815A8163E1649FC00151
:10388000659F900D1124820F931FFC018381948109
:10389000029799F02091C1033091C20349815A8166
:1038A00063E1649FC001659F900D1124820F931FF7
:1038B000FC0183819481039719F481E090E002C0B8
:1038C00080E090E00F900F90DF91CF910895CF931B
:1038D000DF9300D0CDB7DEB719821B821A821B821C
:1038E0001A8209C08A819B81BADF89838A819B8180
:1038F00001969B838A838091C3039091C4032A819C
:103900003B812817390718F48981882359F381E00E
:103910009981992309F080E00F900F900F90DF912B
:10392000CF910895CF93DF9300D01F921F92CDB710
:10393000DEB79B838A836C834D838091C103909112
:10394000C203892B09F477C08091C3039091C4030B
:103950002A813B812817390708F06DC02091C103E7
:103960003091C2034A815B8163E1649FC001659F1E
:10397000900D1124820F931FFC0180819181892B6E
:1039800009F459C02091C1033091C2034A815B817F
:1039900063E1649FC001659F900D1124820F931F06
:1039A000FC0182819C81981708F045C02091C103D9
:1039B0003091C2034A815B8163E1649FC001659FCE
:1039C000900D1124820F931FFC01208131818C8185
:1039D000482F50E06DE0649FC001659F900D112459
:1039E000820F931FFC0180819181892B21F120910D
:1039F000C1033091C2034A815B8163E1649FC001CE
:103A0000659F900D1124820F931FFC01208131814D
:103A10008C81482F50E06DE0649FC001659F900D40
:103A20001124820F931FFC0182819D81981718F445
:103A300081E090E002C080E090E0898389810F906E
:103A40000F900F900F900F90DF91CF910895CF932B
:103A5000DF9300D000D000D0CDB7DEB78C836D836C
:103A60002E833F834887598719828D81882F90E064
:103A70009B838A838C818F3F41F48A819B818F3F16
:103A8000910509F010F481E08983898129960FB6A8
:103A9000F894DEBF0FBECDBFDF91CF910895CF93D5
:103AA000DF931F92CDB7DEB789838981882F90E09D
:103AB0008F7E21E0892B09F020E0822F0F90DF918B
:103AC000CF910895CF93DF931F921F92CDB7DEB7AA
:103AD0008A8319828A81882331F08A81813019F0A2
:103AE0008A81823011F481E0898389810F900F905F
:103AF000DF91CF910895CF93DF931F921F92CDB79F
:103B0000DEB78A8319828A81882331F08A818130E5
:103B100019F08A81823011F481E0898389810F90C4
:103B20000F90DF91CF910895CF93DF93CDB7DEB79C
:103B300081E0DF91CF910895CF93DF9300D0CDB78F
:103B4000DEB79B838A832091C1033091C2034A81EF
:103B50005B8163E1649FC001659F900D1124820F1A
:103B6000931FFC0183858230D9F42091C1033091E9
:103B7000C2034A815B8163E1649FC001659F900D30
:103B80001124820F931FFC01258136818091190237
:103B900090911A022817390719F081E090E002C0CD
:103BA00080E090E089838981882339F08A819B8134
:103BB000892B19F481E090E002C080E090E08983D5
:103BC00089810F900F900F90DF91CF910895CF933F
:103BD000DF9300D000D01F92CDB7DEB79E838D83D8
:103BE0006F838D819E81FC01208131818F81482FDF
:103BF00050E06DE0649FC001659F900D1124820F1D
:103C0000931F9C838B838B819C81FC014381548116
:103C10008D819E81FC0125853685429FC001439F91
:103C2000900D529F900D112401969A8389838F8164
:103C3000882379F48D819E81FC018781882F90E013
:103C400080719927892B29F089819A8104969A831A
:103C5000898389819A8127960FB6F894DEBF0FBEBB
:103C6000CDBFDF91CF910895CF93DF9300D000D0E7
:103C700000D01F921F92CDB7DEB79B878A871D8227
:103C80001C821A8219821B821B821EC08A859B8518
:103C90006B819DDF9F838E83198618868E819F811D
:103CA00061E070E00E94EB39998788872885398523
:103CB00089819A818217930720F4888599859A8350
:103CC00089838B818F5F8B838A859B85FC018281B1
:103CD0009B819817D8F28A859B85AC014F5E5F4F18
:103CE0008A859B85FC018281282F30E0C901880FDD
:103CF000991F280F391F89819A81B9010E945E3E60
:103D00009D838C838C819D81892B39F08A859B854D
:103D10002FEF3FEFFC01328B218B8C819D812B9605
:103D20000FB6F894DEBF0FBECDBFDF91CF910895DF
:103D3000CF93DF931F921F92CDB7DEB79A8389830B
:103D400089819A81FC0181899289019639F0898162
:103D50009A81FC01818992890E94004089819A811F
:103D60002FEF3FEFFC01328B218B00000F900F9063
:103D7000DF91CF910895CF93DF93CDB7DEB76197F1
:103D80000FB6F894DEBF0FBECDBF9D878C877F87AF
:103D90006E87598B488B1A8219822C853D858E85BA
:103DA0009F85820F931F9C838B838B819C819E8335
:103DB0008D838D819E81FC018281938198878F8381
:103DC0008D819E81FC01848189878D819E81FC018A
:103DD00085818A871B868F8198854A856985A2DDC2
:103DE0008B878B85882351F48889998922E030E07C
:103DF000FC01318320838EEF9FEF2BC08F8198854C
:103E00002EDD982F81E0992309F080E08B878B8548
:103E1000882351F48889998922E030E0FC013183BC
:103E2000208388EF9FEF15C08F81988590931602AD
:103E3000809315028985809317028A8580931802E2
:103E40008889998921E030E0FC01318320838981D0
:103E50009A8161960FB6F894DEBF0FBECDBFDF9199
:103E6000CF910895CF93DF93CDB7DEB763970FB6A9
:103E7000F894DEBF0FBECDBF9F878E87798B688B8E
:103E80005B8B4A8B1A8219822E853F858889998996
:103E9000820F931F9C838B838B819C819E838D8358
:103EA000809115029091160298878F838091170256
:103EB0008987809118028A871C861B861D868F81C0
:103EC00098854A8569852EDD8D878D85882351F4F7
:103ED0008A899B8922E030E0FC01318320838AEFCC
:103EE0009FEF9AC08F819885BADC982F81E0992343
:103EF00009F080E08D878D85882351F48A899B891C
:103F000022E030E0FC013183208388EF9FEF84C002
:103F10008D819E81FC0184819581A681B7812D814F
:103F20003E81F90162812D813E81F90171819C01FF
:103F3000AD01872F8CDD8D878D85882351F48A898B
:103F40009B8922E030E0FC01318320838EEF9FEFDC
:103F500063C02091C1033091C2034F81588563E152
:103F6000649FC001659F900D1124820F931FFC0177
:103F7000208131818985482F50E06DE0649FC00128
:103F8000659F900D1124820F931FFC014081518188
:103F90008A85282F30E0C901880F991F880F991F43
:103FA000880F991F821B930B840F951F9C878B870B
:103FB0008D819E81FC0121818B859C85FC01208364
:103FC0008D819E81FC0122818B859C85FC01218352
:103FD0008D819E81FC0123818B859C85FC01228340
:103FE0008D819E81FC0184819581A681B7812B857D
:103FF0003C85F90183839483A583B683809118025D
:104000008F5F809318028A899B8921E030E0FC0150
:104010003183208389819A8163960FB6F894DEBF3D
:104020000FBECDBFDF91CF910895CF93DF93CDB772
:10403000DEB72F970FB6F894DEBF0FBECDBF9B87BC
:104040008A877D876C875F874E871A8219822A85C7
:104050003B858C859D85820F931F9C838B838B81F1
:104060009C819E838D8318861F8219868091C1034F
:104070009091C203892B79F08D819E81FC01228170
:1040800033818091C3039091C4032817390718F432
:1040900081E090E002C080E090E0898789858823F4
:1040A00051F48E859F8522E030E0FC01318320832E
:1040B0008EEF9FEFA3C02091C1033091C2038D8189
:1040C0009E81FC014281538163E1649FC001659F31
:1040D000900D1124820F931F98878F838D819E816D
:1040E000FC0182819381BBDB982F81E0992309F049
:1040F00080E089878985882351F48E859F8522E019
:1041000030E0FC013183208388EF9FEF77C08D8101
:104110009E81FC018481958121E08038910508F021
:1041200020E029878985882351F48E859F8522E0A8
:1041300030E0FC01318320838EEF9FEF5FC08D81E3
:104140009E81FC01978181E0992309F080E08987B5
:104150008985882351F48E859F8522E030E0FC011B
:10416000318320838EEF9FEF49C08D819E81FC01BA
:10417000818195DC89878985882351F48E859F8587
:1041800022E030E0FC013183208386EF9FEF36C0D0
:104190008D819E81FC0121818F819885FC0127837F
:1041A0008D819E81FC01248135818F819885FC0160
:1041B000368325838D819E81FC0126818F819885A0
:1041C000FC0120878D819E81FC0127818F8198854C
:1041D000FC0121878F819885FC018085823028F43D
:1041E0008F81988521E0FC0120878E859F8521E0C5
:1041F00030E0FC013183208389819A812F960FB6AC
:10420000F894DEBF0FBECDBFDF91CF9108950F931D
:104210001F93CF93DF93CDB7DEB76C970FB6F894AB
:10422000DEBF0FBECDBF988F8F8B7A8F698F5C8F6B
:104230004B8F1B861A862F89388D898D9A8D820F18
:10424000931F9D878C878C859D859F878E87198A74
:10425000188A8E859F85FC0182819381CC01A0E024
:10426000B0E08A8B9B8BAC8BBD8B19821E8A8091B0
:10427000C1039091C203892B99F08091C30390915F
:10428000C403CC01A0E0B0E02A893B894C895D8958
:10429000281739074A075B071CF481E090E002C049
:1042A00080E090E089838981882351F48B8D9C8DF7
:1042B00022E030E0FC01318320838EEF9FEF40C28B
:1042C0008A899B89AC89BD898093110290931202DF
:1042D000A0931302B09314022091C1033091C20342
:1042E0004A895B8963E1649FC001659F900D112439
:1042F000820F931F998B888B8E859F85FC0181810E
:10430000E1DB89838981882351F48B8D9C8D22E0A8
:1043100030E0FC013183208386EF9FEF11C204DC83
:10432000882309F47DC088899989FC01838194815F
:10433000892B09F075C088899989FC018781882FAC
:1043400090E082709927892B81F188899989FC01F5
:1043500080819181892B91F08091C603282F30E0D4
:1043600088899989FC018281882F90E0820F931FB0
:10437000813891051CF481E090E002C080E090E07B
:1043800089838981882309F43EC02091C6038889E6
:104390009989FC0122872091C60388899989FC01AB
:1043A0008281820F8093C6032EC088899989FC017F
:1043B00080819181892B91F08091C503282F30E075
:1043C00088899989FC018281882F90E0820F931F50
:1043D0008D3F91051CF481E090E002C080E090E008
:1043E00089838981882379F02091C50388899989F7
:1043F000FC0122872091C50388899989FC0182816B
:10440000820F8093C5038981882351F48B8D9C8D05
:1044100022E030E0FC013183208387EF9FEF90C1E1
:104420008E859F85FC018181813039F08E859F8545
:10443000FC018181823009F0CBC01B821A8281E0AD
:1044400089831B821A82B5C01D821C821F821E8234
:104450001D821C822EC088899989FC0120813181AE
:104460004A815B816DE0649FC001659F900D1124BE
:10447000820F931FFC01408151812C813D81C90134
:10448000880F991F880F991F880F991F821B930B04
:10449000840F951FFC018181882F90E02E813F8140
:1044A000820F931F9F838E838C819D8101969D83B4
:1044B0008C8388899989FC01208131814A815B81C3
:1044C0006DE0649FC001659F900D1124820F931FC2
:1044D000FC018281882F90E02C813D8128173907CB
:1044E0000CF4B9CF8A819B81892B21F58889998920
:1044F000FC018781882F90E080719927892BD1F06A
:1045000088899989FC01458556852E813F81429F86
:10451000C001439F900D529F900D11248C010B5FA1
:104520001F4F0E94393A21E08017910708F420E0DC
:10453000298319C088899989FC01458556852E8172
:104540003F81429FC001439F900D529F900D1124C7
:104550008C010F5F1F4F0E94393A21E080179107AD
:1045600008F420E029838981882351F48B8D9C8D68
:1045700022E030E0FC013183208387EF9FEFE0C031
:1045800088899989FC01208131814A815B816DE0B4
:10459000649FC001659F900D1124820F931F2E818F
:1045A0003F81FC01348323838A819B8101969B8315
:1045B0008A8388899989FC018281882F90E02A81E9
:1045C0003B812817390724F48981882309F03CCFDF
:1045D00088899989FC0185819681E3D88E8B8E89A3
:1045E000882309F49EC0198618868E859F85FC0154
:1045F0008181882F90E081309105D1F08230910542
:1046000009F469C0892B09F071C08889998921E072
:1046100030E0FC01348323835AD9882309F463C032
:1046200081E090E00E94631480E40E9491145BC0DA
:1046300088899989FC01818992890196C9F58889BF
:104640009989FC01258136818091190290911A0285
:104650002817390799F488899989AC014F5E5F4F13
:1046600020911D0230911E0280911B0290911C022C
:10467000B9010E94F940998788871AC08A899B8965
:10468000AC89BD89181619061A061B068CF0888994
:104690009989FC0185819681892B51F488899989B2
:1046A000E3DA9987888788899989FC01108A1786B7
:1046B00088859985892BC9F48889998923E030E018
:1046C000FC013483238382E090E00E94631480E441
:1046D0000E9480140AC08889998922E030E0FC0198
:1046E0003483238303C0000001C0000088899989B6
:1046F000FC018581968172D88B8D9C8D22E030E003
:10470000FC013183208388859985892B51F08B8D1D
:104710009C8D22E030E0FC01318320838DEF9FEF00
:104720000FC08E89882351F48B8D9C8D22E030E060
:10473000FC013183208385EF9FEF02C08A859B8532
:104740006C960FB6F894DEBF0FBECDBFDF91CF9150
:104750001F910F910895CF93DF9300D000D01F9247
:104760001F92CDB7DEB79C838B837E836D83588782
:104770004F838B819C81892B29F58D819E819A8322
:10478000898389819A812FEFFC0120832091C103C5
:104790003091C2038091110290911202A0911302F4
:1047A000B0911402AC0163E1649FC001659F900D5C
:1047B0001124820F931FFC01228589819A81FC01BB
:1047C000218309C04F8158852D813E818B819C8139
:1047D000B9010E94B714000028960FB6F894DEBF06
:1047E0000FBECDBFDF91CF910895CF93DF93CDB7AB
:1047F000DEB766970FB6F894DEBF0FBECDBF9A8BBB
:10480000898B7C8B6B8B5E8B4D8B18861F822989E5
:104810003A898B899C89820F931F9A87898789851A
:104820009A859C878B871D861E8619821A821B8219
:104830001C828B859C85FC0181815DD98D878D854E
:10484000882351F48D899E8922E030E0FC01318378
:10485000208386EF9FEF20C28091C1039091C20315
:10486000892B49F08091C3039091C403892B19F0DF
:1048700081E090E002C080E090E08D878D85882304
:1048800051F48D899E8922E030E0FC013183208340
:104890008EEF9FEF01C20E94CD328E878E858823D6
:1048A00009F4EBC11E821D82188A1F868B859C85A8
:1048B000FC018181882F90E08130910509F456C078
:1048C0008230910509F46CC1892B09F0BFC11982AE
:1048D0001A821B821C8231C02091C1033091C20315
:1048E00049815A8163E1649FC001659F900D112445
:1048F000820F931FFC0183819481892B99F0209171
:10490000C1033091C20349815A8163E1649FC001B0
:10491000659F900D1124820F931F21E030E0FC0170
:104920003483238389819A81AB81BC810196A11D47
:10493000B11D89839A83AB83BC838091C30390911B
:10494000C403CC01A0E0B0E029813A814B815C81B5
:10495000281739074A075B070CF4BECF81E090E0C7
:104960000E94631480E40E94911470C119821A821B
:104970001B821C82ACC02091C1033091C2034981CB
:104980005A8163E1649FC001659F900D1124820FDD
:10499000931FFC0183819481029709F08DC02091BF
:1049A000C1033091C20349815A8163E1649FC00110
:1049B000659F900D1124820F931FFC0181899289BC
:1049C000019609F079C02091C1033091C203498159
:1049D0005A8163E1649FC001659F900D1124820F8D
:1049E000931FFC01258136818091190290911A0252
:1049F00028173907F9F42091C1033091C203498186
:104A00005A8163E1649FC001659F900D1124820F5C
:104A1000931FAC014F5E5F4F20911D0230911E022B
:104A200080911B0290911C02B9010E94F9409E8363
:104A30008D8342C089819A81AB81BC811816190689
:104A40001A061B06CCF12091C1033091C2034981A3
:104A50005A8163E1649FC001659F900D1124820F0C
:104A6000931FFC0185819681892B31F52091C1032B
:104A70003091C20349815A8163E1649FC001659FFF
:104A8000900D1124820F931FEFD89E838D83209168
:104A9000C1033091C20349815A8163E1649FC0011F
:104AA000659F900D1124820F931FFC01108A1786B9
:104AB00089819A81988B8F8789819A81AB81BC810A
:104AC0000196A11DB11D89839A83AB83BC8380911C
:104AD000C3039091C403CC01A0E0B0E029813A81E6
:104AE0004B815C81281739074A075B072CF48D81BD
:104AF0009E81892B09F43FCF8D819E81892B09F0FE
:104B0000A2C019821A821B821C8238C02091C10364
:104B10003091C20349815A8163E1649FC001659F5E
:104B2000900D1124820F931FFC01838194810297C1
:104B3000D1F42091C1033091C20349815A8163E1CC
:104B4000649FC001659F900D1124820F931F23E085
:104B500030E0FC013483238382E090E00E94631400
:104B600080E40E94801489819A81AB81BC81019686
:104B7000A11DB11D89839A83AB83BC838091C3033C
:104B80009091C403CC01A0E0B0E029813A814B812F
:104B90005C81281739074A075B070CF4B7CF53C06D
:104BA00019821A821B821C8231C02091C10330916C
:104BB000C20349815A8163E1649FC001659F900DE2
:104BC0001124820F931FFC0183819481029799F431
:104BD0002091C1033091C20349815A8163E1649FEE
:104BE000C001659F900D1124820F931F21E030E0DA
:104BF000FC013483238389819A81AB81BC81019636
:104C0000A11DB11D89839A83AB83BC838091C303AB
:104C10009091C403CC01A0E0B0E029813A814B819E
:104C20005C81281739074A075B070CF4BECF0E9446
:104C3000671C882351F081E090E00E94631480E4B7
:104C40000E94911402C0000001C000000E94DE32E8
:104C50008D819E81892B51F08D899E8922E030E0E3
:104C6000FC01318320838DEF9FEF16C08D899E89D3
:104C700021E030E0FC01318320838E85882351F4CC
:104C80008D899E8922E030E0FC013183208385EF0D
:104C90009FEF02C08F81988566960FB6F894DEBFAD
:104CA0000FBECDBFDF91CF910895CF93DF9300D09A
:104CB00000D0CDB7DEB79A8389837C836B835E8314
:104CC0004D838D819E8128E030E0FC01318320837B
:104CD00080E090E026960FB6F894DEBF0FBECDBF01
:104CE000DF91CF910895CF93DF9300D000D01F9232
:104CF0001F92CDB7DEB79C838B837E836D835887ED
:104D00004F838D819E819A83898389819A8148E02E
:104D100050E060E070E00E94886689819A812FEF00
:104D2000FC01208389819A8121E1FC012183898111
:104D30009A812FEF3FEFFC013383228389819A818F
:104D400020E830E0FC013583248389819A81FC01CD
:104D5000168289819A81FC011782000028960FB67D
:104D6000F894DEBF0FBECDBFDF91CF910895CF93F2
:104D7000DF9300D000D0CDB7DEB79A8389837C83E0
:104D80006B835E834D838D819E8128E030E0FC0142
:104D90003183208380E090E026960FB6F894DEBF42
:104DA0000FBECDBFDF91CF910895CF93DF9300D099
:104DB00000D01F921F92CDB7DEB79C838B837E837A
:104DC0006D8358874F838D819E819A8389838981E2
:104DD0009A8148E050E060E070E00E948866898136
:104DE0009A812FEFFC01208389819A8121E0FC01C7
:104DF000218389819A812FEFFC01228389819A8105
:104E000021E0FC01238389819A812FEFFC01248317
:104E100089819A8124E3FC01258389819A8121E09B
:104E200030E0FC0137832683000028960FB6F89403
:104E3000DEBF0FBECDBFDF91CF910895CF93DF933B
:104E400000D000D000D0CDB7DEB79D838C837F83A8
:104E50006E83598748871A8219821B820E94EA3220
:104E60008B838B81882351F48885998522E030E0FB
:104E7000FC013183208385EF9FEF0DC081E090E03E
:104E80000E9463148885998521E030E0FC0131831C
:104E9000208389819A8129960FB6F894DEBF0FBED0
:104EA000CDBFDF91CF910895CF93DF93CDB7DEB71C
:104EB00065970FB6F894DEBF0FBECDBF998B888B78
:104EC0007B8B6A8B5D8B4C8B1C821B82288939897A
:104ED0008A899B89820F931F9E838D838D819E81FA
:104EE00098878F838F819885FC0182819381CC0183
:104EF000A0E0B0E089879A87AB87BC871E861D86B5
:104F00001F861A8219828091C1039091C20321E009
:104F1000892B09F020E02F878F85882351F48C8915
:104F20009D8922E030E0FC01318320838CEF9FEFEC
:104F3000C9C089859A85AB85BC85181619061A06DD
:104F40001B065CF489859A85AB85BC850097A140DA
:104F5000B1051CF481E090E002C080E090E08F8712
:104F60008F85882351F48C899D8922E030E0FC01F3
:104F7000318320838EEF9FEFA5C089859A8543E119
:104F8000489F9001499F300D1124C9010E94B53CF2
:104F90009E878D878D859E85892B51F48C899D896F
:104FA00022E030E0FC01318320838DEF9FEF8AC047
:104FB00089859A8543E1489F9001499F300D1124CE
:104FC0008D859E85A90160E070E00E9488668D85D0
:104FD0009E859093C2038093C10389859A8590939F
:104FE000C4038093C3031A82198253C029813A8172
:104FF00043E1429FC001439F900D11242D853E85C2
:10500000820F931F2FEF3FEFFC01328B218B298101
:105010003A8143E1429FC001439F900D11242D85A9
:105020003E85820F931FFC01138629813A8143E15B
:10503000429FC001439F900D11242D853E85820F14
:10504000931F21E0FC01248729813A8143E1429F9B
:10505000C001439F900D11242D853E85820F931F23
:1050600021E030E0FC013687258729813A8143E140
:10507000429FC001439F900D11242D853E85820FD4
:10508000931FFC01108A178689819A8101969A8361
:10509000898389819A81092E000CAA0BBB0B298573
:1050A0003A854B855C8582179307A407B5070CF4F6
:1050B0009DCF8C899D8921E030E0FC0131832083E4
:1050C0008B819C8165960FB6F894DEBF0FBECDBF75
:1050D000DF91CF9108950F931F93CF93DF93CDB7B7
:1050E000DEB760970FB6F894DEBF0FBECDBF9C87CA
:1050F0008B877E876D87588B4F871A8219822B8505
:105100003C858D859E85820F931F9C838B838B812D
:105110009C819E838D838D819E81FC018281938100
:1051200098878F838D819E81FC01848189871A866F
:105130008091C1039091C20321E0892B09F420E002
:105140002A878A85882351F48F85988922E030E068
:10515000FC01318320838CEF9FEFC9C08091C30392
:105160009091C40341E02F8138852817390708F052
:1051700040E04A878A85882351F48F85988922E008
:1051800030E0FC01318320838EEF9FEFB0C0898532
:10519000882331F089858D3F18F481E090E002C0CA
:1051A00080E090E08A878A85882351F48F859889EA
:1051B00022E030E0FC01318320838EEF9FEF97C027
:1051C0002091C1033091C2034F81588563E1649FF0
:1051D000C001659F900D1124820F931FFC018081F7
:1051E000918121E0892B09F020E02A878A85882394
:1051F00051F48F85988922E030E0FC0131832083CF
:105200008CEF9FEF74C08985882F90E02DE0289F58
:10521000B001299F700D11242091C1033091C20368
:105220004F815885E3E1E49FC001E59F900D112473
:105230008901080F191FCB010E94B53CF801918329
:1052400080832091C1033091C2034F81588563E16F
:10525000649FC001659F900D1124820F931FFC0174
:1052600080819181892B51F48F85988922E030E0EB
:10527000FC01318320838DEF9FEF39C08985882F12
:1052800090E02DE0289FB001299F700D11242091FE
:10529000C1033091C2034F815885E3E1E49FC0010F
:1052A000E59F900D1124820F931FFC018081918155
:1052B000AB0160E070E00E9488662091C1033091EC
:1052C000C2034F81588563E1649FC001659F900DC3
:1052D0001124820F931F2985FC0122838F859889D1
:1052E00021E030E0FC013183208389819A8160963E
:1052F0000FB6F894DEBF0FBECDBFDF91CF911F91E7
:105300000F9108950F931F93CF93DF93CDB7DEB71F
:1053100061970FB6F894DEBF0FBECDBF9D878C8717
:105320007F876E87598B488B1A8219822C853D8521
:105330008E859F85820F931F9C838B838B819C819D
:105340009E838D838D819E81FC01828193819887CC
:105350008F838D819E81FC01848189878D819E81CF
:10536000FC0185818A871B868091C1039091C203CD
:1053700021E0892B09F420E02B878B85882351F4C9
:105380008889998922E030E0FC01318320838CEF09
:105390009FEF57C18091C3039091C40341E02F81D7
:1053A00038852817390708F040E04B878B8588231C
:1053B00051F48889998922E030E0FC01318320830F
:1053C0008EEF9FEF3EC12091C1033091C2034F8108
:1053D000588563E1649FC001659F900D1124820F81
:1053E000931FFC018081918121E0892B09F420E049
:1053F0002B878B85882351F48889998922E030E0B6
:10540000FC01318320838CEF9FEF1BC12091C103EE
:105410003091C2034F81588563E1649FC001659F4D
:10542000900D1124820F931FFC01928181E0298548
:10543000291708F080E08B878B85882351F48889B1
:10544000998922E030E0FC01318320838EEF9FEFC9
:10545000F8C02091C1033091C2034F81588563E1A8
:10546000649FC001659F900D1124820F931FFC0162
:10547000208131818985482F50E06DE0649FC00113
:10548000659F900D1124820F931FFC0180819181F3
:1054900021E0892B09F020E02B878B85882351F4AC
:1054A0008889998922E030E0FC01318320838CEFE8
:1054B0009FEFC7C081E09A85992309F480E08B872C
:1054C0008B85882351F48889998922E030E0FC019A
:1054D000318320838EEF9FEFB4C08A85282F30E080
:1054E000C901880F991F880F991F880F991FBC0148
:1054F000621B730B2091C1033091C2034F81588509
:10550000E3E1E49FC001E59F900D1124820F931FFA
:10551000FC01208131818985482F50E0EDE0E49F36
:10552000C001E59F900D11248901080F191FCB01BF
:105530000E94B53CF801918380832091C103309192
:10554000C2034F81588563E1649FC001659F900D40
:105550001124820F931FFC01208131818985482FFE
:1055600050E06DE0649FC001659F900D1124820F93
:10557000931FFC0180819181892B51F4888999893D
:1055800022E030E0FC01318320838DEF9FEF59C092
:105590008A85282F30E0C901880F991F880F991F2D
:1055A000880F991FBC01621B730B2091C1033091BE
:1055B000C2034F815885E3E1E49FC001E59F900D50
:1055C0001124820F931FFC01208131818985482F8E
:1055D00050E0EDE0E49FC001E59F900D1124820FA3
:1055E000931FFC0180819181AB0160E070E00E941B
:1055F00088662091C1033091C2034F81588563E1D1
:10560000649FC001659F900D1124820F931FFC01C0
:10561000208131818985482F50E06DE0649FC00171
:10562000659F900D1124820F931F2A85FC01228310
:105630008889998921E030E0FC01318320838981C8
:105640009A8161960FB6F894DEBF0FBECDBFDF9191
:10565000CF911F910F910895CF93DF9300D000D089
:10566000CDB7DEB79A8389837C836B835E834D835A
:105670008D819E8122E030E0FC013183208380EF28
:105680009FEF26960FB6F894DEBF0FBECDBFDF9119
:10569000CF910895CF93DF93CDB7DEB763970FB661
:1056A000F894DEBF0FBECDBF9F878E87798B688B46
:1056B0005B8B4A8B1A8219822E853F85888999894E
:1056C000820F931F9C838B838B819C819E838D8310
:1056D0008D819E81FC018281938198878F838D814A
:1056E0009E81FC01848189878D819E81FC01858159
:1056F0008A878D819E81FC01868197819C878B871B
:1057000081E08D878091C1039091C20321E0892BB4
:1057100009F420E02D878D85882351F48A899B899F
:1057200022E030E0FC01318320838CEF9FEFE0C06A
:105730008091C3039091C40341E02F8138852817DD
:10574000390708F040E04D878D85882351F48A8918
:105750009B8922E030E0FC01318320838EEF9FEFB4
:10576000C7C021E08F819885892B09F020E02D8723
:105770008D85882351F48A899B8922E030E0FC01E1
:105780003183208386EF9FEFB3C08985882319F08A
:105790008985823019F481E090E002C080E090E0D9
:1057A0008D878D85882351F48A899B8922E030E09A
:1057B000FC013183208386EF9FEF9AC081E09A85B8
:1057C000913009F080E08D878D85882351F48A8996
:1057D0009B8922E030E0FC013183208386EF9FEF3C
:1057E00087C08985882321F48B859C85019739F0B2
:1057F0008985882339F08B859C85029718F081E094
:1058000090E002C080E090E08D878D85882351F480
:105810008A899B8922E030E0FC013183208386EF76
:105820009FEF66C08F8198850E942F1C982F81E082
:10583000992309F080E08D878D85882351F48A892A
:105840009B8922E030E0FC013183208388EF9FEFC9
:105850004FC02091C1033091C2034F81588563E14D
:10586000649FC001659F900D1124820F931F2985AD
:10587000FC0123872091C1033091C2034F815885D9
:1058800063E1649FC001659F900D1124820F931FF7
:105890002A85FC0124872091C1033091C2034F81E6
:1058A000588563E1649FC001659F900D1124820FAC
:1058B000931F2B853C85FC01368725872091C103EA
:1058C0003091C2034F81588563E1649FC001659F99
:1058D000900D1124820F931FFC01108A17868A896C
:1058E0009B8921E030E0FC013183208389819A810A
:1058F00063960FB6F894DEBF0FBECDBFDF91CF9198
:105900000895CF93DF9300D000D000D01F921F9254
:10591000CDB7DEB79F838E83798768875B874A8799
:105920001A8219822E813F8188859985820F931F63
:105930009C838B838B819C81FC01918181E09130E0
:1059400009F080E08D838D81882351F48A859B85C1
:1059500022E030E0FC01318320838FEF9FEF0CC009
:105960004A855B85288539858E819F81B90192DEC4
:105970009A83898389819A812B960FB6F894DEBF2A
:105980000FBECDBFDF91CF910895CF93DF931F92CC
:105990001F92CDB7DEB79A83898389819A814DE0C2
:1059A00050E06FE572E00E9471150F900F90DF914B
:1059B000CF910895CF93DF93CDB7DEB71092C80390
:1059C0001092C70346E050E060E070E081EC93E0A5
:1059D0000E94886685EC9CE210D05ED70000DF91C3
:1059E000CF910895CF93DF93CDB7DEB78091C903F0
:1059F0009091CA03DF91CF910895CF93DF931F92C7
:105A00001F92CDB7DEB79A83898389819A8190935B
:105A1000CA038093C90300000F900F90DF91CF91CC
:105A20000895CF93DF9300D000D0CDB7DEB79E832B
:105A30008D831A8219821C821B828091C1039091EE
:105A4000C203892B49F08091C3039091C4032D8137
:105A50003E812817390718F08FEF9FEF4EC0209135
:105A6000C1033091C2034D815E8163E1649FC00137
:105A7000659F900D1124820F931F9C838B838D81D2
:105A80009E810E949C1D882339F08B819C81FC01A2
:105A900087859089892B19F480E090E02EC01A82C6
:105AA000198219C08B819C81FC012081318149813F
:105AB0005A816DE0649FC001659F900D1124820F93
:105AC000931FFC01858196810E945F3D89819A81A7
:105AD00001969A8389838B819C81FC018281882F26
