:10000000F8C0000027C1000025C1000023C1000086
:1000100021C100001FC100001DC100001BC1000064
:1000200019C1000017C1000015C1000013C1000074
:1000300011C100000FC100000DC100000BC1000084
:1000400009C1000007C1000005C1000003C1000094
:1000500001C10000FFC00000FDC000000C94575615
:10006000F9C000000C94E55E0C94155FF3C000002D
:10007000F1C00000EFC00000EDC00000EBC00000C8
:10008000E9C00000E7C00000E5C00000E3C00000D8
:100090000C948C5F0C94BC5FDDC00000DBC00000E2
:1000A000D9C00000D7C00000D5C00000D3C00000F8
:1000B000D1C00000CFC00000CDC00000CBC0000008
:1000C000C9C00000C7C00000C5C000000C94336068
:1000D0000C946360BFC000000C94DA600C940A6159
:1000E000B9C0000000002100240027002A002D00D4
:1000F0003000330001010000040107010A01000083
:100100002200250028002B002E00310034000201BF
:100110000000050108010B01050505050705080894
:100120000808020202020A0A080804040404010181
:100130000101010101010303030303030303040796
:1001400007070C0C0C0C0C0C0C0C0202020206062D
:100150000606060606060B0B0B0B0B0B0B0B010220
:1001600010202008081020401020408002010201C9
:100170000804020101020408102040808040201081
:1001800008040201800402018040201008040201DA
:100190000804020101020408102040800102040842
:1001A0001020408000000A0B02090C0D0E08070306
:1001B000040100000000000000000000000000003A
:1001C000000000000000000000000000000000002F
:1001D00012111000000000000000000000000000EC
:1001E00000000000000000000000805F2760CE607B
:1001F000776111241FBECFEFD1E2DEBFCDBF00E09B
:100200000CBF14E0A0E0B2E0E0E9F4EC00E00BBFCA
:1002100002C007900D92AA3FB107D9F72CE0AAEFD0
:10022000B4E001C01D92A735B207E1F710E0C9EFB5
:10023000D0E000E006C021970109802FFE010E9456
:100240001162C53FD10780E00807A9F70E946453F7
:100250000C944662D5CECF93DF931F921F92CDB7F9
:10026000DEB789836A838A81882329F460E08981E3
:100270000E946A580CC08A81813029F461E089812A
:100280000E946A5804C062E089810E946A58000096
:100290000F900F90DF91CF910895CF93DF931F922E
:1002A0001F92CDB7DEB789836A838A81882329F0BC
:1002B00061E089810E94095A04C060E089810E943E
:1002C000095A00000F900F90DF91CF910895CF93BE
:1002D000DF9300D000D0CDB7DEB79C838B837E83C5
:1002E0006D831A82198289819A8126960FB6F894B5
:1002F000DEBF0FBECDBFDF91CF910895CF93DF93C7
:1003000000D000D01F921F92CDB7DEB79E838D83A1
:1003100078876F831C821B828D819E81892B19F4C3
:100320008FEF9FEFB6C08F819885892B19F48FEFDF
:100330009FEFAFC08091040490910504A091060442
:10034000B09107048E3F9F4FAF4FBF4F81F48F8115
:100350009885FC0180819181A281B38180930404FE
:1003600090930504A0930604B09307040FC08091F6
:10037000040490910504A0910604B09107042F8114
:100380003885F90180839183A283B383809104042B
:1003900090910504A0910604B09107048D819E817F
:1003A000FC0182819381FC0180819181A281B381D2
:1003B0008093E0059093E105A093E205B093E305F7
:1003C0008D819E81FC0182819381FC0184819581D4
:1003D000A681B7818093E4059093E505A093E60597
:1003E000B093E7058D819E81FC0182819381FC01A0
:1003F00080859185A285B3858093E8059093E90572
:10040000A093EA05B093EB058D819E81FC0182816A
:100410009381FC0184859585A685B7858093EC053D
:100420009093ED05A093EE05B093EF051092F005C3
:100430001092F1051092F2051092F3050E94B21786
:100440001A8219821A82198210C089819A81880FB2
:10045000991F86509B4F2DED37E1FC01318320839E
:1004600089819A8101969A83898389819A810297E9
:1004700060F30E94A9129C838B838B819C81892BC2
:1004800031F481E090E09093DF058093DE058B816D
:100490009C8128960FB6F894DEBF0FBECDBFDF91CA
:1004A000CF910895CF93DF93CDB7DEB72C970FB6DA
:1004B000F894DEBF0FBECDBF69877A878B879C8794
:1004C0001A8219821B821C821D821E821F829091B9
:1004D000DC0581E0992309F080E0888782E090E0E4
:1004E0009093DF058093DE0589859A85AB85BC8571
:1004F000892B8A2B8B2B59F48091DC05882339F4C6
:100500008091DD05882319F481E090E002C080E04D
:1005100090E08F8331C06AE070E080E090E00E945C
:1005200026578B819C81AD81BE81805F984DAF4FF6
:10053000BF4F8B839C83AD83BE8389859A85AB85B2
:10054000BC858F3F9F4FAF4FBF4F81F02B813C81C8
:100550004D815E8189859A85AB85BC85821793071D
:10056000A407B50718F481E090E002C080E090E0B5
:100570008F8380E00E9401138091DC05882339F489
:100580008091DD05882319F48F81882321F283E08F
:1005900090E09093DF058093DE058F81882321F022
:1005A0008CE99FEF9A8389838885882311F00E94C4
:1005B000D91889819A812C960FB6F894DEBF0FBEA8
:1005C000CDBFDF91CF910895CF93DF93CDB7DEB745
:1005D00061970FB6F894DEBF0FBECDBF9D878C87A5
:1005E0004E875F87688B798B1A82198281E08B83B3
:1005F0008C859D858F3F910521F018F08FEF9FEF3F
:1006000063C08091DE059091DF05039731F0809102
:10061000DE059091DF05019731F484E090E090933E
:10062000DF058093DE058C859D85029708F58C8516
:100630009D85880F991F86509B4FFC018081918179
:10064000892BB1F00E94931D9D838C838C819D81A9
:10065000029771F48C859D85880F991F86509B4F5A
:10066000FC01208131818C859D85F90119958B8351
:100670008C859D859F838E832C853D858E859F856A
:10068000A889B989A901BC01CD010E948612DC01AB
:10069000CB0188879987AA87BB878B81882371F0D4
:1006A00088859985AA85BB852E813F81AC01BD01D6
:1006B000C9010E94631D9A83898304C08E819F8132
:1006C0000E94D51D89819A8161960FB6F894DEBF8C
:1006D0000FBECDBFDF91CF910895CF93DF931F92CF
:1006E0001F92CDB7DEB71A82198280E00E940113F3
:1006F0009A83898389819A810F900F90DF91CF919E
:100700000895CF93DF931F921F92CDB7DEB71A8261
:10071000198286E090E09093DF058093DE050E94C9
:1007200091139A83898344E050E060E070E08AEF9F
:1007300094E00E943F620E946B181092DF051092B5
:10074000DE0589819A810F900F90DF91CF910895F6
:10075000CF93DF93CDB7DEB78091DD05DF91CF91E9
:100760000895CF93DF93CDB7DEB78091F405DF9185
:10077000CF910895CF93DF9300D01F92CDB7DEB70E
:1007800069837A838B839C8389819A81AB81BC81C5
:100790008093040490930504A0930604B093070487
:1007A00080E090E00F900F900F900F90DF91CF912D
:1007B0000895CF93DF9300D000D01F921F92CDB742
:1007C000DEB76D837E838F8398878D819E81AF8115
:1007D000B885BF7720E030E040E859E5BC01CD01A5
:1007E0000E94B65488230CF056C020E030E040E070
:1007F0005FE36D817E818F8198850E94F05588230B
:10080000BCF020E030E040E05FE36D817E818F81CD
:1008100098850E943F54DC01CB01BC01CD010E94B0
:100820002855DC01CB0189839A83AB83BC833BC011
:1008300020E030E040E05FEB6D817E818F81988524
:100840000E94F055181684F420E030E0A9016D8173
:100850007E818F8198850E94F455DC01CB018983CC
:100860009A83AB83BC831FC020E030E040E05FE3AD
:100870006D817E818F8198850E943E54DC01CB0181
:10088000BC01CD010E94A354DC01CB0189839A8372
:10089000AB83BC8308C08D819E81AF81B88589837D
:1008A0009A83AB83BC8389819A81AB81BC81BC0173
:1008B000CD0128960FB6F894DEBF0FBECDBFDF91F5
:1008C000CF9108958F929F92AF92BF92CF92DF9275
:1008D000EF92FF920F931F93CF93DF93CDB7DEB7C5
:1008E00069970FB6F894DEBF0FBECDBF8FEF9FEFB5
:1008F000DC018093310C9093320CA093330CB093B5
:10090000340C8091A8039091A903A091AA03B091FF
:10091000AB038093CD0B9093CE0BA093CF0BB093F2
:10092000D00B8091210C9091220CA091230CB091BE
:10093000240C8093650B9093660BA093670BB09388
:10094000680B8FEF9FEFDC018093350C9093360C92
:10095000A093370CB093380C8091650B9091660B87
:10096000A091670BB091680B20E030E0A901BC01B9
:10097000CD010E94B654882309F044C08091CD0B6C
:100980009091CE0BA091CF0BB091D00B2091A403EE
:100990003091A5034091A6035091A703BC01CD015E
:1009A0000E94B6548823ACF480E090E0A0E4B0E468
:1009B0008093D10B9093D20BA093D30BB093D40B15
:1009C0001092D50B1092D60B1092D70B1092D80B19
:1009D00031C080E090E0A0EAB0E48093D10B909326
:1009E000D20BA093D30BB093D40B80E090E0A0E89F
:1009F000BFE38093D50B9093D60BA093D70BB09306
:100A0000D80B18C080E090E0A0EAB0E48093D10B4E
:100A10009093D20BA093D30BB093D40B80E090E0D3
:100A2000A0E8BFE38093D50B9093D60BA093D70B90
:100A3000B093D80B8EEF94E08A549F4FFC018081D5
:100A40009181FC0180819181A281B3818093690BA6
:100A500090936A0BA0936B0BB0936C0B8091250C59
:100A60009091260CA091270CB091280C80936D0BCF
:100A700090936E0BA0936F0BB093700B8091650BEE
:100A80009091660BA091670BB091680B2091B40315
:100A90003091B5034091B6035091B703BC01CD012D
:100AA0000E94F05518168CF480916D0B90916E0B8E
:100AB000A0916F0BB091700B8093C50B9093C60BF8
:100AC000A093C70BB093C80B10C08091690B909195
:100AD0006A0BA0916B0BB0916C0B8093C50B90933C
:100AE000C60BA093C70BB093C80B8FEF9FEFDC0131
:100AF00080932D0C90932E0CA0932F0CB093300C60
:100B00008091690B90916A0BA0916B0BB0916C0B6B
:100B10002091C50B3091C60B4091C70B5091C80B6B
:100B2000BC01CD010E943E54DC01CB018093C90B76
:100B30009093CA0BA093CB0BB093CC0B8091C90BB5
:100B40009091CA0BA091CB0BB091CC0B2091B80324
:100B50003091B9034091BA035091BB03BC01CD0160
:100B60000E94B6548823A4F48091650B9091660B83
:100B7000A091670BB091680B20E030E0A901BC01A7
:100B8000CD010E94B654882319F01A8A198A2EC002
:100B90008091C90B9091CA0BA091CB0BB091CC0B5B
:100BA0002091B8033091B9034091BA035091BB032F
:100BB000BC01CD010E94F0551816A4F48091650B7C
:100BC0009091660BA091670BB091680B20E030E02C
:100BD000A901BC01CD010E94B654882319F081E01F
:100BE00090E002C080E090E09A8B898B8FEF9FEFBE
:100BF000DC018093290C90932A0CA0932B0CB093CA
:100C00002C0CC090D50BD090D60BE090D70BF09069
:100C1000D80B89899A89092E000CAA0BBB0BBC0141
:100C2000CD010E94ED54DC01CB019C01AD01C70157
:100C3000B6010E943F54DC01CB017C018D01809103
:100C4000BC039091BD03A091BE03B091BF039C0172
:100C5000AD01C801B7010E943F54DC01CB01BC01CA
:100C6000CD010E94BA54DC01CB0182309105B9F06C
:100C70008330910509F1019709F052C08091D10BA1
:100C80009091D20BA091D30BB091D40B8093710BA8
:100C90009093720BA093730BB093740B51C080E0D0
:100CA00090E0A0EAB0E48093710B9093720BA09354
:100CB000730BB093740B44C089899A89892B19F1FD
:100CC0008091A8039091A903A091AA03B091AB03CE
:100CD0002091C0033091C1034091C2035091C303DE
:100CE000BC01CD010E94F05518166CF480E090E034
:100CF000A0E0B0E48093710B9093720BA093730B00
:100D0000B093740B1DC080E090E0A0EAB0E4809343
:100D1000710B9093720BA093730BB093740B10C074
:100D20008091C4039091C503A091C603B091C703FD
:100D30008093710B9093720BA093730BB093740B11
:100D400000008091390C882F90E0805C9F4F880FC5
:100D5000991F880F991F80509E4FFC0180819181BF
:100D6000A281B3818093750B9093760BA093770B40
:100D7000B093780B80913A0C882F90E08C5B9F4F5A
:100D8000880F991F880F991F80509E4FFC0180810A
:100D90009181A281B3818093790B90937A0BA09378
:100DA0007B0BB0937C0B80913B0C882F90E0885B91
:100DB0009F4F880F991F880F991F80509E4FFC01ED
:100DC00080819181A281B38180937D0B90937E0B72
:100DD000A0937F0BB093800B80913C0C882F90E008
:100DE000845B9F4F880F991F880F991F80509E4FDB
:100DF000FC0180819181A281B3818093810B9093CA
:100E0000820BA093830BB093840B80913D0C882FB1
:100E100090E0805B9F4F880F991F880F991F80502B
:100E20009E4FFC0180819181A281B3818093850BCB
:100E30009093860BA093870BB093880B80913E0C08
:100E4000882F90E08C5A9F4F880F991F880F991F09
:100E500080509E4FFC0180819181A281B38180935B
:100E6000890B90938A0BA0938B0BB0938C0B809182
:100E70003F0C882F90E0885A9F4F880F991F880F4A
:100E8000991F80509E4FFC0180819181A281B38186
:100E900080938D0B90938E0BA0938F0BB093900B40
:100EA0008091400C882F90E0845A9F4F880F991FA3
:100EB000880F991F80509E4FFC0180819181A281F3
:100EC000B3818093910B9093920BA093930BB0936B
:100ED000940B8091410C882F90E0880F991F880F08
:100EE000991F80509E4FFC0180819181A281B38126
:100EF0008093950B9093960BA093970BB093980BC0
:100F00008091420C882F90E00896880F991F880FD7
:100F1000991F80509E4FFC0180819181A281B381F5
:100F20008093990B90939A0BA0939B0BB0939C0B7F
:100F30008091430C882F90E04096880F991F880F6E
:100F4000991F80509E4FFC0180819181A281B381C5
:100F500080939D0B90939E0BA0939F0BB093A00B3F
:100F60008091440C882F90E04896880F991F880F35
:100F7000991F80509E4FFC0180819181A281B38195
:100F80008093A10B9093A20BA093A30BB093A40BFF
:100F90008091450C882F90E08096880F991F880FCC
:100FA000991F80509E4FFC0180819181A281B38165
:100FB0008093A50B9093A60BA093A70BB093A80BBF
:100FC0008091460C882F90E08896880F991F880F93
:100FD000991F80509E4FFC0180819181A281B38135
:100FE0008093A90B9093AA0BA093AB0BB093AC0B7F
:100FF0008091470C882F90E0C096880F991F880F2A
:10100000991F80509E4FFC0180819181A281B38104
:101010008093AD0B9093AE0BA093AF0BB093B00B3E
:101020008091480C882F90E0C896880F991F880FF0
:10103000991F80509E4FFC0180819181A281B381D4
:101040008093B10B9093B20BA093B30BB093B40BFE
:101050008091800390918103A0918203B0918303DA
:101060008093B50B9093B60BA093B70BB093B80BCE
:101070008091840390918503A0918603B0918703AA
:101080008093B90B9093BA0BA093BB0BB093BC0B9E
:101090008091880390918903A0918A03B0918B037A
:1010A0008093BD0B9093BE0BA093BF0BB093C00B6E
:1010B00080918C0390918D03A0918E03B0918F034A
:1010C0008093C10B9093C20BA093C30BB093C40B3E
:1010D0008091710B9091720BA091730BB091740B76
:1010E000BC01CD010E94BA54DC01CB0182309105D4
:1010F00009F43FC0833091051CF4019749F0CCC03E
:101100008330910509F466C0049709F494C0C4C003
:101110008091750B9091760BA091770BB091780B25
:1011200089839A83AB83BC838091790B90917A0BEE
:10113000A0917B0BB0917C0B8D839E83AF83B8878E
:1011400080917D0B90917E0BA0917F0BB091800BD5
:1011500089879A87AB87BC878091810B9091820B9E
:10116000A091830BB091840B8D879E87AF87B88B3E
:10117000C3C08091850B9091860BA091870BB09195
:10118000880B89839A83AB83BC838091890B909170
:101190008A0BA0918B0BB0918C0B8D839E83AF83B8
:1011A000B88780918D0B90918E0BA0918F0BB09191
:1011B000900B89879A87AB87BC878091910B909120
:1011C000920BA091930BB091940B8D879E87AF8764
:1011D000B88B92C08091950B9091960BA091970B34
:1011E000B091980B89839A83AB83BC838091990BD0
:1011F00090919A0BA0919B0BB0919C0B8D839E8339
:10120000AF83B88780919D0B90919E0BA0919F0B0F
:10121000B091A00B89879A87AB87BC878091A10B7F
:101220009091A20BA091A30BB091A40B8D879E87E8
:10123000AF87B88B61C08091A50B9091A60BA09150
:10124000A70BB091A80B89839A83AB83BC83809151
:10125000A90B9091AA0BA091AB0BB091AC0B8D8315
:101260009E83AF83B8878091AD0B9091AE0BA09118
:10127000AF0BB091B00B89879A87AB87BC87809101
:10128000B10B9091B20BA091B30BB091B40B8D87C1
:101290009E87AF87B88B30C08091B50B9091B60B0D
:1012A000A091B70BB091B80B89839A83AB83BC83B1
:1012B0008091B90B9091BA0BA091BB0BB091BC0B74
:1012C0008D839E83AF83B8878091BD0B9091BE0BB9
:1012D000A091BF0BB091C00B89879A87AB87BC8761
:1012E0008091C10B9091C20BA091C30BB091C40B24
:1012F0008D879E87AF87B88B000089819A81AB81EB
:10130000BC81BC01CD0155DADC01CB0189839A8314
:10131000AB83BC8320E030E040E853E469817A810C
:101320008B819C810E94B6548823BCF420E030E07D
:10133000A90169817A818B819C810E94F055882363
:1013400054F069817A818B819C810E94BF54DC01B9
:10135000CB018B8B04C01B8A02C08FEF8B8B6B89F8
:1013600082E00E944D018D819E81AF81B885BC01D4
:10137000CD011FDADC01CB0189839A83AB83BC8367
:1013800020E030E040E853E469817A818B819C81E0
:101390000E94B6548823BCF420E030E0A9016981A2
:1013A0007A818B819C810E94F055882354F0698159
:1013B0007A818B819C810E94BF54DC01CB018B8B95
:1013C00004C01B8A02C08FEF8B8B6B8983E00E9465
:1013D0004D0189859A85AB85BC85BC01CD01E9D9D4
:1013E000DC01CB0189839A83AB83BC8320E030E0AE
:1013F00040E853E469817A818B819C810E94B654D4
:101400008823BCF420E030E0A90169817A818B81D6
:101410009C810E94F055882354F069817A818B81E8
:101420009C810E94BF54DC01CB018B8B04C01B8AC2
:1014300002C08FEF8B8B6B8984E00E944D018D85FC
:101440009E85AF85B889BC01CD01B3D9DC01CB0144
:1014500089839A83AB83BC8320E030E040E853E487
:1014600069817A818B819C810E94B6548823BCF467
:1014700020E030E0A90169817A818B819C810E9402
:10148000F055882354F069817A818B819C810E9478
:10149000BF54DC01CB018B8B04C01B8A02C08FEFD1
:1014A0008B8B6B8985E00E944D0190914C0C809153
:1014B000DC03890F8093D90B9091D90B8091900315
:1014C000891728F48091DD038093DA0B04C08091A2
:1014D000D90B8093DA0B90914B0C8091DE03890F2E
:1014E0008093DB0B9091DB0B80919103891728F49B
:1014F0008091DF038093DC0B04C08091DB0B809331
:10150000DC0B90914A0C8091E003890F8093DD0BF6
:101510009091DD0B80919203891728F48091E1036B
:101520008093DE0B04C08091DD0B8093DE0B9091E5
:10153000490C8091E203890F8093DF0B9091DF0BC0
:1015400080919303891728F48091E3038093E00B43
:1015500004C08091DF0B8093E00B9091480C809148
:10156000E403890F8093E10B9091E10B8091940348
:10157000891728F48091E5038093E20B04C08091E1
:10158000E10B8093E20B9091470C8091E603890F69
:101590008093E30B9091E30B80919503891728F4D6
:1015A0008091E7038093E40B04C08091E30B809368
:1015B000E40B9091460C8091E803890F8093E50B32
:1015C0009091E50B80919603891728F48091E903A7
:1015D0008093E60B04C08091E50B8093E60B90911D
:1015E000450C8091EA03890F8093E70B9091E70BFC
:1015F00080919703891728F48091EB038093E80B7F
:1016000004C08091E70B8093E80B9091440C80918B
:10161000EC03890F8093E90B9091E90B809198037B
:10162000891728F48091ED038093EA0B04C0809120
:10163000E90B8093EA0B9091430C8091EE03890FA4
:101640008093EB0B9091EB0B80919903891728F411
:101650008091EF038093EC0B04C08091EB0B80939F
:10166000EC0B9091420C8091F003890F8093ED0B6D
:101670009091ED0B80919A03891728F48091F103E2
:101680008093EE0B04C08091ED0B8093EE0B909154
:10169000410C8091F203890F8093EF0B9091EF0B37
:1016A00080919B03891728F48091F3038093F00BBA
:1016B00004C08091EF0B8093F00B9091400C8091CF
:1016C000F403890F8093F10B9091F10B80919C03AF
:1016D000891728F48091F5038093F20B04C0809160
:1016E000F10B8093F20B90913F0C8091F603890FE0
:1016F0008093F30B9091F30B80919D03891728F44D
:101700008091F7038093F40B04C08091F30B8093D6
:10171000F40B90913E0C8091F803890F8093F50BA8
:101720009091F50B80919E03891728F48091F9031D
:101730008093F60B04C08091F50B8093F60B90918B
:101740003D0C8091FA03890F8093F70B9091F70B72
:1017500080919F03891728F48091FB038093F80BF5
:1017600004C08091F70B8093F80B90913C0C809112
:10177000FC03890F8093F90B9091F90B8091A003E2
:10178000891728F48091FD038093FA0B04C080919F
:10179000F90B8093FA0B90913B0C8091FE03890F1B
:1017A0008093FB0B9091FB0B8091A103891728F488
:1017B0008091FF038093FC0B04C08091FB0B80930E
:1017C000FC0B90913A0C80910004890F8093FD0BE3
:1017D0009091FD0B8091A203891728F48091010458
:1017E0008093FE0B04C08091FD0B8093FE0B9091C3
:1017F000390C80910204890F8093FF0B9091FF0BAD
:101800008091A303891728F4809103048093000C2E
:1018100004C08091FF0B8093000C8091D50B9091B8
:10182000D60BA091D70BB091D80B8093210C90933D
:10183000220CA093230CB093240C8091C50B9091A3
:10184000C60BA091C70BB091C80B8093250C909349
:10185000260CA093270CB093280C8091000C809349
:10186000390C8091FE0B80933A0C8091FC0B809395
:101870003B0C8091FA0B80933C0C8091F80B809389
:101880003D0C8091F60B80933E0C8091F40B80937D
:101890003F0C8091F20B8093400C8091F00B809371
:1018A000410C8091EE0B8093420C8091EC0B809365
:1018B000430C8091EA0B8093440C8091E80B809359
:1018C000450C8091E60B8093460C8091E40B80934D
:1018D000470C8091E20B8093480C8091E00B809341
:1018E000490C8091DE0B80934A0C8091DC0B809335
:1018F0004B0C8091DA0B80934C0C1D8A1C8A8EEF66
:1019000094E089559F4FFC0180819181A281B38130
:10191000BC01CD010E94EB546B017C018EEF94E081
:1019200085559F4FFC0180819181A281B381BC01CB
:10193000CD010E94EB54DC01CB0120E030E040E817
:101940005FE4BC01CD010E94F455DC01CB019C0198
:10195000AD01C701B6010E943F54DC01CB0120E07C
:1019600030E0A901BC01CD010E943F54DC01CB0154
:10197000BC01CD010E94BF54DC01CB018E8B9F8B3B
:10198000A88FB98F8E899F89A88DB98DAC01BD01B3
:1019900081E090E00E94E4029D8B8C8B2EEF34E07E
:1019A000C90185569F4FFC0180819181A281B3813D
:1019B0000196A11DB11DA90145565F4FFA01808313
:1019C0009183A283B383C90185569F4FFC01808117
:1019D0009181A281B381892B8A2B8B2BA1F42EEFCD
:1019E00034E0C90181569F4FFC0180819181A28121
:1019F000B3810196A11DB11D21563F4FF90180838E
:101A00009183A283B3838EEF94E085569F4FFC01B0
:101A100080819181A281B381BC01CD010E94EB54F0
:101A20007B018C018EEF94E08D559F4FFC018081EE
:101A30009181A281B3819C01AD01C801B7010E94CF
:101A4000F455DC01CB016C017D018EEF94E08156F1
:101A50009F4FFC0180819181A281B381BC01CD01A6
:101A60000E94EB544B015C018EEF94E08D559F4F2B
:101A7000FC0180819181A281B3819C01AD01C501EE
:101A8000B4010E94F455DC01CB0120E030E040E8D5
:101A90005FE4BC01CD010E94F455DC01CB019C0147
:101AA000AD018EEF94E08A549F4FFC0100811181BB
:101AB000C701B6010E943F54DC01CB01F8018083CD
:101AC0009183A283B3832EEF34E0C90189559F4FE0
:101AD000FC0180819181A281B3810196A11DB11D7C
:101AE00029553F4FF90180839183A283B3838EEF01
:101AF00094E089559F4FFC0180819181A281B3813F
:101B0000892B8A2B8B2BA1F42EEF34E0C90185554C
:101B10009F4FFC0180819181A281B3810196A11D1B
:101B2000B11D25553F4FF90180839183A283B38373
:101B3000000069960FB6F894DEBF0FBECDBFDF91EF
:101B4000CF911F910F91FF90EF90DF90CF90BF90BA
:101B5000AF909F908F900895CF93DF93CDB7DEB76E
:101B60008EEF94E040EC50E060E070E00E943F6255
:101B70002EEF34E08EEF94E02D543F4FFC0137837D
:101B800026832EEF34E08EEF94E02A543F4F805CA2
:101B90009F4FFC01318320832EEF34E08EEF94E0E1
:101BA0002D553F4FFC01358B248B2EEF34E08EEF0B
:101BB00094E086599F4FFC01318320838EEF94E09F
:101BC0002EEF34E0FC01358324838EEF94E0FC019A
:101BD0008681978121E030E0FC01318320838EEF04
:101BE00094E08F579F4FFC0110828EEF94E088574E
:101BF0009F4FFC0110828EEF94E021E334E0FC0162
:101C0000338722872EEF34E08EEF94E028543F4F45
:101C10008A549F4FFC01318320838EEF94E09C0116
:101C200021553F4F80E090E0A0E8BFEBF9018083B1
:101C30009183A283B3838EEF94E09C012D553F4F97
:101C40008AE097EDA3E2BCE3F90180839183A2834C
:101C5000B3838EEF94E09C0127573F4F8EE89AE7BD
:101C6000A9E8BCE3F90180839183A283B3838EEF5B
:101C700094E09C0123573F4F83EE9DE4AEE7B0EB29
:101C8000F90180839183A283B3838EEF94E09C015A
:101C90002F563F4F8BE799EEA6E6BEEDF901808304
:101CA0009183A283B3838EEF94E09C012B563F4F28
:101CB00082EC9EEEA2E4BAEDF90180839183A283C7
:101CC000B3838EEF94E02EEB35E0FC013383228367
:101CD0008AEC95E09093BF058093BE0585E494E07F
:101CE0009093CB058093CA0585E494E09093CD054D
:101CF0008093CC0585E494E09093CF058093CE0546
:101D000085E494E09093D1058093D00585E494E038
:101D10009093D3058093D20585E494E09093D50504
:101D20008093D40585E494E09093D7058093D605FD
:101D300085E494E09093D9058093D80585E494E0F8
:101D40009093DB058093DA052EEF34E08EEF94E07C
:101D5000FC018281938127563F4FFC013583248308
:101D60002EEF34E08EEF94E0FC01828193812757BF
:101D70003F4FFC01338322838EEF94E0FC012281EC
:101D800033818FEF9FEFDC01F90180879187A28774
:101D9000B3874CE950E060E070E085E69BE00E948C
:101DA0003F6244E550E060E070E081E09CE00E942A
:101DB0003F621092190C81E08093500C81E090E01A
:101DC000A0E0B0E080931A0C90931B0CA0931C0C25
:101DD000B0931D0C61E082E00E942B0181E08093B2
:101DE0001E0C1092110C81E080934F0C81E090E06A
:101DF000A0E0B0E08093120C9093130CA093140C0D
:101E0000B093150C61E083E00E942B0181E0809388
:101E1000160C1092090C81E080934E0C81E090E04A
:101E2000A0E0B0E080930A0C90930B0CA0930C0CF4
:101E3000B0930D0C61E084E00E942B0181E080935F
:101E40000E0C1092010C81E080934D0C81E090E02B
:101E5000A0E0B0E08093020C9093030CA093040CDC
:101E6000B093050C61E085E00E942B0181E0809336
:101E7000060C8091AC039091AD03A091AE03B0919C
:101E8000AF038093210C9093220CA093230CB0936A
:101E9000240C8091B0039091B103A091B203B09152
:101EA000B3038093250C9093260CA093270CB0933A
:101EB000280C8091C8038093390C8091C9038093CA
:101EC0003A0C8091CA0380933B0C8091CB038093A2
:101ED0003C0C8091CC0380933D0C8091CD0380938A
:101EE0003E0C8091CE0380933F0C8091CF03809372
:101EF000400C8091D0038093410C8091D10380935A
:101F0000420C8091D2038093430C8091D303809341
:101F1000440C8091D4038093450C8091D503809329
:101F2000460C8091D6038093470C8091D703809311
:101F3000480C8091D8038093490C8091D9038093F9
:101F40004A0C8091DA0380934B0C8091DB038093E1
:101F50004C0C8FEF9FEFDC018093310C9093320C8F
:101F6000A093330CB093340C8FEF9FEFDC01809380
:101F7000350C9093360CA093370CB093380C8FEF40
:101F80009FEFDC0180932D0C90932E0CA0932F0CCF
:101F9000B093300C8FEF9FEFDC018093290C90936E
:101FA0002A0CA0932B0CB0932C0C0000DF91CF9146
:101FB0000895CF93DF93CDB7DEB78091190C8823B6
:101FC00019F481E08093190C8091110C882319F485
:101FD00081E08093110C8091090C882319F481E031
:101FE0008093090C8091010C882319F481E080937F
:101FF000010C0000DF91CF9108950F931F93CF93B1
:10200000DF9300D000D000D01F92CDB7DEB79A8307
:1020100089834B835C836D837E830F831887298735
:102020003A8729813A818B819C81AD81BE81F901FA
:1020300080839183A283B38389819A819C012C5FE1
:102040003F4F8F819885A985BA85F9018083918357
:10205000A283B38300002A960FB6F894DEBF0FBEAA
:10206000CDBFDF91CF911F910F910895EF92FF9215
:102070000F931F93CF93DF93CDB7DEB76A970FB659
:10208000F894DEBF0FBECDBF6D8B7E8B8F8B988F8C
:102090005A8F498F19821A821B821C82F894898D6B
:1020A0009A8D019709F00BC18091090690910A065B
:1020B000A0910B06B0910C062D893E894F89588D51
:1020C000281739074A075B07C8F0809109069091E5
:1020D0000A06A0910B06B0910C062D893E894F8906
:1020E000588D79018A01E81AF90A0A0B1B0BD801ED
:1020F000C7018D839E83AF83B88718C0809109067E
:1021000090910A06A0910B06B0910C062D893E898C
:102110004F89588D79018A01E81AF90A0A0B1B0BBD
:10212000D801C7018D839E83AF83B88780910D0648
:1021300090910E06A0910F06B09110062D813E8160
:102140004F815885820F931FA41FB51F898B9A8BCF
:10215000AB8BBC8B80910D0690910E06A0910F0663
:10216000B091100629893A894B895C89281739076B
:102170004A075B0798F48091110690911206A0918E
:102180001306B09114060196A11DB11D809311068E
:1021900090931206A0931306B093140689899A8926
:1021A000AB89BC8980930D0690930E06A0930F0611
:1021B000B09310062091110630911206409113063B
:1021C0005091140680910D0690910E06A0910F0675
:1021D000B091100689019A01AC01BD0181E096E041
:1021E0000CDF8D899E89AF89B88D80930906909305
:1021F0000A06A0930B06B0930C062D813E814F81F9
:10220000588580E197E2DC010E9419629B01AC01D4
:102210008091150690911606A0911706B0911806A8
:10222000820F931FA41FB51F809315069093160667
:10223000A0931706B0931806809115069091160684
:10224000A0911706B091180689839A83AB83BC834B
:102250008091040490910504A0910604B0910704B4
:102260008F3F9F4FAF4FBF4F09F43CC18091040493
:1022700090910504A0910604B09107048E3F9F4FF2
:10228000AF4FBF4F09F42EC120910D0630910E06BD
:1022900040910F065091100680910404909105041E
:1022A000A0910604B091070461E0281739074A0796
:1022B0005B0708F460E0862F8093F40513C119864C
:1022C0001A861B861C861D861E861F86188A80918C
:1022D000080490910904A0910A04B0910B048F3F67
:1022E0009F4FAF4FBF4FE1F08091080490910904D8
:1022F000A0910A04B0910B049C01AD012F5F3F4FE8
:102300004F4F5F4F8D899E89AF89B88DBC01CD013C
:102310000E94EF61DC01CB018D8B9E8BAF8BB88F60
:102320008091090690910A06A0910B06B0910C06C7
:102330002D893E894F89588D281739074A075B0731
:1023400008F447C08091090690910A06A0910B06F7
:10235000B0910C062D893E894F89588D79018A01EB
:10236000E81AF90A0A0B1B0BD801C70189879A875B
:10237000AB87BC872091090630910A0640910B0675
:1023800050910C068D899E89AF89B88D79018A019B
:10239000E81AF90A0A0B1B0BD801C7018D879E8723
:1023A000AF87B88B2D853E854F85588989859A855D
:1023B000AB85BC8582179307A407B50728F019865B
:1023C0001A861B861C864BC01D861E861F86188A91
:1023D00046C08091090690910A06A0910B06B09123
:1023E0000C062D893E894F89588D79018A01E81A9A
:1023F000F90A0A0B1B0BD801C70189879A87AB879B
:10240000BC872091090630910A0640910B06509135
:102410000C068D899E89AF89B88D79018A01E81AE9
:10242000F90A0A0B1B0BD801C7018D879E87AF875E
:10243000B88B2D853E854F85588989859A85AB85D2
:10244000BC8582179307A407B50728F019861A865A
:102450001B861C8604C01D861E861F86188A8985D9
:102460009A85AB85BC85892B8A2B8B2BE1F029853E
:102470003A854B855C8580E197E2DC010E94196218
:102480009B01AC018091150690911606A09117064C
:10249000B0911806820F931FA41FB51F89839A83DA
:1024A000AB83BC831FC0E0901506F0901606009128
:1024B0001706109118062D853E854F85588980E1B5
:1024C00097E2DC010E941962DC01CB01A8019701AF
:1024D000281B390B4A0B5B0BDA01C90189839A83EC
:1024E000AB83BC83789489819A81AB81BC81BC0128
:1024F000CD016A960FB6F894DEBF0FBECDBFDF9157
:10250000CF911F910F91FF90EF900895CF93DF939C
:1025100000D000D0CDB7DEB769837A838B839C83EC
:102520005E834D832D813E8189819A81AB81BC81FF
:10253000A901BC01CD019ADDDC01CB01BC01CD01BB
:1025400026960FB6F894DEBF0FBECDBFDF91CF91B8
:102550000895CF93DF9300D000D0CDB7DEB71C82B3
:102560001B821E821D821A8219821092F50510921A
:10257000F6051092F7051092F8051092F9051092E1
:10258000FA051092FB051092FC051092FD051092C1
:10259000FE051092FF05109200069E012B5F3F4F33
:1025A000CE010396B9010E941E502D813E818B8180
:1025B0009C81B9010E94943D9A83898389819A8183
:1025C000892B19F089819A8113C09E012B5F3F4F9F
:1025D000CE010396B9010E9442502D813E818B812C
:1025E0009C81B9010E94371C9A83898389819A81D1
:1025F00026960FB6F894DEBF0FBECDBFDF91CF9108
:102600000895CF93DF9300D01F921F92CDB7DEB70E
:102610008D831A8219821B8260E070E0CB010E94D8
:1026200026571C820E945E3F9A83898389819A8102
:10263000892B39F089819A81029619F081E08B8388
:102640000DC08C81882321F489819A81029619F02A
:1026500081E090E002C080E090E08C838B81882351
:10266000E1F40E946A1C9A83898389819A81892B6B
:1026700039F089819A81029619F081E08B830DC02F
:102680008C81882321F489819A81029619F081E056
:1026900090E002C080E090E08C838B818823E1F49D
:1026A0000E94E93E9A83898389819A81892B39F036
:1026B00089819A81029619F081E08B830DC08C810B
:1026C000882321F489819A81029619F081E090E0B3
:1026D00002C080E090E08C838D81882391F060E0DF
:1026E00070E0CB010E9426578B81882319F48C81DE
:1026F000882319F481E090E002C080E090E08B83B1
:1027000002C081E08B838B81882309F48ACF898181
:102710009A810F900F900F900F900F90DF91CF91B3
:102720000895CF93DF9300D000D01F921F92CDB7B2
:10273000DEB718861F828091F405882329F060E0B7
:1027400070E0CB010E94B61D0E94931D9E838D8375
:1027500019821A821B821C8218C06AE070E080E035
:1027600090E00E94265789819A81AB81BC81805F6D
:10277000984DAF4FBF4F89839A83AB83BC8381E071
:1027800040DF0E94931D9E838D8389819A81AB8156
:10279000BC8181159748A349B34020F48D819E8167
:1027A000892BD9F60E949E1D98878F830E94F9403D
:1027B00098878F831092DC051092DD051092E0055A
:1027C0001092E1051092E2051092E3051092E405E3
:1027D0001092E5051092E6051092E7051092E805C3
:1027E0001092E9051092EA051092EB051092EC05A3
:1027F0001092ED051092EE051092EF051092F00583
:102800001092F1051092F2051092F3058EEF9FEFF2
:10281000AFEFBFEF8093040490930504A0930604E8
:10282000B09307041092F40548E050E060E070E0D7
:1028300081E096E00E943F621092090610920A061B
:1028400010920B0610920C0610920D0610920E06B6
:1028500010920F0610921006109211061092120696
:102860001092130610921406109215061092160676
:1028700010921706109218068F81988528960FB629
:10288000F894DEBF0FBECDBFDF91CF910895CF93F7
:10289000DF9300D000D01F921F92CDB7DEB780919A
:1028A0001B0690911C06A0911D06B0911E069A83EE
:1028B000898389819A81892B09F431C180911F060E
:1028C000882369F480911B0690911C06A0911D0637
:1028D000B0911E06892B8A2B8B2B09F420C1809185
:1028E000330690913406029709F019C180913D0694
:1028F000882309F014C189819A81FC01808191812A
:10290000A281B3818B839C83AD83BE838091390682
:10291000882309F4F0C080912C0690912D06892B14
:1029200031F080912C0690912D06029719F481E0E8
:1029300090E002C080E090E08F8380912C0690911F
:102940002D06019731F080912C0690912D0602976B
:1029500019F481E090E002C080E090E088878F81E8
:10296000882309F462C08091200690912106A091ED
:102970002206B09123069C01AD016B817C818D8183
:102980009E810E94F0558823B4F080913506909185
:102990003606A0913706B091380620912006309176
:1029A00021064091220650912306BC01CD010E94D0
:1029B000B654882344F18091200690912106A0917D
:1029C0002206B09123069C01AD016B817C818D8133
:1029D0009E810E94F055181644F58091350690911D
:1029E0003606A0913706B091380620912006309126
:1029F00021064091220650912306BC01CD010E9480
:102A0000B654882391F48091280690912906A091CC
:102A10002A06B0912B06892B8A2B8B2B19F481E087
:102A200080933C0681E080933D068885882309F4E5
:102A300062C08091200690912106A0912206B0915B
:102A400023069C01AD016B817C818D819E810E945A
:102A5000B6548823B4F48091350690913606A0913F
:102A60003706B0913806209120063091210640911A
:102A7000220650912306BC01CD010E94F055882307
:102A800044F58091200690912106A0912206B091F4
:102A900023069C01AD016B817C818D819E810E940A
:102AA000B654882341F58091350690913606A09161
:102AB0003706B091380620912006309121064091CA
:102AC000220650912306BC01CD010E94F055181634
:102AD00094F48091280690912906A0912A06B0913D
:102AE0002B06892B8A2B8B2B19F481E080933C06D3
:102AF00081E080933D0690913D0681E0992309F0A5
:102B000080E0809339068B819C81AD81BE8180936A
:102B1000350690933606A0933706B093380600002A
:102B200028960FB6F894DEBF0FBECDBFDF91CF91D0
:102B30000895CF93DF931F92CDB7DEB719828091AE
:102B4000330690913406892BC9F410922E06109208
:102B50003D0680911004882371F182E090E090930B
:102B60003406809333061092100480912F069091C2
:102B70003006892B01F581E089831DC01092100475
:102B800080912E06882349F010923C06109234065C
:102B90001092330610922E060EC080912F0690914F
:102BA0003006892B19F481E0898305C080913D06A8
:102BB000898310923D0680913306909134068230CD
:102BC0009105F9F08330910530F4009761F0019799
:102BD00009F44CC1AEC18330910509F4EEC00497ED
:102BE00009F46AC0A6C180911004882309F4ACC11D
:102BF00082E090E0909334068093330610921004A4
:102C0000A3C18981882309F4A1C1809128069091EC
:102C10002906A0912A06B0912B06181619061A0645
:102C20001B06ECF480912F06909130060197B9F4C1
:102C30008091280690912906A0912A06B0912B0632
:102C400080933E0690933F06A0934006B0934106C2
:102C500083E090E0909334068093330677C18091AF
:102C60000C0490910D04A0910E04B0910F04892BD7
:102C70008A2B8B2BD1F081E080933C0680910C0451
:102C800090910D04A0910E04B0910F0480933E0624
:102C900090933F06A0934006B093410684E090E0F5
:102CA000909334068093330651C110923C061092E3
:102CB0003406109233064AC180913E0690913F0639
:102CC000A0914006B0914106892B8A2B8B2B99F05D
:102CD00080913E0690913F06A0914006B09141063A
:102CE0000197A109B10980933E0690933F06A093F6
:102CF0004006B093410680913E0690913F06A09118
:102D00004006B0914106892B8A2B8B2B09F020C1FC
:102D10008091310690913206019739F410923C0669
:102D2000109234061092330613C1809124069091BC
:102D30002506A0912606B0912706892B8A2B8B2B7E
:102D4000C9F010923C068091240690912506A0912E
:102D50002606B091270680933E0690933F06A093E7
:102D60004006B093410681E090E090933406809352
:102D70003306EEC089818823B9F080910C049091CC
:102D80000D04A0910E04B0910F0480933E06909321
:102D90003F06A0934006B093410684E090E09093F4
:102DA000340680933306D4C010923C0682E090E053
:102DB0009093340680933306CBC080913E06909169
:102DC0003F06A0914006B0914106892B8A2B8B2BA0
:102DD00099F080913E0690913F06A0914006B091F7
:102DE00041060197A109B10980933E0690933F06E1
:102DF000A0934006B093410680913E0690913F0615
:102E0000A0914006B0914106892B8A2B8B2B09F0AB
:102E1000A1C080910C0490910D04A0910E04B0917A
:102E20000F04892B8A2B8B2BD1F081E080933C06F9
:102E300080910C0490910D04A0910E04B0910F04A8
:102E400080933E0690933F06A0934006B0934106C0
:102E500084E090E090933406809333067BC0109218
:102E60003C06109234061092330674C080913E06E0
:102E700090913F06A0914006B0914106892B8A2B84
:102E80008B2B99F080913E0690913F06A0914006D1
:102E9000B09141060197A109B10980933E06909334
:102EA0003F06A0934006B093410680913E06909164
:102EB0003F06A0914006B0914106892B8A2B8B2BAF
:102EC00009F04AC08981882369F180910C049091AE
:102ED0000D04A0910E04B0910F04892B8A2B8B2B2B
:102EE000D1F081E080933C0680910C0490910D0418
:102EF000A0910E04B0910F0480933E0690933F067C
:102F0000A0934006B093410684E090E0909334068D
:102F10008093330621C010923C0610923406109222
:102F200033061AC082E090E0909334068093330613
:102F300013C010923C0610923D0610922E0610927D
:102F400034061092330609C0000007C0000005C017
:102F5000000003C0000001C0000000000F90DF91DE
:102F6000CF910895CF93DF93CDB7DEB7109235069A
:102F700010923606109237061092380610923906D3
:102F800080912F069091300690933B0680933A06ED
:102F900010923C0610923D0610923E0610923F069B
:102FA0001092400610924106109234061092330699
:102FB00080E090E0DF91CF910895CF93DF9300D030
:102FC000CDB7DEB79B838A838A819B81019709F005
:102FD0005BC020912F063091300680913A06909187
:102FE0003B0641E02817390709F440E04983809106
:102FF0002F069091300690933B0680933A06898184
:10300000882381F010923C0610923D0610923E06F5
:1030100010923F061092400610924106109234061C
:103020001092330680912F0690913006019761F53A
:103030008091330690913406892B21F480911004FD
:10304000882391F480913306909134060197E1F43E
:1030500080913E0690913F06A0914006B0914106B6
:103060000197A105B10581F410923E0610923F062A
:1030700010924006109241061092100482E090E0F7
:10308000909334068093330680912F0690913006FA
:10309000019751F48091190690911A062A813B817B
:1030A0002817390709F4F3DB8A819B81019721F402
:1030B00040DD1092430607C080914306882319F033
:1030C0008091420602C080913C060F900F900F90B5
:1030D000DF91CF910895CF93DF93CDB7DEB71092F4
:1030E0003506109236061092370610923806109266
:1030F0003906109234061092330610923B06109255
:103100003A0610921A061092190610923C06109276
:103110003D0610923E0610923F0610924006109215
:103120004106109242061092430610921B0610921E
:103130001C0610921D0610921E0610921F06109279
:10314000200610922106109222061092230688EE85
:1031500093E0A0E0B0E080930C0490930D04A09362
:103160000E04B0930F0410922406109225061092BC
:103170002606109227061092280610922906109211
:103180002A0610922B0610922D0610922C0681E032
:103190008093100410922E061092300610922F0683
:1031A000109232061092310680E090E0DF91CF91CC
:1031B0000895CF93DF93CDB7DEB780912F0690911E
:1031C0003006892B01F580911004882359F08091F5
:1031D0002E06882339F481E08093420681E08093B3
:1031E000430611C080912E06882351F0809110046F
:1031F000882331F41092420681E08093430603C095
:103200001092430600C00000DF91CF910895CF9344
:10321000DF93CDB7DEB72C970FB6F894DEBF0FBEA5
:10322000CDBF9E838D8378876F835A8749873C877C
:103230002B871A8219820E94EE409C838B838D819A
:103240009E81FC01808191810E94CB438B859C856E
:1032500060E070E00E9457409C018F819885FC01DE
:10326000318320830E943D409C0189859A85FC0121
:10327000318320838F819885FC0180819181892B06
:10328000E1F08F819885FC01208131818B819C81C7
:10329000B9010E9421489C018D819E81FC013183EE
:1032A00020838D819E81FC0180819181892B49F44D
:1032B00086EF9FEF9A83898304C088EF9FEF9A83FC
:1032C000898389819A812C960FB6F894DEBF0FBE50
:1032D000CDBFDF91CF910895CF93DF9300D000D081
:1032E000CDB7DEB79A8389837C836B835E834D83FE
:1032F00089819A81892B21F089819A810E94CB430F
:103300008D819E81FC011182108280E090E02696E2
:103310000FB6F894DEBF0FBECDBFDF91CF910895F9
:10332000CF93DF9300D000D0CDB7DEB79A838983E7
:103330007C836B835E834D838D819E8122E030E0B0
:10334000FC01318320838FEF9FEF26960FB6F89410
:10335000DEBF0FBECDBFDF91CF910895CF93DF9336
:1033600000D01F92CDB7DEB78B836C8385E090E0F1
:103370009A8389838B81813F18F01A82198229C030
:103380008B81843E40F08B81813F28F481E090E086
:103390009A8389831EC08B81833D18F08B81833E85
:1033A00048F08B81803C59F48C81882341F08C81DA
:1033B000833028F482E090E09A8389830AC08B816D
:1033C000883C38F08B81833D20F483E090E09A8341
:1033D000898389819A810F900F900F900F90DF91D0
:1033E000CF910895CF93DF93CDB7DEB767970FB630
:1033F000F894DEBF0FBECDBF998B888B7B8B6A8B19
:103400005D8B4C8B3F8B2E8B888999899C838B831A
:103410008B819C81FC0180818D8319828D81803C10
:1034200049F48A899B89029728F08B819C81FC0151
:10343000818189838091450690914606892B09F404
:1034400055C069818D818ADF9B878A871A828A8528
:103450009B850597C1F18A859B85880F991F855BA0
:10346000994FFC01808191819D878C871F861E86E4
:103470008C859D85892B39F18D81882F90E02C8555
:103480003D85F90119959F878E8721E08E859F855F
:10349000892B09F420E02A838A818823A1F08E8574
:1034A0009F85FC01228133818C899D89FC013183B8
:1034B00020838E859F85FC01248135818E899F899B
:1034C000FC01318320838A81882309F053C08C89D1
:1034D0009D8920E939E1FC01318320838E899F8910
:1034E00023E23BE1FC013183208344C08D818F3F87
:1034F000A9F580914B0690914C069F838E838C8911
:103500009D89FC01118210828E899F89FC011182A4
:1035100010828E819F81892B69F12E813F818FEFEF
:1035200090E0F90119959987888788859985892B75
:1035300009F188859985FC01228133818C899D89D7
:10354000FC013183208388859985FC0124813581A4
:103550008E899F89FC01318320830CC08C899D89D1
:103560002CE639E1FC01318320838E899F89FC019F
:1035700011821082000067960FB6F894DEBF0FBE6E
:10358000CDBFDF91CF910895CF93DF93CDB7DEB755
:103590008091450690914606DF91CF910895CF9393
:1035A000DF931F921F92CDB7DEB79A8389838981FB
:1035B0009A81909346068093450600000F900F90E5
:1035C000DF91CF910895CF93DF93CDB7DEB7809190
:1035D0004706DF91CF910895CF93DF931F92CDB728
:1035E000DEB78983909147068981892B80934706AE
:1035F00000000F90DF91CF910895CF93DF931F923A
:10360000CDB7DEB78983898180959091470689235C
:103610008093470600000F90DF91CF910895CF93DC
:10362000DF93CDB7DEB780914806DF91CF91089543
:10363000CF93DF93CDB7DEB78091490690914A06CC
:10364000DF91CF910895CF93DF9300D000D000D0C9
:103650001F92CDB7DEB79E838D8378876F835A879D
:1036600049878D819E81892B51F48F8198859C8318
:103670008B838B819C812FEFFC01208394C08F81F1
:1036800098859A83898389819A812EEFFC01208312
:103690008D819E81092E000CAA0BBB0B4096A11DAB
:1036A000B11D80319105A105B10508F076C0FC017E
:1036B0008827E25AF44E8F4F0C941162C71BC11B2E
:1036C000BB1BB51BAF1BA91B9D1BA31B971B911BF2
:1036D0008B1B861B741B6E1B7A1B801B89819A8136
:1036E00020E3FC0121835FC089819A8129E2FC01EA
:1036F000218359C089819A8122E2FC01218353C030
:1037000089819A8120E2FC0121834DC089819A81BF
:10371000FC01118248C089819A8123E2FC01218346
:1037200042C089819A8121E2FC0121833CC08981C8
:103730009A8121E1FC01218336C089819A8127E2A7
:10374000FC01218330C089819A812AE2FC01218316
:103750002AC089819A8120E1FC01218324C08981CA
:103760009A8124E2FC0121831EC089819A8128E28A
:10377000FC01218318C089819A8126E2FC01218302
:1037800012C089819A8121E3FC0121830CC08981C7
:103790009A8123E3FC01218306C089819A8120E27A
:1037A000FC01218300C000002A960FB6F894DEBF0A
:1037B0000FBECDBFDF91CF910895CF93DF9300D09F
:1037C00000D000D01F92CDB7DEB79E838D8378875F
:1037D0006F835A8749871A8219828F819885892B2E
:1037E000D9F11C821B821C821B822BC02B813C8145
:1037F000C901880F991F820F931F880F991F9C0181
:103800008F819885820F931FFC01808191812D818A
:103810003E812817390781F42B813C81C901880F2B
:10382000991F820F931F880F991F9C018F81988584
:10383000820F931F9A8389838B819C8101969C833D
:103840008B832B813C8189859A852817390720F441
:1038500089819A81892B51F289819A812A960FB6A2
:10386000F894DEBF0FBECDBFDF91CF910895CF9307
:10387000DF9300D01F92CDB7DEB79A8389837C8314
:103880006B8380914406882319F084EF9FEF1BC05F
:1038900049D554D590934C0680934B060E944633ED
:1038A0000E945E339093500680934F060E942F3CF7
:1038B0000E943A3C90934E0680934D0681E080939F
:1038C000440680E090E00F900F900F900F90DF91F2
:1038D000CF910895EF92FF920F931F93CF93DF93B1
:1038E000CDB7DEB764970FB6F894DEBF0FBECDBF7D
:1038F0001A8219821C821B8218861F821A861986D8
:103900001C861B861E861D86188A1F861E821D82A7
:103910001A8A198A1C8A1B8A80914406882319F402
:1039200087EF9FEFC3C0BE01635F7F4F9E01255F9E
:103930003F4FAE01475F5F4FCE0107968B01BC0141
:1039400080E090E00E949B3F9A83898389819A81DD
:10395000892B49F089819A81049629F089819A817D
:10396000059609F096C08F819885892B59F02B8593
:103970003C858D859E85280F391F89859A858217FC
:10398000930728F488EF9FEF9A83898385C02F815E
:1039900038858B859C85820F931F9E838D836D85D3
:1039A0007E859E012D5E3F4FAE014F5E5F4F8D8144
:1039B0009E8118DD89899A89892B29F484EF9FEFEC
:1039C0009A83898369C029893A896B857C858F812F
:1039D0009885AE01415F5F4FF90119959C838B83F8
:1039E0008B899C89892B09F451C08F859889892BF3
:1039F00009F44CC01A8219822D853E858F859889DD
:103A00002817390768F42F853889AE01455F5F4F65
:103A1000BE01675F7F4FCE010796F9DB9A838983EA
:103A20002D853E858D819E81A90160E070E00E9418
:103A30003F6289819A81892B49F52F8138858B8551
:103A40009C85820F931F9E838D832B893C894F8594
:103A500058896D817E818B819C81F90119956F85D3
:103A600078894B855C8529853A858F8198857B018E
:103A70008A01AC016FEF7FEF81E090E00E94443E4D
:103A80009A83898389819A81892B29F489819A81F2
:103A90000DC0000001C000008F819885892B21F0A6
:103AA0008F8198850E94CB4389819A8164960FB655
:103AB000F894DEBF0FBECDBFDF91CF911F910F9164
:103AC000FF90EF900895CF93DF9300D000D01F9226
:103AD0001F92CDB7DEB79C838B834D835E836F834C
:103AE00078871A82198280914406882319F487EF17
:103AF0009FEF10C08D819E81AF81B885EB81FC81E5
:103B000020E0AC01BD01CF010E947A369A838983FF
:103B100089819A8128960FB6F894DEBF0FBECDBF7B
:103B2000DF91CF910895CF93DF93CDB7DEB780912A
:103B3000450690914606DF91CF910895CF93DF938C
:103B4000CDB7DEB70E94593C0E94AB3A16D448E08C
:103B500050E060E070E08BE496E00E943F621092DB
:103B6000440680E090E0DF91CF910895CF93DF93FA
:103B700000D000D0CDB7DEB76B837C838D839E836E
:103B80008B819C81AD81BE81BC01CD010E94383703
:103B90009A83898389819A8126960FB6F894DEBF2D
:103BA0000FBECDBFDF91CF910895CF93DF9300D0AB
:103BB0001F921F92CDB7DEB79D838C8381E08983EE
:103BC0008C819D81298140E050E0BA010E947A36C3
:103BD0009B838A838A819B810F900F900F900F9017
:103BE0000F90DF91CF910895CF93DF9300D01F9274
:103BF0001F92CDB7DEB78D8381E090E09A838983F1
:103C00000E94AE409C838B838D81282F30E08B8176
:103C10009C8149815A81BA010E94DB61CB0141E05C
:103C20002817390708F040E0842F0F900F900F906D
:103C30000F900F90DF91CF910895CF93DF9300D035
:103C40001F921F92CDB7DEB79C838B836D83A1D368
:103C50009A83898380915806482F50E029813A81C0
:103C60008B819C81B9010E94366200000F900F90F9
:103C70000F900F900F90DF91CF910895CF93DF9326
:103C8000CDB7DEB72D970FB6F894DEBF0FBECDBF10
:103C9000998788877B876A875D874C871A82198214
:103CA000288539858A859B85820F931F9C838B830A
:103CB0008B819C819E838D831F820E9456398F83C6
:103CC0008F81882351F48C859D8522E030E0FC01B2
:103CD0003183208385EF9FEF2DC08D819E81FC0174
:103CE0008181882331F08D819E81FC018181813029
:103CF00019F481E090E002C080E090E08F838F8132
:103D0000882351F48C859D8522E030E0FC013183CD
:103D100020838EEF9FEF0EC081E090E040DC1A829E
:103D200019828C859D8528E030E0FC013183208359
:103D300089819A812D960FB6F894DEBF0FBECDBF54
:103D4000DF91CF910895CF93DF9300D000D01F92E1
:103D50001F92CDB7DEB79C838B837E836D8358879C
:103D60004F838B819C81892BA9F58D819E819A83BC
:103D7000898389819A8148E050E060E070E00E9488
:103D80003F6289819A812FEFFC01208325E08981A0
:103D90009A81FC01218320E089819A81FC012283A0
:103DA0000E94AE40282F89819A81FC0123830E94C2
:103DB000A5409C0189819A81FC01358324838981F6
:103DC0009A8121E0FC01268389819A8121E0FC010E
:103DD000278308C04F8158852D813E818B819C812E
:103DE000B90131DC000028960FB6F894DEBF0FBE93
:103DF000CDBFDF91CF910895CF93DF9300D000D056
:103E00001F92CDB7DEB79B838A837D836C835F83EC
:103E10004E8381E089830E94563989838981882372
:103E200051F48E819F8122E030E0FC0131832083B8
:103E300085EF9FEF0CC080E090E0B1DB8E819F8129
:103E400021E030E0FC013183208380E090E0279680
:103E50000FB6F894DEBF0FBECDBFDF91CF910895AE
:103E6000CF93DF9300D000D0CDB7DEB79A8389839C
:103E70007C836B835E834D838D819E8126E030E061
:103E8000FC013183208380E090E026960FB6F89401
:103E9000DEBF0FBECDBFDF91CF910895CF93DF93EB
:103EA00000D000D01F921F92CDB7DEB79C838B83CA
:103EB0007E836D8358874F838D819E819A8389830A
:103EC00089819A8146E050E060E070E00E943F62A4
:103ED00089819A812FEFFC01208375DB282F89814E
:103EE0009A81FC0121839BDB282F89819A81FC0127
:103EF00022839EDB9C0189819A81FC013583248386
:103F0000000028960FB6F894DEBF0FBECDBFDF913C
:103F1000CF910895CF93DF9300D000D01F92CDB7FB
:103F2000DEB79B838A837D836C835F834E83198294
:103F30000E94393989838981882321F00E94D340E6
:103F40000E944A398E819F8122E030E0FC0131835A
:103F500020838BEF9FEF27960FB6F894DEBF0FBE3E
:103F6000CDBFDF91CF910895CF93DF93CDB7DEB76B
:103F70002D970FB6F894DEBF0FBECDBF9987888707
:103F80007B876A875D874C871A82198228853985E5
:103F90008A859B85820F931F9C838B838B819C8159
:103FA0009E838D831F828D819E81FC0123818D8163
:103FB0009E81FC0184819581A681B781422FBC013D
:103FC000CD01F6D18F838F81882351F48C859D8517
:103FD00022E030E0FC013183208384EF9FEF09C0B1
:103FE0008C859D8521E030E0FC013183208389812F
:103FF0009A812D960FB6F894DEBF0FBECDBFDF912C
:10400000CF910895CF93DF93CDB7DEB72F970FB63B
:10401000F894DEBF0FBECDBF9B878A877D876C87F4
:104020005F874E871A8219822A853B858C859D85FC
:10403000820F931F9C838B838B819C819E838D83B6
:104040001F82A7D1998788878D819E81FC018181FC
:10405000CBDD8F838F81882351F48E859F8522E06D
:1040600030E0FC01318320838EEF9FEF22C08885F2
:104070009985892B51F48E859F8522E030E0FC01E3
:104080003183208384EF9FEF14C08D819E81FC01DA
:1040900081818093580680915806882F90E09C017A
:1040A0002F5F3F4F8E859F85FC013183208389815F
:1040B0009A812F960FB6F894DEBF0FBECDBFDF9169
:1040C000CF910895CF93DF93CDB7DEB72D970FB67D
:1040D000F894DEBF0FBECDBF998788877B876A873C
:1040E0005D874C8788859985892B91F552D19A8374
:1040F00089838A859B859C838B838B819C8141E00E
:1041000050E060E070E00E943F628B819C812FEF65
:10411000FC01208389819A81892B11F180915806B5
:10412000882F90E001962C853D8528173907C1F42A
:104130008A859B8501969E838D831F828D819E81BA
:104140006F817BDD8091580664D11092580608C0BB
:104150004C855D852A853B8588859985B90173DA0B
:1041600000002D960FB6F894DEBF0FBECDBFDF91D5
:10417000CF910895CF93DF93CDB7DEB72D970FB6CC
:10418000F894DEBF0FBECDBF998788877B876A878B
:104190005D874C871A821982288539858A859B8597
:1041A000820F931F9C838B838B819C819E838D8345
:1041B0001F828D819E81FC01818116DD8F838F811D
:1041C000882351F48C859D8522E030E0FC01318309
:1041D00020838EEF9FEF31C08D819E81FC01238172
:1041E0008D819E81FC0184819581A681B781422FBA
:1041F000BC01CD01DDD08F838F81882351F48C8564
:104200009D8522E030E0FC013183208384EF9FEF25
:1042100014C08D819E81FC0181818093580680911C
:104220005806882F90E09C012F5F3F4F8C859D851D
:10423000FC013183208389819A812D960FB6F894F1
:10424000DEBF0FBECDBFDF91CF910895CF93DF9337
:10425000CDB7DEB72D970FB6F894DEBF0FBECDBF3A
:10426000998788877B876A875D874C87888599854A
:10427000892B91F58ED09A8389838A859B859C832F
:104280008B838B819C8141E050E060E070E00E9474
:104290003F628B819C812FEFFC01208389819A8171
:1042A000892B11F180915806882F90E001962C857A
:1042B0003D8528173907C1F48A859B8501969E8321
:1042C0008D831F828D819E816F81B7DC809158061E
:1042D000A0D01092580608C04C855D852A853B8584
:1042E00088859985B901AFD900002D960FB6F8944D
:1042F000DEBF0FBECDBFDF91CF910895CF93DF9387
:104300001F921F92CDB7DEB79A83898389819A81E4
:1043100047E050E066E474E050DA0F900F90DF91D0
:10432000CF910895CF93DF93CDB7DEB78EE791E2BB
:1043300010D093D00000DF91CF910895CF93DF93F9
:10434000CDB7DEB78091590690915A06DF91CF9193
:104350000895CF93DF931F921F92CDB7DEB79A8354
:10436000898389819A8190935A0680935906000027
:104370000F900F90DF91CF910895CF93DF93CDB73A
:10438000DEB773D080E090E0E4DF0000DF91CF91F2
:104390000895CF93DF93CDB7DEB780915306909108
:1043A0005406A0915506B0915606DF91CF9108951D
:1043B000CF93DF9300D01F921F92CDB7DEB76983F2
:1043C0007A838B839C834D838D81882351F48981EB
:1043D0009A81AB81BC81892B8A2B8B2B11F480E0D5
:1043E00010C089819A81AB81BC81809353069093E0
:1043F0005406A0935506B09356068D8180935706B8
:1044000081E00F900F900F900F900F90DF91CF9160
:104410000895CF93DF931F92CDB7DEB789832091A4
:1044200053063091540640915506509156068981A5
:10443000882F90E0A0E0B0E0820F931FA41FB51F6B
:104440008093530690935406A0935506B093560656
:1044500000000F90DF91CF910895CF93DF93CDB7F8
:10446000DEB70000DF91CF910895CF93DF93CDB7F2
:10447000DEB70000DF91CF910895CF93DF9300D096
:10448000CDB7DEB79B838A831982F8948091610649
:104490009091620621E0892B09F020E0298389812F
:1044A000882309F4789489810F900F900F90DF9101
:1044B000CF910895CF93DF931F921F92CDB7DEB7B0
:1044C0009A838983789400000F900F90DF91CF91A9
:1044D0000895CF93DF931F921F92CDB7DEB79A83D3
:1044E0008983F89480916106909162060196909379
:1044F000620680936106789400000F900F90DF9120
:10450000CF910895CF93DF931F921F92CDB7DEB75F
:104510009A838983F894809161069091620601974D
:104520009093620680936106789400000F900F903C
:10453000DF91CF910895CF93DF931F921F92CDB754
:10454000DEB79A83898320915B0630915C064981AE
:104550005A8163E1649FC001659F900D1124820F11
:10456000931FFC0183819481029799F020915B064F
:1045700030915C0649815A8163E1649FC001659F67
:10458000900D1124820F931FFC0183819481039766
:1045900019F481E090E002C080E090E00F900F906D
:1045A000DF91CF910895CF93DF9300D0CDB7DEB7E1
:1045B00019821B821A821B821A8209C08A819B81FE
:1045C000BADF89838A819B8101969B838A8380914C
:1045D0005D0690915E062A813B812817390718F401
:1045E0008981882359F381E09981992309F080E03A
:1045F0000F900F900F90DF91CF910895CF93DF939D
:1046000000D01F921F92CDB7DEB79B838A836C8345
:104610004D8380915B0690915C06892B09F477C0ED
:1046200080915D0690915E062A813B8128173907AB
:1046300008F06DC020915B0630915C064A815B8179
:1046400063E1649FC001659F900D1124820F931F49
:10465000FC0180819181892B09F459C020915B066E
:1046600030915C064A815B8163E1649FC001659F74
:10467000900D1124820F931FFC0182819C81981759
:1046800008F045C020915B0630915C064A815B8151
:1046900063E1649FC001659F900D1124820F931FF9
:1046A000FC01208131818C81482F50E06DE0649FB6
:1046B000C001659F900D1124820F931FFC01808122
:1046C0009181892B21F120915B0630915C064A8112
:1046D0005B8163E1649FC001659F900D1124820F8F
:1046E000931FFC01208131818C81482F50E06DE0C7
:1046F000649FC001659F900D1124820F931FFC01E0
:1047000082819D81981718F481E090E002C080E0DA
:1047100090E0898389810F900F900F900F900F90F8
:10472000DF91CF910895CF93DF9300D000D000D0D8
:10473000CDB7DEB78C836D832E833F83488759873F
:1047400019828D81882F90E09B838A838C818F3F93
:1047500041F48A819B818F3F910509F010F481E03B
:104760008983898129960FB6F894DEBF0FBECDBF2D
:10477000DF91CF910895CF93DF931F92CDB7DEB72E
:1047800089838981882F90E08F7E21E0892B09F031
:1047900020E0822F0F90DF91CF910895CF93DF9388
:1047A0001F921F92CDB7DEB78A8319828A81882330
:1047B00031F08A81813019F08A81823011F481E0F0
:1047C000898389810F900F90DF91CF910895CF93C6
:1047D000DF931F921F92CDB7DEB78A8319828A8139
:1047E000882331F08A81813019F08A81823011F476
:1047F00081E0898389810F900F90DF91CF91089597
:10480000CF93DF93CDB7DEB781E0DF91CF910895ED
:10481000CF93DF9300D0CDB7DEB79B838A832091FF
:104820005B0630915C064A815B8163E1649FC00155
:10483000659F900D1124820F931FFC0183858230A8
:10484000D9F420915B0630915C064A815B8163E17B
:10485000649FC001659F900D1124820F931FFC017E
:10486000258136818091190490911A0428173907FF
:1048700019F081E090E002C080E090E089838981B6
:10488000882339F08A819B81892B19F481E090E09B
:1048900002C080E090E0898389810F900F900F9093
:1048A000DF91CF910895CF93DF9300D000D01F9276
:1048B000CDB7DEB79E838D836F838D819E81FC0192
:1048C000208131818F81482F50E06DE0649FC001CD
:1048D000659F900D1124820F931F9C838B838B8186
:1048E0009C81FC01438154818D819E81FC01258541
:1048F0003685429FC001439F900D529F900D112419
:1049000001969A8389838F81882379F48D819E8192
:10491000FC018781882F90E080719927892B29F0ED
:1049200089819A8104969A83898389819A812796BD
:104930000FB6F894DEBF0FBECDBFDF91CF910895C3
:10494000CF93DF9300D000D000D01F921F92CDB73D
:10495000DEB79B878A871D821C821A8219821B827E
:104960001B821EC08A859B856B819DDF9F838E8302
:10497000198618868E819F8161E070E00E94574001
:10498000998788872885398589819A818217930735
:1049900020F4888599859A8389838B818F5F8B83A7
:1049A0008A859B85FC0182819B819817D8F28A8534
:1049B0009B85AC014F5E5F4F8A859B85FC018281A0
:1049C000282F30E0C901880F991F280F391F8981CE
:1049D0009A81B9010E94CA449D838C838C819D81F8
:1049E000892B39F08A859B852FEF3FEFFC01328BB5
:1049F000218B8C819D812B960FB6F894DEBF0FBE64
:104A0000CDBFDF91CF910895CF93DF931F921F9277
:104A1000CDB7DEB79A83898389819A81FC01818928
:104A20009289019639F089819A81FC018189928964
:104A30000E946C4689819A812FEF3FEFFC01328BF7
:104A4000218B00000F900F90DF91CF910895CF93AD
:104A5000DF93CDB7DEB761970FB6F894DEBF0FBE18
:104A6000CDBF9D878C877F876E87598B488B1A8235
:104A700019822C853D858E859F85820F931F9C838F
:104A80008B838B819C819E838D838D819E81FC0194
:104A90008281938198878F838D819E81FC0184819F
:104AA00089878D819E81FC0185818A871B868F8104
:104AB00098854A856985A2DD8B878B85882351F48B
:104AC0008889998922E030E0FC01318320838EEFD0
:104AD0009FEF2BC08F8198852EDD982F81E0992341
:104AE00009F080E08B878B85882351F48889998928
:104AF00022E030E0FC013183208388EF9FEF15C076
:104B00008F819885909316048093150489858093EE
:104B100017048A85809318048889998921E030E0F8
:104B2000FC013183208389819A8161960FB6F894C4
:104B3000DEBF0FBECDBFDF91CF910895CF93DF933E
:104B4000CDB7DEB763970FB6F894DEBF0FBECDBF0B
:104B50009F878E87798B688B5B8B4A8B1A82198231
:104B60002E853F8588899989820F931F9C838B832B
:104B70008B819C819E838D83809115049091160476
:104B800098878F83809117048987809118048A877A
:104B90001C861B861D868F8198854A8569852EDD3A
:104BA0008D878D85882351F48A899B8922E030E0A6
:104BB000FC01318320838AEF9FEF9AC08F81988513
:104BC000BADC982F81E0992309F080E08D878D85EC
:104BD000882351F48A899B8922E030E0FC013183EB
:104BE000208388EF9FEF84C08D819E81FC018481AA
:104BF0009581A681B7812D813E81F90162812D8148
:104C00003E81F90171819C01AD01872F8CDD8D877B
:104C10008D85882351F48A899B8922E030E0FC014C
:104C2000318320838EEF9FEF63C020915B0630912C
:104C30005C064F81588563E1649FC001659F900DBC
:104C40001124820F931FFC01208131818985482F17
:104C500050E06DE0649FC001659F900D1124820FAC
:104C6000931FFC01408151818A85282F30E0C901C2
:104C7000880F991F880F991F880F991F821B930B0C
:104C8000840F951F9C878B878D819E81FC012181DC
:104C90008B859C85FC0120838D819E81FC01228176
:104CA0008B859C85FC0121838D819E81FC01238164
:104CB0008B859C85FC0122838D819E81FC018481F2
:104CC0009581A681B7812B853C85F90183839483E7
:104CD000A583B683809118048F5F809318048A8916
:104CE0009B8921E030E0FC013183208389819A8116
:104CF00063960FB6F894DEBF0FBECDBFDF91CF91A4
:104D00000895CF93DF93CDB7DEB72F970FB6F89402
:104D1000DEBF0FBECDBF9B878A877D876C875F878D
:104D20004E871A8219822A853B858C859D85820F44
:104D3000931F9C838B838B819C819E838D8318869C
:104D40001F82198680915B0690915C06892B79F011
:104D50008D819E81FC012281338180915D0690913D
:104D60005E062817390718F481E090E002C080E061
:104D700090E089878985882351F48E859F8522E07C
:104D800030E0FC01318320838EEF9FEFA3C02091A0
:104D90005B0630915C068D819E81FC0142815381CE
:104DA00063E1649FC001659F900D1124820F931FE2
:104DB00098878F838D819E81FC0182819381BBDBEB
:104DC000982F81E0992309F080E0898789858823DD
:104DD00051F48E859F8522E030E0FC0131832083F1
:104DE00088EF9FEF77C08D819E81FC018481958142
:104DF00021E08038910508F020E029878985882303
:104E000051F48E859F8522E030E0FC0131832083C0
:104E10008EEF9FEF5FC08D819E81FC01978181E0C5
:104E2000992309F080E089878985882351F48E854C
:104E30009F8522E030E0FC01318320838EEF9FEFDD
:104E400049C08D819E81FC01818195DC898789859E
:104E5000882351F48E859F8522E030E0FC01318368
:104E6000208386EF9FEF36C08D819E81FC012181DA
:104E70008F819885FC0127838D819E81FC0124818F
:104E800035818F819885FC01368325838D819E81B4
:104E9000FC0126818F819885FC0120878D819E8170
:104EA000FC0127818F819885FC0121878F8198855E
:104EB000FC018085823028F48F81988521E0FC01F7
:104EC00020878E859F8521E030E0FC01318320839F
:104ED00089819A812F960FB6F894DEBF0FBECDBFA1
:104EE000DF91CF9108950F931F93CF93DF93CDB7A9
:104EF000DEB76C970FB6F894DEBF0FBECDBF988FAC
:104F00008F8B7A8F698F5C8F4B8F1B861A862F89C8
:104F1000388D898D9A8D820F931F9D878C878C8504
:104F20009D859F878E87198A188A8E859F85FC01AB
:104F300082819381CC01A0E0B0E08A8B9B8BAC8B0B
:104F4000BD8B19821E8A80915B0690915C06892B2D
:104F500099F080915D0690915E06CC01A0E0B0E0F2
:104F60002A893B894C895D89281739074A075B07DD
:104F70001CF481E090E002C080E090E089838981A8
:104F8000882351F48B8D9C8D22E030E0FC0131832D
:104F900020838EEF9FEF40C28A899B89AC89BD89AF
:104FA0008093110490931204A0931304B0931404FB
:104FB00020915B0630915C064A895B8963E1649FBE
:104FC000C001659F900D1124820F931F998B888BD0
:104FD0008E859F85FC018181E1DB8983898188231E
:104FE00051F48B8D9C8D22E030E0FC0131832083D5
:104FF00086EF9FEF11C204DC882309F47DC0888905
:105000009989FC0183819481892B09F075C0888975
:105010009989FC018781882F90E082709927892BDC
:1050200081F188899989FC0180819181892B91F096
:1050300080916006282F30E088899989FC0182815F
:10504000882F90E0820F931F813891051CF481E036
:1050500090E002C080E090E089838981882309F490
:105060003EC02091600688899989FC0122872091A1
:10507000600688899989FC018281820F809360068D
:105080002EC088899989FC0180819181892B91F0BA
:1050900080915F06282F30E088899989FC01828100
:1050A000882F90E0820F931F8D3F91051CF481E0C3
:1050B00090E002C080E090E089838981882379F0C4
:1050C00020915F0688899989FC01228720915F06DB
:1050D00088899989FC018281820F80935F0689818A
:1050E000882351F48B8D9C8D22E030E0FC013183CC
:1050F000208387EF9FEF90C18E859F85FC01818182
:10510000813039F08E859F85FC018181823009F0E4
:10511000CBC01B821A8281E089831B821A82B5C0B0
:105120001D821C821F821E821D821C822EC08889C5
:105130009989FC01208131814A815B816DE0649F06
:10514000C001659F900D1124820F931FFC014081C7
:1051500051812C813D81C901880F991F880F991FAA
:10516000880F991F821B930B840F951FFC0181816F
:10517000882F90E02E813F81820F931F9F838E8323
:105180008C819D8101969D838C8388899989FC01FE
:10519000208131814A815B816DE0649FC001659F00
:1051A000900D1124820F931FFC018281882F90E0C3
:1051B0002C813D81281739070CF4B9CF8A819B8156
:1051C000892B21F588899989FC018781882F90E0B6
:1051D00080719927892BD1F088899989FC014585AF
:1051E00056852E813F81429FC001439F900D529F63
:1051F000900D11248C010B5F1F4F0E94A54021E0F0
:105200008017910708F420E0298319C088899989BB
:10521000FC01458556852E813F81429FC001439FF9
:10522000900D529F900D11248C010F5F1F4F0E9413
:10523000A54021E08017910708F420E029838981A7
:10524000882351F48B8D9C8D22E030E0FC0131836A
:10525000208387EF9FEFE0C088899989FC01208136
:1052600031814A815B816DE0649FC001659F900D33
:105270001124820F931F2E813F81FC0134832383ED
:105280008A819B8101969B838A8388899989FC0105
:105290008281882F90E02A813B812817390724F4E6
:1052A0008981882309F03CCF88899989FC0185810F
:1052B0009681E3D88E8B8E89882309F49EC0198647
:1052C00018868E859F85FC018181882F90E0813032
:1052D0009105D1F08230910509F469C0892B09F05C
:1052E00071C08889998921E030E0FC0134832383EF
:1052F0005AD9882309F463C081E090E00E94CF1A54
:1053000080E40E94FD1A5BC088899989FC0181892B
:1053100092890196C9F588899989FC012581368190
:105320008091190490911A042817390799F48889F3
:105330009989AC014F5E5F4F20911D0430911E048E
:1053400080911B0490911C04B9010E9465479987C4
:1053500088871AC08A899B89AC89BD891816190665
:105360001A061B068CF088899989FC018581968133
:10537000029750F488899989E3DA99878887888920
:105380009989FC01108A178688859985892BC9F42B
:105390008889998923E030E0FC013483238382E00B
:1053A00090E00E94CF1A80E40E94EC1A0AC088891B
:1053B000998922E030E0FC013483238303C000009C
:1053C00001C0000088899989FC018581968172D885
:1053D0008B8D9C8D22E030E0FC0131832083888519
:1053E0009985892B51F08B8D9C8D22E030E0FC015A
:1053F000318320838DEF9FEF0FC08E89882351F476
:105400008B8D9C8D22E030E0FC013183208385EF81
:105410009FEF02C08A859B856C960FB6F894DEBF1D
:105420000FBECDBFDF91CF911F910F910895CF9304
:10543000DF9300D000D01F921F92CDB7DEB79C83C0
:105440008B837E836D8358874F838B819C81892BCF
:1054500029F58D819E819A83898389819A812FEF95
:10546000FC01208320915B0630915C068091110441
:1054700090911204A0911304B0911404AC0163E163
:10548000649FC001659F900D1124820F931FFC0142
:10549000228589819A81FC01218309C04F81588529
:1054A0002D813E818B819C81B9010E94231B0000CC
:1054B00028960FB6F894DEBF0FBECDBFDF91CF9117
:1054C0000895CF93DF93CDB7DEB766970FB6F89404
:1054D000DEBF0FBECDBF9A8B898B7C8B6B8B5E8BB7
:1054E0004D8B18861F8229893A898B899C89820F66
:1054F000931F9A87898789859A859C878B871D86C4
:105500001E8619821A821B821C828B859C85FC0157
:1055100081815DD98D878D85882351F48D899E8900
:1055200022E030E0FC013183208386EF9FEF20C230
:1055300080915B0690915C06892B49F080915D0615
:1055400090915E06892B19F081E090E002C080E026
:1055500090E08D878D85882351F48D899E8922E086
:1055600030E0FC01318320838EEF9FEF01C20E9467
:1055700039398E878E85882309F4EBC11E821D82FE
:10558000188A1F868B859C85FC018181882F90E07D
:105590008130910509F456C08230910509F46CC13F
:1055A000892B09F0BFC119821A821B821C8231C06B
:1055B00020915B0630915C0649815A8163E1649FCA
:1055C000C001659F900D1124820F931FFC01838100
:1055D0009481892B99F020915B0630915C0649817A
:1055E0005A8163E1649FC001659F900D1124820F71
:1055F000931F21E030E0FC013483238389819A8169
:10560000AB81BC810196A11DB11D89839A83AB83B7
:10561000BC8380915D0690915E06CC01A0E0B0E075
:1056200029813A814B815C81281739074A075B073A
:105630000CF4BECF81E090E00E94CF1A80E40E947B
:10564000FD1A70C119821A821B821C82ACC0209183
:105650005B0630915C0649815A8163E1649FC00119
:10566000659F900D1124820F931FFC01838194810B
:10567000029709F08DC020915B0630915C0649814C
:105680005A8163E1649FC001659F900D1124820FD0
:10569000931FFC0181899289019609F079C02091BC
:1056A0005B0630915C0649815A8163E1649FC001C9
:1056B000659F900D1124820F931FFC012581368177
:1056C0008091190490911A0428173907F9F4209150
:1056D0005B0630915C0649815A8163E1649FC00199
:1056E000659F900D1124820F931FAC014F5E5F4F99
:1056F00020911D0430911E0480911B0490911C0484
:10570000B9010E9465479E838D8342C089819A8139
:10571000AB81BC81181619061A061B06CCF1209124
:105720005B0630915C0649815A8163E1649FC00148
:10573000659F900D1124820F931FFC018581968136
:10574000029730F520915B0630915C0649815A81C1
:1057500063E1649FC001659F900D1124820F931F28
:10576000EFD89E838D8320915B0630915C06498142
:105770005A8163E1649FC001659F900D1124820FDF
:10578000931FFC01108A178689819A81988B8F87D5
:1057900089819A81AB81BC810196A11DB11D89834C
:1057A0009A83AB83BC8380915D0690915E06CC01A9
:1057B000A0E0B0E029813A814B815C81281739074C
:1057C0004A075B072CF48D819E81892B09F43FCF1A
:1057D0008D819E81892B09F0A2C019821A821B82B9
:1057E0001C8238C020915B0630915C0649815A8149
:1057F00063E1649FC001659F900D1124820F931F88
:10580000FC01838194810297D1F420915B06309151
:105810005C0649815A8163E1649FC001659F900DD8
:105820001124820F931F23E030E0FC013483238393
:1058300082E090E00E94CF1A80E40E94EC1A8981F5
:105840009A81AB81BC810196A11DB11D89839A8388
:10585000AB83BC8380915D0690915E06CC01A0E095
:10586000B0E029813A814B815C81281739074A07CA
:105870005B070CF4B7CF53C019821A821B821C82BB
:1058800031C020915B0630915C0649815A8163E109
:10589000649FC001659F900D1124820F931FFC012E
:1058A00083819481029799F420915B0630915C0684
:1058B00049815A8163E1649FC001659F900D112465
:1058C000820F931F21E030E0FC0134832383898120
:1058D0009A81AB81BC810196A11DB11D89839A83F8
:1058E000AB83BC8380915D0690915E06CC01A0E005
:1058F000B0E029813A814B815C81281739074A073A
:105900005B070CF4BECF0E94D322882351F081E0C4
:1059100090E00E94CF1A80E40E94FD1A02C00000AD
:1059200001C000000E944A398D819E81892B51F06F
:105930008D899E8922E030E0FC01318320838DEF48
:105940009FEF16C08D899E8921E030E0FC013183F4
:1059500020838E85882351F48D899E8922E030E052
:10596000FC013183208385EF9FEF02C08F819885F2
:1059700066960FB6F894DEBF0FBECDBFDF91CF9114
:105980000895CF93DF9300D000D0CDB7DEB79A83D0
:1059900089837C836B835E834D838D819E8128E028
:1059A00030E0FC013183208380E090E026960FB642
:1059B000F894DEBF0FBECDBFDF91CF910895CF9396
:1059C000DF9300D000D01F921F92CDB7DEB79C832B
:1059D0008B837E836D8358874F838D819E819A83CD
:1059E000898389819A8148E050E060E070E00E94FC
:1059F0003F6289819A812FEFFC01208389819A81FE
:105A000021E1FC01218389819A812FEF3FEFFC0185
:105A10003383228389819A8120E830E0FC01358339
:105A2000248389819A81FC01168289819A81FC01F3
:105A30001782000028960FB6F894DEBF0FBECDBFC8
:105A4000DF91CF910895CF93DF9300D000D0CDB7F1
:105A5000DEB79A8389837C836B835E834D838D81DC
:105A60009E8128E030E0FC013183208380E090E0DB
:105A700026960FB6F894DEBF0FBECDBFDF91CF9153
:105A80000895CF93DF9300D000D01F921F92CDB71F
:105A9000DEB79C838B837E836D8358874F838D8194
:105AA0009E819A83898389819A8148E050E060E0F1
:105AB00070E00E943F6289819A812FEFFC01208370
:105AC00089819A8121E0FC01218389819A812FEFCC
:105AD000FC01228389819A8121E0FC012383898151
