:10000000F8C0000027C1000025C1000023C1000086
:1000100021C100001FC100001DC100001BC1000064
:1000200019C1000017C1000015C1000013C1000074
:1000300011C100000FC100000DC100000BC1000084
:1000400009C1000007C1000005C1000003C1000094
:1000500001C10000FFC00000FDC000000C949E50D4
:10006000F9C000000C942C590C945C59F3C00000AA
:10007000F1C00000EFC00000EDC00000EBC00000C8
:10008000E9C00000E7C00000E5C00000E3C00000D8
:100090000C94D3590C94035ADDC00000DBC000005F
:1000A000D9C00000D7C00000D5C00000D3C00000F8
:1000B000D1C00000CFC00000CDC00000CBC0000008
:1000C000C9C00000C7C00000C5C000000C947A5A27
:1000D0000C94AA5ABFC000000C94215B0C94515B95
:1000E000B9C0000000002100240027002A002D00D4
:1000F0003000330001010000040107010A01000083
:100100002200250028002B002E00310034000201BF
:100110000000050108010B01050505050705080894
:100120000808020202020A0A080804040404010181
:100130000101010101010303030303030303040796
:1001400007070C0C0C0C0C0C0C0C0202020206062D
:100150000606060606060B0B0B0B0B0B0B0B010220
:1001600010202008081020401020408002010201C9
:100170000804020101020408102040808040201081
:1001800008040201800402018040201008040201DA
:100190000804020101020408102040800102040842
:1001A0001020408000000A0B02090C0D0E08070306
:1001B000040100000000000000000000000000003A
:1001C000000000000000000000000000000000002F
:1001D00012111000000000000000000000000000EC
:1001E00000000000000000000000C7596E5A155BB7
:1001F000BE5B11241FBECFEFD1E2DEBFCDBF00E05A
:100200000CBF14E0A0E0B2E0EEE1F9EB00E00BBFC0
:1002100002C007900D92A83AB107D9F72AE0A8EAE0
:10022000B4E001C01D92A031B207E1F710E0C9EFC0
:10023000D0E000E006C021970109802FFE010E9456
:10024000585CC53FD10780E00807A9F70E94B24D6E
:100250000C948D5CD5CECF93DF931F921F92CDB7B8
:10026000DEB789836A838A81882329F460E08981E3
:100270000E94B1520CC08A81813029F461E08981E9
:100280000E94B15204C062E089810E94B152000014
:100290000F900F90DF91CF910895CF93DF931F922E
:1002A0001F92CDB7DEB789836A838A81882329F0BC
:1002B00061E089810E94505404C060E089810E94FD
:1002C000505400000F900F90DF91CF910895CF937D
:1002D000DF9300D000D0CDB7DEB79C838B837E83C5
:1002E0006D831A82198289819A8126960FB6F894B5
:1002F000DEBF0FBECDBFDF91CF910895CF93DF93C7
:1003000000D000D01F921F92CDB7DEB79E838D83A1
:1003100078876F831C821B828D819E81892B19F4C3
:100320008FEF9FEFB6C08F819885892B19F48FEFDF
:100330009FEFAFC08091C4039091C503A091C60305
:10034000B091C7038E3F9F4FAF4FBF4F81F48F8156
:100350009885FC0180819181A281B3818093C4033F
:100360009093C503A093C603B093C7030FC08091B9
:10037000C4039091C503A091C603B091C7032F8118
:100380003885F90180839183A283B3838091C4036C
:100390009091C503A091C603B091C7038D819E8142
:1003A000FC0182819381FC0180819181A281B381D2
:1003B0008093110590931205A0931305B093140533
:1003C0008D819E81FC0182819381FC0184819581D4
:1003D000A681B7818093150590931605A093170504
:1003E000B09318058D819E81FC0182819381FC016F
:1003F00080859185A285B3858093190590931A0510
:10040000A0931B05B0931C058D819E81FC01828108
:100410009381FC0184859585A685B78580931D050C
:1004200090931E05A0931F05B093200510922105FF
:100430001092220510922305109224050E94AF11FC
:100440001A8219821A82198210C089819A81880FB2
:10045000991F88559B4F2AED31E1FC0131832083A0
:1004600089819A8101969A83898389819A810297E9
:1004700060F30E94A60C9C838B838B819C81892BCB
:1004800031F481E090E09093100580930F058B810B
:100490009C8128960FB6F894DEBF0FBECDBFDF91CA
:1004A000CF910895CF93DF93CDB7DEB72C970FB6DA
:1004B000F894DEBF0FBECDBF69877A878B879C8794
:1004C0001A8219821B821C821D821E821F829091B9
:1004D0000D0581E0992309F080E0888782E090E0B3
:1004E0009093100580930F0589859A85AB85BC850F
:1004F000892B8A2B8B2B59F480910D05882339F495
:1005000080910E05882319F481E090E002C080E01C
:1005100090E08F8331C06AE070E080E090E00E945C
:100520006D518B819C81AD81BE81805F984DAF4FB5
:10053000BF4F8B839C83AD83BE8389859A85AB85B2
:10054000BC858F3F9F4FAF4FBF4F81F02B813C81C8
:100550004D815E8189859A85AB85BC85821793071D
:10056000A407B50718F481E090E002C080E090E0B5
:100570008F8380E00E94FE0C80910D05882339F462
:1005800080910E05882319F48F81882321F283E05E
:1005900090E09093100580930F058F81882321F0C0
:1005A0008CE99FEF9A8389838885882311F00E94C4
:1005B000D61289819A812C960FB6F894DEBF0FBEB1
:1005C000CDBFDF91CF910895CF93DF93CDB7DEB745
:1005D00061970FB6F894DEBF0FBECDBF9D878C87A5
:1005E0004E875F87688B798B1A82198281E08B83B3
:1005F0008C859D858F3F910521F018F08FEF9FEF3F
:1006000063C080910F0590911005039731F08091A0
:100610000F0590911005019731F484E090E09093DC
:10062000100580930F058C859D85029708F58C85B4
:100630009D85880F991F88559B4FFC018081918172
:10064000892BB1F00E9490179D838C838C819D81B2
:10065000029771F48C859D85880F991F88559B4F53
:10066000FC01208131818C859D85F90119958B8351
:100670008C859D859F838E832C853D858E859F856A
:10068000A889B989A901BC01CD010E94830CDC01B4
:10069000CB0188879987AA87BB878B81882371F0D4
:1006A00088859985AA85BB852E813F81AC01BD01D6
:1006B000C9010E9460179A83898304C08E819F813B
:1006C0000E94D21789819A8161960FB6F894DEBF95
:1006D0000FBECDBFDF91CF910895CF93DF931F92CF
:1006E0001F92CDB7DEB71A82198280E00E94FE0CFD
:1006F0009A83898389819A810F900F90DF91CF919E
:100700000895CF93DF931F921F92CDB7DEB71A8261
:10071000198286E090E09093100580930F050E9467
:100720008E0D9A83898344E050E060E070E088EAAF
:1007300094E00E94865C0E9468121092100510924C
:100740000F0589819A810F900F90DF91CF910895C5
:10075000CF93DF93CDB7DEB780910E05DF91CF91B8
:100760000895CF93DF93CDB7DEB780912505DF9154
:10077000CF910895CF93DF9300D01F92CDB7DEB70E
:1007800069837A838B839C8389819A81AB81BC81C5
:100790008093C4039093C503A093C603B093C7038B
:1007A00080E090E00F900F900F900F90DF91CF912D
:1007B0000895CF93DF9300D000D01F921F92CDB742
:1007C000DEB76D837E838F8398878D819E81AF8115
:1007D000B885BF7720E030E040E859E5BC01CD01A5
:1007E0000E94FD4E88230CF056C020E030E040E02F
:1007F0005FE36D817E818F8198850E9437508823C9
:10080000BCF020E030E040E05FE36D817E818F81CD
:1008100098850E94864EDC01CB01BC01CD010E946F
:100820006F4FDC01CB0189839A83AB83BC833BC0D0
:1008300020E030E040E05FEB6D817E818F81988524
:100840000E943750181684F420E030E0A9016D8131
:100850007E818F8198850E943B50DC01CB0189838A
:100860009A83AB83BC831FC020E030E040E05FE3AD
:100870006D817E818F8198850E94854EDC01CB0140
:10088000BC01CD010E94EA4EDC01CB0189839A8331
:10089000AB83BC8308C08D819E81AF81B88589837D
:1008A0009A83AB83BC8389819A81AB81BC81BC0173
:1008B000CD0128960FB6F894DEBF0FBECDBFDF91F5
:1008C000CF910895CF93DF93CDB7DEB761970FB681
:1008D000F894DEBF0FBECDBF8091010A882F90E053
:1008E000845A9F4F880F991F880F991F80509E4FE1
:1008F000FC0180819181A281B3818093D60990937C
:10090000D709A093D809B093D90980919003909109
:100910009103A0919203B0919303BC01CD010E9479
:10092000014FDC01CB018230910509F45CC08330BA
:10093000910509F4A4C0019709F0F1C08091FA096A
:10094000882F90E0805C9F4F880F991F880F991F18
:1009500080509E4FFC0180819181A281B381898367
:100960009A83AB83BC838091FB09882F90E08C5BDA
:100970009F4F880F991F880F991F80509E4FFC0131
:1009800080819181A281B3818D839E83AF83B8875B
:100990008091FC09882F90E0885B9F4F880F991FFA
:1009A000880F991F80509E4FFC0180819181A28108
:1009B000B38189879A87AB87BC878091FD09882F8F
:1009C00090E0845B9F4F880F991F880F991F80507C
:1009D0009E4FFC0180819181A281B3818D879E878A
:1009E000AF87B88BEDC08091FE09882F90E0805BC7
:1009F0009F4F880F991F880F991F80509E4FFC01B1
:100A000080819181A281B38189839A83AB83BC83E6
:100A10008091FF09882F90E08C5A9F4F880F991F73
:100A2000880F991F80509E4FFC0180819181A28187
:100A3000B3818D839E83AF83B8878091000A882F0E
:100A400090E0885A9F4F880F991F880F991F8050F8
:100A50009E4FFC0180819181A281B38189879A8711
:100A6000AB87BC878091D6099091D709A091D8090E
:100A7000B091D9098D879E87AF87B88BA1C080912F
:100A8000020A882F90E0880F991F880F991F8050C5
:100A90009E4FFC0180819181A281B38189839A83D9
:100AA000AB83BC838091030A882F90E00896880F5F
:100AB000991F880F991F80509E4FFC018081918162
:100AC000A281B3818D839E83AF83B8878091040A0E
:100AD000882F90E04096880F991F880F991F8050AB
:100AE0009E4FFC0180819181A281B38189879A8781
:100AF000AB87BC878091050A882F90E04896880FC5
:100B0000991F880F991F80509E4FFC018081918111
:100B1000A281B3818D879E87AF87B88B51C08091AA
:100B2000060A882F90E08096880F991F880F991FDA
:100B300080509E4FFC0180819181A281B381898385
:100B40009A83AB83BC838091070A882F90E08896B4
:100B5000880F991F880F991F80509E4FFC0180813C
:100B60009181A281B3818D839E83AF83B887809169
:100B7000080A882F90E0C096880F991F880F991F48
:100B800080509E4FFC0180819181A281B381898731
:100B90009A87AB87BC878091090A882F90E0C89616
:100BA000880F991F880F991F80509E4FFC018081EC
:100BB0009181A281B3818D879E87AF87B88B00001A
:100BC00089819A81AB81BC81BC01CD01F2DDDC0160
:100BD000CB0189839A83AB83BC8320E030E040E87B
:100BE00053E469817A818B819C810E94FD4E882328
:100BF000BCF420E030E0A90169817A818B819C817D
:100C00000E943750882354F069817A818B819C81BE
:100C10000E94064FDC01CB01898B04C0198A02C0F7
:100C20008FEF898B698982E038DB8D819E81AF816E
:100C3000B885BC01CD01BDDDDC01CB0189839A8380
:100C4000AB83BC8320E030E040E853E469817A81E3
:100C50008B819C810E94FD4E8823BCF420E030E013
:100C6000A90169817A818B819C810E9437508823F8
:100C700054F069817A818B819C810E94064FDC014E
:100C8000CB01898B04C0198A02C08FEF898B6989D7
:100C900083E003DB89859A85AB85BC85BC01CD01EA
:100CA00088DDDC01CB0189839A83AB83BC8320E0A0
:100CB00030E040E853E469817A818B819C810E9415
:100CC000FD4E8823BCF420E030E0A90169817A81DF
:100CD0008B819C810E943750882354F069817A81EE
:100CE0008B819C810E94064FDC01CB01898B04C063
:100CF000198A02C08FEF898B698984E0CEDA8D85ED
:100D00009E85AF85B889BC01CD0153DDDC01CB01E7
:100D100089839A83AB83BC8320E030E040E853E4CE
:100D200069817A818B819C810E94FD4E8823BCF46D
:100D300020E030E0A90169817A818B819C810E9449
:100D40003750882354F069817A818B819C810E947D
:100D5000064FDC01CB01898B04C0198A02C08FEFDA
:100D6000898B698985E099DA9091090A8091B403A9
:100D7000890F898B809180039989891728F4809144
:100D80009B038093090A03C089898093090A909183
:100D9000080A8091B503890F898B80918103998915
:100DA000891728F4809199038093080A03C08989E0
:100DB0008093080A9091070A8091B603890F898B66
:100DC000809182039989891728F480919A038093EE
:100DD000070A03C089898093070A9091060A8091C7
:100DE000B703890F898B809183039989891728F428
:100DF000809198038093060A03C089898093060A2C
:100E00009091050A8091B803890F898B80918403A2
:100E10009989891728F4809197038093050A03C064
:100E200089898093050A9091040A8091B903890FFA
:100E3000898B809185039989891728F48091A30370
:100E40008093040A03C089898093040A9091030A5D
:100E50008091BA03890F898B8091860399898917BC
:100E600028F4809196038093030A03C089898093B4
:100E7000030A9091020A8091BB03890F898B8091AC
:100E800087039989891728F48091A2038093020A25
:100E900003C089898093020A9091010A8091BC0362
:100EA000890F898B809188039989891728F480910B
:100EB000A1038093010A03C089898093010A90915C
:100EC000000A8091BD03890F898B809189039989DC
:100ED000891728F48091A0038093000A03C08989B0
:100EE0008093000A9091FF098091BE03890F898B3E
:100EF00080918A039989891728F480919F038093B0
:100F0000FF0903C089898093FF099091FE098091B0
:100F1000BF03890F898B80918B039989891728F4E6
:100F200080919E038093FE0903C089898093FE0906
:100F30009091FD098091C003890F898B80918C036A
:100F40009989891728F480919D038093FD0903C036
:100F500089898093FD099091FC098091C103890FD3
:100F6000898B80918D039989891728F48091950345
:100F70008093FC0903C089898093FC099091FB0947
:100F80008091C203890F898B80918E03998989177B
:100F900028F480919C038093FB0903C08989809386
:100FA000FB099091FA098091C303890F898B809185
:100FB0008F039989891728F4809194038093FA0903
:100FC00003C089898093FA092CEA34E0F901868903
:100FD0009789A08DB18D0196A11DB11DF901868B58
:100FE000978BA08FB18F8CEA94E0FC01868997895A
:100FF000A08DB18D892B8A2B8B2B79F42CEA34E0D0
:10100000F901828D938DA48DB58D0196A11DB11D21
:10101000F901828F938FA48FB58F000061960FB670
:10102000F894DEBF0FBECDBFDF91CF910895CF936F
:10103000DF93CDB7DEB78CEA94E043E250E060E0A6
:1010400070E00E94865C2CEA34E080E090E0A0E84A
:10105000BFEBF901868F978FA0A3B1A32CEA34E0F0
:101060008DE19FE5A4EDBCEDF90184839583A68312
:10107000B7832CEA34E08BE999E2A2E7BBEFF901F0
:1010800080879187A287B3872CEA34E08BE995EDBE
:10109000A9E9B9EBF90184879587A687B7872CEA78
:1010A00034E08AEE9AE0A3EFB6E9F901808B918BE8
:1010B000A28BB38B8CEA94E02FEC34E0FC013383F9
:1010C00022838BED94E09093D0048093CF0483EF40
:1010D00093E09093DC048093DB0483EF93E09093A0
:1010E000DE048093DD0483EF93E09093E00480932B
:1010F000DF0483EF93E09093E2048093E10483EFB5
:1011000093E09093E4048093E30483EF93E090935F
:10111000E6048093E50483EF93E09093E8048093E2
:10112000E70483EF93E09093EA048093E90483EF6C
:1011300093E09093EC048093EB0483EF93E090931F
:10114000EE048093ED0483EF93E09093F00480939A
:10115000EF0483EF93E09093F2048093F10483EF24
:1011600093E09093F4048093F30483EF93E09093DF
:10117000F6048093F50483EF93E09093F804809352
:10118000F70483EF93E09093FA048093F90483EFDC
:1011900093E09093FC048093FB0483EF93E090939F
:1011A000FE048093FD0483EF93E090930005809309
:1011B000FF0483EF93E0909302058093010583EF92
:1011C00093E0909304058093030583EF93E090935D
:1011D00006058093050583EF93E0909308058093BF
:1011E000070583EF93E090930A058093090583EF49
:1011F00093E090930C0580930B052CEA34E08CEA85
:1012000094E0FC01828193812C5E3F4FFC01358389
:1012100024832CEA34E08CEA94E0FC0182819381FF
:101220002C5F3F4FFC01338322838CEA94E0FC0166
:10123000228133818FEF9FEFDC01F9018087918755
:10124000A287B38744E050E060E070E086ED99E06B
:101250000E94865C44E350E060E070E08AED99E033
:101260000E94865C1092F20981E080930D0A81E071
:1012700090E0A0E0B0E08093F3099093F409A0938C
:10128000F509B093F60961E082E00E942B0181E04C
:101290008093F7091092EA0981E080930C0A81E0BB
:1012A00090E0A0E0B0E08093EB099093EC09A0936C
:1012B000ED09B093EE0961E083E00E942B0181E02B
:1012C0008093EF091092E20981E080930B0A81E09C
:1012D00090E0A0E0B0E08093E3099093E409A0934C
:1012E000E509B093E60961E084E00E942B0181E00A
:1012F0008093E7091092DA0981E080930A0A81E07D
:1013000090E0A0E0B0E08093DB099093DC09A0932B
:10131000DD09B093DE0961E085E00E942B0181E0E8
:101320008093DF098091A4038093FA098091A5033B
:101330008093FB098091A6038093FC098091A70309
:101340008093FD098091A8038093FE098091A903F1
:101350008093FF098091AA038093000A8091AB03D8
:101360008093010A8091AC038093020A8091AD03BF
:101370008093030A8091AE038093040A8091AF03A7
:101380008093050A8091B0038093060A8091B1038F
:101390008093070A8091B2038093080A8091B30377
:1013A0008093090A0000DF91CF910895CF93DF93D6
:1013B000CDB7DEB78091F209882319F481E08093DC
:1013C000F2098091EA09882319F481E08093EA09FF
:1013D0008091E209882319F481E08093E2098091E9
:1013E000DA09882319F481E08093DA090000DF919B
:1013F000CF9108950F931F93CF93DF9300D000D028
:1014000000D01F92CDB7DEB79A8389834B835C836C
:101410006D837E830F83188729873A8729813A81D4
:101420008B819C81AD81BE81F90180839183A283F0
:10143000B38389819A819C012C5F3F4F8F8198856E
:10144000A985BA85F90180839183A283B3830000C3
:101450002A960FB6F894DEBF0FBECDBFDF91CF91B5
:101460001F910F910895EF92FF920F931F93CF93C7
:10147000DF93CDB7DEB76A970FB6F894DEBF0FBE25
:10148000CDBF6D8B7E8B8F8B988F5A8F498F198232
:101490001A821B821C82F894898D9A8D892B09F0FF
:1014A0000BC180913A0590913B05A0913C05B0910C
:1014B0003D052D893E894F89588D281739074A07E0
:1014C0005B07C8F080913A0590913B05A0913C05DF
:1014D000B0913D052D893E894F89588D79018A014A
:1014E000E81AF90A0A0B1B0BD801C7018D839E83EA
:1014F000AF83B88718C080913A0590913B05A091C1
:101500003C05B0913D052D893E894F89588D790163
:101510008A01E81AF90A0A0B1B0BD801C7018D834F
:101520009E83AF83B88780913E0590913F05A0913F
:101530004005B09141052D813E814F815885820F34
:10154000931FA41FB51F898B9A8BAB8BBC8B80918B
:101550003E0590913F05A0914005B0914105298934
:101560003A894B895C89281739074A075B0798F441
:101570008091420590914305A0914405B0914505A5
:101580000196A11DB11D8093420590934305A09340
:101590004405B093450589899A89AB89BC898093B4
:1015A0003E0590933F05A0934005B09341052091DF
:1015B0004205309143054091440550914505809185
:1015C0003E0590913F05A0914005B09141058901EC
:1015D0009A01AC01BD0182E395E00CDF8D899E8903
:1015E000AF89B88D80933A0590933B05A0933C0555
:1015F000B0933D052D813E814F81588580E197E272
:10160000DC010E94605C9B01AC01809146059091D9
:101610004705A0914805B0914905820F931FA41F6B
:10162000B51F8093460590934705A0934805B09356
:1016300049058091460590914705A0914805B091D4
:10164000490589839A83AB83BC838091C4039091BD
:10165000C503A091C603B091C7038F3F9F4FAF4F03
:10166000BF4F09F43CC18091C4039091C503A09180
:10167000C603B091C7038E3F9F4FAF4FBF4F09F4D2
:101680002EC120913E0530913F054091400550917B
:1016900041058091C4039091C503A091C603B09108
:1016A000C70361E0281739074A075B0708F460E0C1
:1016B000862F8093250513C119861A861B861C86E2
:1016C0001D861E861F86188A8091C8039091C903C3
:1016D000A091CA03B091CB038F3F9F4FAF4FBF4F35
:1016E000E1F08091C8039091C903A091CA03B09121
:1016F000CB039C01AD012F5F3F4F4F4F5F4F8D8953
:101700009E89AF89B88DBC01CD010E94365CDC0199
:10171000CB018D8B9E8BAF8BB88F80913A059091CA
:101720003B05A0913C05B0913D052D893E894F892F
:10173000588D281739074A075B0708F447C080917E
:101740003A0590913B05A0913C05B0913D052D894E
:101750003E894F89588D79018A01E81AF90A0A0BE6
:101760001B0BD801C70189879A87AB87BC8720915B
:101770003A0530913B0540913C0550913D058D89DE
:101780009E89AF89B88D79018A01E81AF90A0A0B96
:101790001B0BD801C7018D879E87AF87B88B2D851E
:1017A0003E854F85588989859A85AB85BC8582178A
:1017B0009307A407B50728F019861A861B861C868E
:1017C0004BC01D861E861F86188A46C080913A052A
:1017D00090913B05A0913C05B0913D052D893E8936
:1017E0004F89588D79018A01E81AF90A0A0B1B0BF7
:1017F000D801C70189879A87AB87BC8720913A05B2
:1018000030913B0540913C0550913D058D899E8965
:10181000AF89B88D79018A01E81AF90A0A0B1B0B06
:10182000D801C7018D879E87AF87B88B2D853E85F0
:101830004F85588989859A85AB85BC858217930722
:10184000A407B50728F019861A861B861C8604C0D3
:101850001D861E861F86188A89859A85AB85BC855C
:10186000892B8A2B8B2BE1F029853A854B855C856A
:1018700080E197E2DC010E94605C9B01AC018091F9
:10188000460590914705A0914805B0914905820F02
:10189000931FA41FB51F89839A83AB83BC831FC08A
:1018A000E0904605F09047050091480510914905E4
:1018B0002D853E854F85588980E197E2DC010E94A5
:1018C000605CDC01CB01A8019701281B390B4A0B96
:1018D0005B0BDA01C90189839A83AB83BC8378945B
:1018E00089819A81AB81BC81BC01CD016A960FB61A
:1018F000F894DEBF0FBECDBFDF91CF911F910F9146
:10190000FF90EF900895CF93DF9300D000D0CDB734
:10191000DEB769837A838B839C835E834D832D81BD
:101920003E8189819A81AB81BC81A901BC01CD0135
:101930009ADDDC01CB01BC01CD0126960FB6F894EF
:10194000DEBF0FBECDBFDF91CF910895CF93DF9360
:1019500000D000D0CDB7DEB71C821B821E821D8254
:101960001A821982109226051092270510922805D6
:101970001092290510922A0510922B0510922C0521
:1019800010922D0510922E0510922F051092300501
:10199000109231059E012B5F3F4FCE010396B90196
:1019A0000E941B4A2D813E818B819C81B9010E943E
:1019B00091379A83898389819A81892B19F089814A
:1019C0009A8113C09E012B5F3F4FCE010396B90150
:1019D0000E943F4A2D813E818B819C81B9010E94EA
:1019E00034169A83898389819A8126960FB6F89452
:1019F000DEBF0FBECDBFDF91CF910895CF93DF93B0
:101A000000D01F921F92CDB7DEB78D831A82198244
:101A10001B8260E070E0CB010E946D511C820E942D
:101A20005B399A83898389819A81892B39F08981ED
:101A30009A81029619F081E08B830DC08C818823F6
:101A400021F489819A81029619F081E090E002C028
:101A500080E090E08C838B818823E1F40E946716FC
:101A60009A83898389819A81892B39F089819A8126
:101A7000029619F081E08B830DC08C81882321F4BC
:101A800089819A81029619F081E090E002C080E09D
:101A900090E08C838B818823E1F40E94E6389A835E
:101AA000898389819A81892B39F089819A8102966B
:101AB00019F081E08B830DC08C81882321F489810A
:101AC0009A81029619F081E090E002C080E090E0F7
:101AD0008C838D81882391F060E070E0CB010E94BF
:101AE0006D518B81882319F48C81882319F481E04E
:101AF00090E002C080E090E08B8302C081E08B83A5
:101B00008B81882309F48ACF89819A810F900F9065
:101B10000F900F900F90DF91CF910895CF93DF93A7
:101B200000D000D01F921F92CDB7DEB718861F825B
:101B300080912505882329F060E070E0CB010E94A8
:101B4000B3170E9490179E838D8319821A821B827D
:101B50001C8218C06AE070E080E090E00E946D5145
:101B600089819A81AB81BC81805F984DAF4FBF4F17
:101B700089839A83AB83BC8381E040DF0E94901706
:101B80009E838D8389819A81AB81BC818115974821
:101B9000A349B34020F48D819E81892BD9F60E9400
:101BA0009B1798878F830E94F63A98878F831092AD
:101BB0000D0510920E05109211051092120510924B
:101BC0001305109214051092150510921605109227
:101BD0001705109218051092190510921A05109207
:101BE0001B0510921C0510921D0510921E051092E7
:101BF0001F051092200510922105109222051092C7
:101C00002305109224058EEF9FEFAFEFBFEF809377
:101C1000C4039093C503A093C603B093C703109267
:101C2000250548E050E060E070E082E395E00E9426
:101C3000865C10923A0510923B0510923C0510927A
:101C40003D0510923E0510923F05109240051092FE
:101C500041051092420510924305109244051092DE
:101C600045051092460510924705109248051092BE
:101C700049058F81988528960FB6F894DEBF0FBE70
:101C8000CDBFDF91CF910895CF93DF9300D000D0E7
:101C90001F921F92CDB7DEB780914C0590914D05F4
:101CA000A0914E05B0914F059A83898389819A81CD
:101CB000892B09F431C180915005882369F4809102
:101CC0004C0590914D05A0914E05B0914F05892B83
:101CD0008A2B8B2B09F420C18091640590916505B6
:101CE000029709F019C180916E05882309F014C18B
:101CF00089819A81FC0180819181A281B3818B834A
:101D00009C83AD83BE8380916A05882309F4F0C06B
:101D100080915D0590915E05892B31F080915D0584
:101D200090915E05029719F481E090E002C080E096
:101D300090E08F8380915D0590915E05019731F071
:101D400080915D0590915E05029719F481E090E025
:101D500002C080E090E088878F81882309F462C008
:101D60008091510590915205A0915305B091540571
:101D70009C01AD016B817C818D819E810E943750D9
:101D80008823B4F08091660590916705A09168055D
:101D9000B09169052091510530915205409153054C
:101DA00050915405BC01CD010E94FD4E882344F1A1
:101DB0008091510590915205A0915305B091540521
:101DC0009C01AD016B817C818D819E810E94375089
:101DD000181644F58091660590916705A0916805F5
:101DE000B0916905209151053091520540915305FC
:101DF00050915405BC01CD010E94FD4E882391F401
:101E00008091590590915A05A0915B05B0915C05B0
:101E1000892B8A2B8B2B19F481E080936D0581E04F
:101E200080936E058885882309F462C080915105EE
:101E300090915205A0915305B09154059C01AD01BC
:101E40006B817C818D819E810E94FD4E8823B4F43C
:101E50008091660590916705A0916805B09169052C
:101E600020915105309152054091530550915405F0
:101E7000BC01CD010E943750882344F58091510563
:101E800090915205A0915305B09154059C01AD016C
:101E90006B817C818D819E810E94FD4E882341F55E
:101EA0008091660590916705A0916805B0916905DC
:101EB00020915105309152054091530550915405A0
:101EC000BC01CD010E943750181694F48091590539
:101ED00090915A05A0915B05B0915C05892B8A2BE6
:101EE0008B2B19F481E080936D0581E080936E0562
:101EF00090916E0581E0992309F080E080936A0556
:101F00008B819C81AD81BE8180936605909367052E
:101F1000A0936805B0936905000028960FB6F89461
:101F2000DEBF0FBECDBFDF91CF910895CF93DF937A
:101F30001F92CDB7DEB71982809164059091650537
:101F4000892BC9F410925F0510926E058091D00321
:101F5000882371F182E090E0909365058093640599
:101F60001092D0038091600590916105892B01F555
:101F700081E089831DC01092D00380915F05882382
:101F800049F010926D05109265051092640510924B
:101F90005F050EC08091600590916105892B19F451
:101FA00081E0898305C080916E05898310926E055A
:101FB000809164059091650582309105F9F0833038
:101FC000910530F4009761F0019709F44CC1AEC15E
:101FD0008330910509F4EEC0049709F46AC0A6C1E4
:101FE0008091D003882309F4ACC182E090E0909303
:101FF0006505809364051092D003A3C1898188236D
:1020000009F4A1C18091590590915A05A0915B05F1
:10201000B0915C05181619061A061B06ECF480919F
:102020006005909161050197B9F4809159059091EF
:102030005A05A0915B05B0915C0580936F05909364
:102040007005A0937105B093720583E090E09093C2
:1020500065058093640577C18091CC039091CD0391
:10206000A091CE03B091CF03892B8A2B8B2BD1F07B
:1020700081E080936D058091CC039091CD03A09178
:10208000CE03B091CF0380936F0590937005A0931A
:102090007105B093720584E090E09093650580939C
:1020A000640551C110926D0510926505109264058A
:1020B0004AC180916F0590917005A0917105B09112
:1020C0007205892B8A2B8B2B99F080916F0590914B
:1020D0007005A0917105B09172050197A109B10930
:1020E00080936F0590937005A0937105B09372056E
:1020F00080916F0590917005A0917105B091720566
:10210000892B8A2B8B2B09F020C18091620590913D
:102110006305019739F410926D05109265051092D0
:10212000640513C18091550590915605A0915705FE
:10213000B0915805892B8A2B8B2BC9F010926D0515
:102140008091550590915605A0915705B09158057D
:1021500080936F0590937005A0937105B0937205FD
:1021600081E090E09093650580936405EEC08981DD
:102170008823B9F08091CC039091CD03A091CE0338
:10218000B091CF0380936F0590937005A093710574
:10219000B093720584E090E09093650580936405A8
:1021A000D4C010926D0582E090E090936505809315
:1021B0006405CBC080916F0590917005A091710569
:1021C000B0917205892B8A2B8B2B99F080916F052A
:1021D00090917005A0917105B09172050197A109C8
:1021E000B10980936F0590937005A0937105B0932A
:1021F000720580916F0590917005A0917105B09165
:102200007205892B8A2B8B2B09F0A1C08091CC03FE
:102210009091CD03A091CE03B091CF03892B8A2B4F
:102220008B2BD1F081E080936D058091CC03909150
:10223000CD03A091CE03B091CF0380936F0590930F
:102240007005A0937105B093720584E090E09093BF
:102250006505809364057BC010926D05109265053D
:102260001092640574C080916F0590917005A091E3
:102270007105B0917205892B8A2B8B2B99F0809177
:102280006F0590917005A0917105B091720501974D
:10229000A109B10980936F0590937005A093710512
:1022A000B093720580916F0590917005A0917105B2
:1022B000B0917205892B8A2B8B2B09F04AC089813A
:1022C000882369F18091CC039091CD03A091CE0336
:1022D000B091CF03892B8A2B8B2BD1F081E0809397
:1022E0006D058091CC039091CD03A091CE03B09168
:1022F000CF0380936F0590937005A0937105B09301
:10230000720584E090E0909365058093640521C098
:1023100010926D0510926505109264051AC082E056
:1023200090E0909365058093640513C010926D054D
:1023300010926E0510925F0510926505109264056B
:1023400009C0000007C0000005C0000003C0000075
:1023500001C0000000000F90DF91CF910895CF934E
:10236000DF93CDB7DEB71092660510926705109225
:1023700068051092690510926A0580916005909138
:10238000610590936C0580936B0510926D0510921A
:102390006E0510926F0510927005109271051092E3
:1023A0007205109265051092640580E090E0DF915F
:1023B000CF910895CF93DF9300D0CDB7DEB79B8345
:1023C0008A838A819B81892B09F05BC020916005FB
:1023D0003091610580916B0590916C0541E0281763
:1023E000390709F440E049838091600590916105C7
:1023F00090936C0580936B058981882381F01092FE
:102400006D0510926E0510926F0510927005109276
:102410007105109272051092650510926405809105
:10242000600590916105019761F580916405909137
:102430006505892B21F48091D003882391F4809144
:102440006405909165050197E1F480916F05909185
:102450007005A0917105B09172050197A105B105B4
:1024600081F410926F051092700510927105109210
:1024700072051092D00382E090E0909365058093FE
:1024800064058091600590916105019751F48091F8
:102490004A0590914B052A813B812817390709F499
:1024A000F3DB8A819B81892B21F440DD1092740536
:1024B00007C080917405882319F08091730502C0CC
:1024C00080916D050F900F900F90DF91CF9108953F
:1024D000CF93DF93CDB7DEB71092660510926705F4
:1024E000109268051092690510926A0510926505B0
:1024F0001092640510926C0510926B0510924B05BA
:1025000010924A0510926D0510926E0510926F059B
:102510001092700510927105109272051092730559
:102520001092740510924C0510924D0510924E05B4
:1025300010924F05109250051092510510925205BD
:10254000109253051092540588EE93E0A0E0B0E09D
:102550008093CC039093CD03A093CE03B093CF038D
:102560001092550510925605109257051092580575
:102570001092590510925A0510925B0510925C0555
:1025800010925E0510925D0581E08093D003109259
:102590005F0510926105109260051092630510921C
:1025A000620580E090E0DF91CF910895CF93DF93B3
:1025B000CDB7DEB78091600590916105892B01F55B
:1025C0008091D003882359F080915F05882339F4E6
:1025D00081E08093730581E08093740511C0809140
:1025E0005F05882351F08091D003882331F4109245
:1025F000730581E08093740503C01092740500C0D8
:102600000000DF91CF910895CF93DF93CDB7DEB770
:102610002C970FB6F894DEBF0FBECDBF9E838D837F
:1026200078876F835A8749873C872B871A8219825C
:102630000E94EB3A9C838B838D819E81FC0180817B
:1026400091810E94C83D8B859C8560E070E00E946E
:10265000543A9C018F819885FC01318320830E942C
:102660003A3A9C0189859A85FC01318320838F81C8
:102670009885FC0180819181892BE1F08F8198857B
:10268000FC01208131818B819C81B9010E941E4215
:102690009C018D819E81FC01318320838D819E81EF
:1026A000FC0180819181892B49F486EF9FEF9A8309
:1026B000898304C088EF9FEF9A83898389819A81F7
:1026C0002C960FB6F894DEBF0FBECDBFDF91CF9131
:1026D0000895CF93DF9300D000D0CDB7DEB79A83B3
:1026E00089837C836B835E834D8389819A81892B67
:1026F00021F089819A810E94C83D8D819E81FC01D3
:102700001182108280E090E026960FB6F894DEBF2A
:102710000FBECDBFDF91CF910895CF93DF9300D04F
:1027200000D0CDB7DEB79A8389837C836B835E83C9
:102730004D838D819E8122E030E0FC013183208336
:102740008FEF9FEF26960FB6F894DEBF0FBECDBF7A
:10275000DF91CF910895CF93DF9300D01F92CDB733
:10276000DEB78B836C8385E090E09A8389838B81CD
:10277000813F18F01A82198229C08B81843E40F073
:102780008B81813F28F481E090E09A8389831EC089
:102790008B81833D18F08B81833E48F08B81803C98
:1027A00059F48C81882341F08C81833028F482E0B5
:1027B00090E09A8389830AC08B81883C38F08B81B2
:1027C000833D20F483E090E09A83898389819A8114
:1027D0000F900F900F900F90DF91CF910895CF93AE
:1027E000DF93CDB7DEB767970FB6F894DEBF0FBEA5
:1027F000CDBF998B888B7B8B6A8B5D8B4C8B3F8B92
:102800002E8B888999899C838B838B819C81FC0189
:1028100080818D8319828D81803C49F48A899B89CE
:10282000029728F08B819C81FC01818189838091B2
:10283000760590917705892B09F455C069818D81C2
:102840008ADF9B878A871A828A859B850597C1F1D3
:102850008A859B85880F991F84589A4FFC01808137
:1028600091819D878C871F861E868C859D85892BEF
:1028700039F18D81882F90E02C853D85F9011995DE
:102880009F878E8721E08E859F85892B09F420E024
:102890002A838A818823A1F08E859F85FC0122816D
:1028A00033818C899D89FC01318320838E859F85AE
:1028B000FC01248135818E899F89FC01318320832D
:1028C0008A81882309F053C08C899D892DE833E1E2
:1028D000FC01318320838E899F8920E235E1FC0150
:1028E0003183208344C08D818F3FA9F580917C0581
:1028F00090917D059F838E838C899D89FC01118237
:1029000010828E899F89FC01118210828E819F81A5
:10291000892B69F12E813F818FEF90E0F9011995A4
:102920009987888788859985892B09F18885998574
:10293000FC01228133818C899D89FC0131832083B4
:1029400088859985FC01248135818E899F89FC01C8
:10295000318320830CC08C899D8929E633E1FC01F9
:10296000318320838E899F89FC01118210820000AF
:1029700067960FB6F894DEBF0FBECDBFDF91CF9143
:102980000895CF93DF93CDB7DEB780917605909110
:102990007705DF91CF910895CF93DF931F921F9218
:1029A000CDB7DEB79A83898389819A819093770521
:1029B0008093760500000F900F90DF91CF910895DE
:1029C000CF93DF93CDB7DEB780917805DF91CF91BC
:1029D0000895CF93DF931F92CDB7DEB7898390918F
:1029E00078058981892B8093780500000F90DF910D
:1029F000CF910895CF93DF931F92CDB7DEB7898330
:102A000089818095909178058923809378050000CD
:102A10000F90DF91CF910895CF93DF93CDB7DEB7BD
:102A200080917905DF91CF910895CF93DF93CDB752
:102A3000DEB780917A0590917B05DF91CF91089563
:102A4000CF93DF9300D000D000D01F92CDB7DEB778
:102A50009E838D8378876F835A8749878D819E8176
:102A6000892B51F48F8198859C838B838B819C81EA
:102A70002FEFFC01208394C08F8198859A838983EE
:102A800089819A812EEFFC0120838D819E81092E00
:102A9000000CAA0BBB0B4096A11DB11D8031910506
:102AA000A105B10508F076C0FC018827E55AFA4E69
:102AB0008F4F0C94585CC415BE15B815B215AC15E3
:102AC000A6159A15A01594158E15881583157115E0
:102AD0006B1577157D1589819A8120E3FC0121838F
:102AE0005FC089819A8129E2FC01218359C08981D3
:102AF0009A8122E2FC01218353C089819A8120E2DC
:102B0000FC0121834DC089819A81FC01118248C05A
:102B100089819A8123E2FC01218342C089819A81C3
:102B200021E2FC0121833CC089819A8121E1FC01E1
:102B3000218336C089819A8127E2FC01218330C03C
:102B400089819A812AE2FC0121832AC089819A81A4
:102B500020E1FC01218324C089819A8124E2FC01C7
:102B600021831EC089819A8128E2FC01218318C03B
:102B700089819A8126E2FC01218312C089819A8190
:102B800021E3FC0121830CC089819A8123E3FC01AC
:102B9000218306C089819A8120E2FC01218300C043
:102BA00000002A960FB6F894DEBF0FBECDBFDF91AE
:102BB000CF910895CF93DF9300D000D000D01F9223
:102BC000CDB7DEB79E838D8378876F835A87498719
:102BD0001A8219828F819885892BD9F11C821B82D8
:102BE0001C821B822BC02B813C81C901880F991F3D
:102BF000820F931F880F991F9C018F819885820FE8
:102C0000931FFC01808191812D813E812817390716
:102C100081F42B813C81C901880F991F820F931F7A
:102C2000880F991F9C018F819885820F931F9A832B
:102C300089838B819C8101969C838B832B813C8132
:102C400089859A852817390720F489819A81892BEB
:102C500051F289819A812A960FB6F894DEBF0FBE91
:102C6000CDBFDF91CF910895CF93DF9300D01F9216
:102C7000CDB7DEB79A8389837C836B83809175059A
:102C8000882319F084EF9FEF1BC049D554D590934A
:102C90007D0580937C050E94432D0E945B2D9093BF
:102CA0008105809380050E942C360E9437369093D0
:102CB0007F0580937E0581E08093750580E090E03C
:102CC0000F900F900F900F90DF91CF910895EF929A
:102CD000FF920F931F93CF93DF93CDB7DEB7649727
:102CE0000FB6F894DEBF0FBECDBF1A8219821C82C8
:102CF0001B8218861F821A8619861C861B861E86D2
:102D00001D86188A1F861E821D821A8A198A1C8AAD
:102D10001B8A80917505882319F487EF9FEFC3C044
:102D2000BE01635F7F4F9E01255F3F4FAE01475F4E
:102D30005F4FCE0107968B01BC0180E090E00E94BE
:102D400098399A83898389819A81892B49F089816D
:102D50009A81049629F089819A81059609F096C096
:102D60008F819885892B59F02B853C858D859E8593
:102D7000280F391F89859A858217930728F488EFD1
:102D80009FEF9A83898385C02F8138858B859C85A9
:102D9000820F931F9E838D836D857E859E012D5EA0
:102DA0003F4FAE014F5E5F4F8D819E8118DD898957
:102DB0009A89892B29F484EF9FEF9A83898369C0CC
:102DC00029893A896B857C858F819885AE01415F21
:102DD0005F4FF90119959C838B838B899C89892B83
:102DE00009F451C08F859889892B09F44CC01A8247
:102DF00019822D853E858F8598892817390768F4B3
:102E00002F853889AE01455F5F4FBE01675F7F4FF9
:102E1000CE010796F9DB9A8389832D853E858D81C6
:102E20009E81A90160E070E00E94865C89819A81A0
:102E3000892B49F52F8138858B859C85820F931FBF
:102E40009E838D832B893C894F8558896D817E8136
:102E50008B819C81F90119956F8578894B855C85FB
:102E600029853A858F8198857B018A01AC016FEFB6
:102E70007FEF81E090E00E9441389A8389838981C5
:102E80009A81892B29F489819A810DC0000001C0A3
:102E900000008F819885892B21F08F8198850E9471
:102EA000C83D89819A8164960FB6F894DEBF0FBE43
:102EB000CDBFDF91CF911F910F91FF90EF900895BB
:102EC000CF93DF9300D000D01F921F92CDB7DEB713
:102ED0009C838B834D835E836F8378871A821982EC
:102EE00080917505882319F487EF9FEF10C08D81BD
:102EF0009E81AF81B885EB81FC8120E0AC01BD01F2
:102F0000CF010E9477309A83898389819A8128969C
:102F10000FB6F894DEBF0FBECDBFDF91CF910895FD
:102F2000CF93DF93CDB7DEB780917605909177058B
:102F3000DF91CF910895CF93DF93CDB7DEB70E9495
:102F400056360E94A83416D448E050E060E070E0A5
:102F50008CE795E00E94865C1092750580E090E019
:102F6000DF91CF910895CF93DF9300D000D0CDB7FC
:102F7000DEB76B837C838D839E838B819C81AD8147
:102F8000BE81BC01CD010E9435319A83898389813C
:102F90009A8126960FB6F894DEBF0FBECDBFDF91A3
:102FA000CF910895CF93DF9300D01F921F92CDB79A
:102FB000DEB79D838C8381E089838C819D8129810B
:102FC00040E050E0BA010E9477309B838A838A8177
:102FD0009B810F900F900F900F900F90DF91CF91EA
:102FE0000895CF93DF9300D01F921F92CDB7DEB725
:102FF0008D8381E090E09A8389830E94AB3A9C8321
:103000008B838D81282F30E08B819C8149815A816F
:10301000BA010E94225CCB0141E02817390708F071
:1030200040E0842F0F900F900F900F900F90DF9142
:10303000CF910895CF93DF9300D01F921F92CDB709
:10304000DEB79C838B836D83A1D39A838983809120
:103050008905482F50E029813A818B819C81B901F3
:103060000E947D5C00000F900F900F900F900F90CA
:10307000DF91CF910895CF93DF93CDB7DEB72D9732
:103080000FB6F894DEBF0FBECDBF998788877B87C8
:103090006A875D874C871A821982288539858A85D7
:1030A0009B85820F931F9C838B838B819C819E8346
:1030B0008D831F820E9453338F838F81882351F425
:1030C0008C859D8522E030E0FC013183208385EFF3
:1030D0009FEF2DC08D819E81FC018181882331F07D
:1030E0008D819E81FC018181813019F481E090E025
:1030F00002C080E090E08F838F81882351F48C851B
:103100009D8522E030E0FC01318320838EEF9FEF2C
:103110000EC081E090E040DC1A8219828C859D858A
:1031200028E030E0FC013183208389819A812D964B
:103130000FB6F894DEBF0FBECDBFDF91CF910895DB
:10314000CF93DF9300D000D01F921F92CDB7DEB790
:103150009C838B837E836D8358874F838B819C8177
:10316000892BA9F58D819E819A83898389819A8192
:1031700048E050E060E070E00E94865C89819A81BE
:103180002FEFFC01208325E089819A81FC012183B6
:1031900020E089819A81FC0122830E94AB3A282F8A
:1031A00089819A81FC0123830E94A23A9C01898132
:1031B0009A81FC013583248389819A8121E0FC0175
:1031C000268389819A8121E0FC01278308C04F81F1
:1031D00058852D813E818B819C81B90131DC0000B5
:1031E00028960FB6F894DEBF0FBECDBFDF91CF910A
:1031F0000895CF93DF9300D000D01F92CDB7DEB7F4
:103200009B838A837D836C835F834E8381E0898384
:103210000E94533389838981882351F48E819F8151
:1032200022E030E0FC013183208385EF9FEF0CC06A
:1032300080E090E0B1DB8E819F8121E030E0FC01F5
:103240003183208380E090E027960FB6F894DEBFAC
:103250000FBECDBFDF91CF910895CF93DF9300D004
:1032600000D0CDB7DEB79A8389837C836B835E837E
:103270004D838D819E8126E030E0FC0131832083E7
:1032800080E090E026960FB6F894DEBF0FBECDBF6B
:10329000DF91CF910895CF93DF9300D000D01F929C
:1032A0001F92CDB7DEB79C838B837E836D83588757
:1032B0004F838D819E819A83898389819A8146E09B
:1032C00050E060E070E00E94865C89819A812FEF77
:1032D000FC01208375DB282F89819A81FC012183E1
:1032E0009BDB282F89819A81FC0122839EDB9C0134
:1032F00089819A81FC0135832483000028960FB6CA
:10330000F894DEBF0FBECDBFDF91CF910895CF936C
:10331000DF9300D000D01F92CDB7DEB79B838A83A6
:103320007D836C835F834E8319820E943633898349
:103330008981882321F00E94D03A0E9447338E81F0
:103340009F8122E030E0FC01318320838BEF9FEFEF
:1033500027960FB6F894DEBF0FBECDBFDF91CF9199
:103360000895CF93DF93CDB7DEB72D970FB6F894BE
:10337000DEBF0FBECDBF998788877B876A875D8751
:103380004C871A821982288539858A859B85820F08
:10339000931F9C838B838B819C819E838D831F8253
:1033A0008D819E81FC0123818D819E81FC01848120
:1033B0009581A681B781422FBC01CD01F6D18F83C3
:1033C0008F81882351F48C859D8522E030E0FC01BB
:1033D0003183208384EF9FEF09C08C859D8521E098
:1033E00030E0FC013183208389819A812D960FB6CC
:1033F000F894DEBF0FBECDBFDF91CF910895CF937C
:10340000DF93CDB7DEB72F970FB6F894DEBF0FBEB0
:10341000CDBF9B878A877D876C875F874E871A829F
:1034200019822A853B858C859D85820F931F9C83FD
:103430008B838B819C819E838D831F82A7D19987EB
:1034400088878D819E81FC018181CBDD8F838F8177
:10345000882351F48E859F8522E030E0FC01318382
:1034600020838EEF9FEF22C088859985892B51F4A8
:103470008E859F8522E030E0FC013183208384EF3C
:103480009FEF14C08D819E81FC018181809389050D
:1034900080918905882F90E09C012F5F3F4F8E859A
:1034A0009F85FC013183208389819A812F960FB6F5
:1034B000F894DEBF0FBECDBFDF91CF910895CF93BB
:1034C000DF93CDB7DEB72D970FB6F894DEBF0FBEF2
:1034D000CDBF998788877B876A875D874C8788857A
:1034E0009985892B91F552D19A8389838A859B8509
:1034F0009C838B838B819C8141E050E060E070E095
:103500000E94865C8B819C812FEFFC012083898146
:103510009A81892B11F180918905882F90E001967D
:103520002C853D8528173907C1F48A859B8501962E
:103530009E838D831F828D819E816F817BDD809133
:10354000890564D11092890508C04C855D852A855E
:103550003B8588859985B90173DA00002D960FB6F1
:10356000F894DEBF0FBECDBFDF91CF910895CF930A
:10357000DF93CDB7DEB72D970FB6F894DEBF0FBE41
:10358000CDBF998788877B876A875D874C871A823A
:103590001982288539858A859B85820F931F9C8394
:1035A0008B838B819C819E838D831F828D819E81E5
:1035B000FC01818116DD8F838F81882351F48C85F6
:1035C0009D8522E030E0FC01318320838EEF9FEF68
:1035D00031C08D819E81FC0123818D819E81FC0102
:1035E00084819581A681B781422FBC01CD01DDD0B8
:1035F0008F838F81882351F48C859D8522E030E074
:10360000FC013183208384EF9FEF14C08D819E8164
:10361000FC0181818093890580918905882F90E044
:103620009C012F5F3F4F8C859D85FC01318320835A
:1036300089819A812D960FB6F894DEBF0FBECDBF5B
:10364000DF91CF910895CF93DF93CDB7DEB72D975C
:103650000FB6F894DEBF0FBECDBF998788877B87F2
:103660006A875D874C8788859985892B91F58ED0EF
:103670009A8389838A859B859C838B838B819C819C
:1036800041E050E060E070E00E94865C8B819C81AC
:103690002FEFFC01208389819A81892B11F1809180
:1036A0008905882F90E001962C853D8528173907DC
:1036B000C1F48A859B8501969E838D831F828D81AF
:1036C0009E816F81B7DC80918905A0D01092890519
:1036D00008C04C855D852A853B8588859985B9011B
:1036E000AFD900002D960FB6F894DEBF0FBECDBF48
:1036F000DF91CF910895CF93DF931F921F92CDB7A3
:10370000DEB79A83898389819A8147E050E064EF2C
:1037100073E050DA0F900F90DF91CF910895CF931F
:10372000DF93CDB7DEB78BE79BE110D093D00000DD
:10373000DF91CF910895CF93DF93CDB7DEB780911E
:103740008A0590918B05DF91CF910895CF93DF93F8
:103750001F921F92CDB7DEB79A83898389819A81A0
:1037600090938B0580938A0500000F900F90DF9156
:10377000CF910895CF93DF93CDB7DEB773D080E0BC
:1037800090E0E4DF0000DF91CF910895CF93DF93C5
:10379000CDB7DEB78091840590918505A09186050F
:1037A000B0918705DF91CF910895CF93DF9300D03B
:1037B0001F921F92CDB7DEB769837A838B839C8378
:1037C0004D838D81882351F489819A81AB81BC819D
:1037D000892B8A2B8B2B11F480E010C089819A8170
:1037E000AB81BC818093840590938505A093860569
:1037F000B09387058D818093880581E00F900F90AD
:103800000F900F900F90DF91CF910895CF93DF939A
:103810001F92CDB7DEB7898320918405309185054D
:1038200040918605509187058981882F90E0A0E01E
:10383000B0E0820F931FA41FB51F8093840590935F
:103840008505A0938605B093870500000F90DF9152
:10385000CF910895CF93DF93CDB7DEB70000DF910E
:10386000CF910895CF93DF93CDB7DEB70000DF91FE
:10387000CF910895CF93DF9300D0CDB7DEB79B8370
:103880008A831982F894809192059091930521E0A2
:10389000892B09F020E029838981882309F4789411
:1038A00089810F900F900F90DF91CF910895CF9362
:1038B000DF931F921F92CDB7DEB79A8389837894E6
:1038C00000000F900F90DF91CF910895CF93DF9379
:1038D0001F921F92CDB7DEB79A838983F8948091A7
:1038E000920590919305019690939305809392058C
:1038F000789400000F900F90DF91CF910895CF93AF
:10390000DF931F921F92CDB7DEB79A838983F89415
:1039100080919205909193050197909393058093E0
:103920009205789400000F900F90DF91CF91089549
:10393000CF93DF931F921F92CDB7DEB79A8389830F
:1039400020918C0530918D0549815A8163E1649FF6
:10395000C001659F900D1124820F931FFC0183818C
:103960009481029799F020918C0530918D054981C1
:103970005A8163E1649FC001659F900D1124820FFD
:10398000931FFC0183819481039719F481E090E0F7
:1039900002C080E090E00F900F90DF91CF910895EA
:1039A000CF93DF9300D0CDB7DEB719821B821A8286
:1039B0001B821A8209C08A819B81BADF89838A812E
:1039C0009B8101969B838A8380918E0590918F05C0
:1039D0002A813B812817390718F48981882359F3F4
:1039E00081E09981992309F080E00F900F900F906A
:1039F000DF91CF910895CF93DF9300D01F921F9254
:103A0000CDB7DEB79B838A836C834D8380918C0511
:103A100090918D05892B09F477C080918E05909146
:103A20008F052A813B812817390708F06DC0209146
:103A30008C0530918D054A815B8163E1649FC001F3
:103A4000659F900D1124820F931FFC01808191814D
:103A5000892B09F459C020918C0530918D054A813C
:103A60005B8163E1649FC001659F900D1124820F0B
:103A7000931FFC0182819C81981708F045C020911A
:103A80008C0530918D054A815B8163E1649FC001A3
:103A9000659F900D1124820F931FFC0120813181BD
:103AA0008C81482F50E06DE0649FC001659F900DB0
:103AB0001124820F931FFC0180819181892B21F1B8
:103AC00020918C0530918D054A815B8163E1649F73
:103AD000C001659F900D1124820F931FFC0120816E
:103AE00031818C81482F50E06DE0649FC001659F5B
:103AF000900D1124820F931FFC0182819D819817E4
:103B000018F481E090E002C080E090E08983898130
:103B10000F900F900F900F900F90DF91CF9108951D
:103B2000CF93DF9300D000D000D0CDB7DEB78C8329
:103B30006D832E833F834887598719828D81882F13
:103B400090E09B838A838C818F3F41F48A819B81A3
:103B50008F3F910509F010F481E0898389812996CE
:103B60000FB6F894DEBF0FBECDBFDF91CF910895A1
:103B7000CF93DF931F92CDB7DEB789838981882FDA
:103B800090E08F7E21E0892B09F020E0822F0F90BA
:103B9000DF91CF910895CF93DF931F921F92CDB7FE
:103BA000DEB78A8319828A81882331F08A81813045
:103BB00019F08A81823011F481E0898389810F9024
:103BC0000F90DF91CF910895CF93DF931F921F92B3
:103BD000CDB7DEB78A8319828A81882331F08A8142
:103BE000813019F08A81823011F481E089838981E2
:103BF0000F900F90DF91CF910895CF93DF93CDB7C2
:103C0000DEB781E0DF91CF910895CF93DF9300D0AD
:103C1000CDB7DEB79B838A8320918C0530918D05CB
:103C20004A815B8163E1649FC001659F900D11240F
:103C3000820F931FFC0183858230D9F420918C057B
:103C400030918D054A815B8163E1649FC001659F6E
:103C5000900D1124820F931FFC01258136818091E4
:103C6000D9039091DA032817390719F081E090E021
:103C700002C080E090E089838981882339F08A81BD
:103C80009B81892B19F481E090E002C080E090E0F4
:103C9000898389810F900F900F90DF91CF910895C4
:103CA000CF93DF9300D000D01F92CDB7DEB79E83B5
:103CB0008D836F838D819E81FC01208131818F8175
:103CC000482F50E06DE0649FC001659F900D112466
:103CD000820F931F9C838B838B819C81FC0143818A
:103CE00054818D819E81FC0125853685429FC001CE
:103CF000439F900D529F900D112401969A838983C2
:103D00008F81882379F48D819E81FC018781882FA2
:103D100090E080719927892B29F089819A810496F6
:103D20009A83898389819A8127960FB6F894DEBF9A
:103D30000FBECDBFDF91CF910895CF93DF9300D019
:103D400000D000D01F921F92CDB7DEB79B878A8725
:103D50001D821C821A8219821B821B821EC08A85C8
:103D60009B856B819DDF9F838E83198618868E814C
:103D70009F8161E070E00E94543A99878887288586
:103D8000398589819A818217930720F488859985DE
:103D90009A8389838B818F5F8B838A859B85FC01C6
:103DA00082819B819817D8F28A859B85AC014F5EF2
:103DB0005F4F8A859B85FC018281282F30E0C901F5
:103DC000880F991F280F391F89819A81B9010E9494
:103DD000C73E9D838C838C819D81892B39F08A8598
:103DE0009B852FEF3FEFFC01328B218B8C819D81D6
:103DF0002B960FB6F894DEBF0FBECDBFDF91CF91EB
:103E00000895CF93DF931F921F92CDB7DEB79A83A9
:103E1000898389819A81FC0181899289019639F08F
:103E200089819A81FC01818992890E9469408981F6
:103E30009A812FEF3FEFFC01328B218B00000F9016
:103E40000F90DF91CF910895CF93DF93CDB7DEB779
:103E500061970FB6F894DEBF0FBECDBF9D878C87EC
:103E60007F876E87598B488B1A8219822C853D85F6
:103E70008E859F85820F931F9C838B838B819C8172
:103E80009E838D838D819E81FC01828193819887A1
:103E90008F838D819E81FC01848189878D819E81A4
:103EA000FC0185818A871B868F8198854A85698573
:103EB000A2DD8B878B85882351F48889998922E03C
:103EC00030E0FC01318320838EEF9FEF2BC08F8188
:103ED00098852EDD982F81E0992309F080E08B876B
:103EE0008B85882351F48889998922E030E0FC0190
:103EF0003183208388EF9FEF15C08F819885909341
:103F0000D6038093D50389858093D7038A858093D0
:103F1000D8038889998921E030E0FC01318320832E
:103F200089819A8161960FB6F894DEBF0FBECDBF2E
:103F3000DF91CF910895CF93DF93CDB7DEB763972D
:103F40000FB6F894DEBF0FBECDBF9F878E87798BEB
:103F5000688B5B8B4A8B1A8219822E853F858889F4
:103F60009989820F931F9C838B838B819C819E8375
:103F70008D838091D5039091D60398878F8380910C
:103F8000D70389878091D8038A871C861B861D8664
:103F90008F8198854A8569852EDD8D878D8588235B
:103FA00051F48A899B8922E030E0FC01318320832F
:103FB0008AEF9FEF9AC08F819885BADC982F81E0B5
:103FC000992309F080E08D878D85882351F48A89B3
:103FD0009B8922E030E0FC013183208388EF9FEF52
:103FE00084C08D819E81FC0184819581A681B781E9
:103FF0002D813E81F90162812D813E81F90171811E
:104000009C01AD01872F8CDD8D878D85882351F430
:104010008A899B8922E030E0FC01318320838EEF86
:104020009FEF63C020918C0530918D054F8158859D
:1040300063E1649FC001659F900D1124820F931F5F
:10404000FC01208131818985482F50E06DE0649F1B
:10405000C001659F900D1124820F931FFC014081C8
:1040600051818A85282F30E0C901880F991F880F58
:10407000991F880F991F821B930B840F951F9C8794
:104080008B878D819E81FC0121818B859C85FC0124
:1040900020838D819E81FC0122818B859C85FC0182
:1040A00021838D819E81FC0123818B859C85FC0170
:1040B00022838D819E81FC0184819581A681B781B7
:1040C0002B853C85F90183839483A583B6838091F6
:1040D000D8038F5F8093D8038A899B8921E030E0E1
:1040E000FC013183208389819A8163960FB6F8940D
:1040F000DEBF0FBECDBFDF91CF910895CF93DF9389
:10410000CDB7DEB72F970FB6F894DEBF0FBECDBF89
:104110009B878A877D876C875F874E871A82198283
:104120002A853B858C859D85820F931F9C838B837D
:104130008B819C819E838D8318861F821986809136
:104140008C0590918D05892B79F08D819E81FC01E4
:104150002281338180918E0590918F052817390730
:1041600018F481E090E002C080E090E089878985C2
:10417000882351F48E859F8522E030E0FC01318355
:1041800020838EEF9FEFA3C020918C0530918D0589
:104190008D819E81FC014281538163E1649FC00156
:1041A000659F900D1124820F931F98878F838D81B7
:1041B0009E81FC0182819381BBDB982F81E0992352
:1041C00009F080E089878985882351F48E859F8551
:1041D00022E030E0FC013183208388EF9FEF77C03D
:1041E0008D819E81FC018481958121E0803891053B
:1041F00008F020E029878985882351F48E859F85E2
:1042000022E030E0FC01318320838EEF9FEF5FC01E
:104210008D819E81FC01978181E0992309F080E0E6
:1042200089878985882351F48E859F8522E030E037
:10423000FC01318320838EEF9FEF49C08D819E81E9
:10424000FC01818195DC89878985882351F48E85DD
:104250009F8522E030E0FC013183208386EF9FEFD1
:1042600036C08D819E81FC0121818F819885FC0162
:1042700027838D819E81FC01248135818F819885E2
:10428000FC01368325838D819E81FC0126818F81EF
:104290009885FC0120878D819E81FC0127818F817B
:1042A0009885FC0121878F819885FC01808582306B
:1042B00028F48F81988521E0FC0120878E859F85D9
:1042C00021E030E0FC013183208389819A812F969F
:1042D0000FB6F894DEBF0FBECDBFDF91CF9108952A
:1042E0000F931F93CF93DF93CDB7DEB76C970FB6C5
:1042F000F894DEBF0FBECDBF988F8F8B7A8F698FFA
:104300005C8F4B8F1B861A862F89388D898D9A8DED
:10431000820F931F9D878C878C859D859F878E87B5
:10432000198A188A8E859F85FC0182819381CC0130
:10433000A0E0B0E08A8B9B8BAC8BBD8B19821E8A70
:1043400080918C0590918D05892B99F080918E0537
:1043500090918F05CC01A0E0B0E02A893B894C897F
:104360005D89281739074A075B071CF481E090E054
:1043700002C080E090E089838981882351F48B8D8D
:104380009C8D22E030E0FC01318320838EEF9FEF93
:1043900040C28A899B89AC89BD898093D10390935F
:1043A000D203A093D303B093D40320918C05309112
:1043B0008D054A895B8963E1649FC001659F900D0B
:1043C0001124820F931F998B888B8E859F85FC010A
:1043D0008181E1DB89838981882351F48B8D9C8DD8
:1043E00022E030E0FC013183208386EF9FEF11C291
:1043F00004DC882309F47DC088899989FC018381C4
:104400009481892B09F075C088899989FC0187817D
:10441000882F90E082709927892B81F1888999896A
:10442000FC0180819181892B91F080919105282F49
:1044300030E088899989FC018281882F90E0820F81
:10444000931F813891051CF481E090E002C080E068
:1044500090E089838981882309F43EC020919105E9
:1044600088899989FC0122872091910588899989F9
:10447000FC018281820F809391052EC088899989E1
:10448000FC0180819181892B91F080919005282FEA
:1044900030E088899989FC018281882F90E0820F21
:1044A000931F8D3F91051CF481E090E002C080E0F5
:1044B00090E089838981882379F02091900588890B
:1044C0009989FC0122872091900588899989FC01AE
:1044D0008281820F809390058981882351F48B8D8E
:1044E0009C8D22E030E0FC013183208387EF9FEF39
:1044F00090C18E859F85FC018181813039F08E8548
:104500009F85FC018181823009F0CBC01B821A8219
:1045100081E089831B821A82B5C01D821C821F82A2
:104520001E821D821C822EC088899989FC012081EF
:1045300031814A815B816DE0649FC001659F900D70
:104540001124820F931FFC01408151812C813D81F8
:10455000C901880F991F880F991F880F991F821B07
:10456000930B840F951FFC018181882F90E02E8191
:104570003F81820F931F9F838E838C819D81019643
:104580009D838C8388899989FC01208131814A81AE
:104590005B816DE0649FC001659F900D1124820FC7
:1045A000931FFC018281882F90E02C813D81281788
:1045B00039070CF4B9CF8A819B81892B21F5888931
:1045C0009989FC018781882F90E080719927892B38
:1045D000D1F088899989FC01458556852E813F81D6
:1045E000429FC001439F900D529F900D11248C015A
:1045F0000B5F1F4F0E94A23A21E08017910708F439
:1046000020E0298319C088899989FC014585568550
:104610002E813F81429FC001439F900D529F900D7C
:1046200011248C010F5F1F4F0E94A23A21E08017D6
:10463000910708F420E029838981882351F48B8D28
:104640009C8D22E030E0FC013183208387EF9FEFD7
:10465000E0C088899989FC01208131814A815B8190
:104660006DE0649FC001659F900D1124820F931F20
:104670002E813F81FC01348323838A819B810196B3
:104680009B838A8388899989FC018281882F90E0A5
:104690002A813B812817390724F48981882309F06E
:1046A0003CCF88899989FC0185819681E3D88E8BDE
:1046B0008E89882309F49EC0198618868E859F8569
:1046C000FC018181882F90E081309105D1F082300A
:1046D000910509F469C0892B09F071C0888999890D
:1046E00021E030E0FC01348323835AD9882309F484
:1046F00063C081E090E00E94CC1480E40E94FA1430
:104700005BC088899989FC01818992890196C9F5E4
:1047100088899989FC01258136818091D9039091FE
:10472000DA032817390799F488899989AC014F5E13
:104730005F4F2091DD033091DE038091DB03909188
:10474000DC03B9010E946241998788871AC08A896F
:104750009B89AC89BD89181619061A061B068CF0B0
:1047600088899989FC0185819681892B51F48889F2
:104770009989E3DA9987888788899989FC01108A61
:10478000178688859985892BC9F48889998923E0BA
:1047900030E0FC013483238382E090E00E94CC145B
:1047A00080E40E94E9140AC08889998922E030E0F7
:1047B000FC013483238303C0000001C0000088890A
:1047C0009989FC018581968172D88B8D9C8D22E020
:1047D00030E0FC013183208388859985892B51F055
:1047E0008B8D9C8D22E030E0FC01318320838DEFA6
:1047F0009FEF0FC08E89882351F48B8D9C8D22E012
:1048000030E0FC013183208385EF9FEF02C08A8571
:104810009B856C960FB6F894DEBF0FBECDBFDF91BF
:10482000CF911F910F910895CF93DF9300D000D0C7
:104830001F921F92CDB7DEB79C838B837E836D83DF
:1048400058874F838B819C81892B29F58D819E818F
:104850009A83898389819A812FEFFC01208320919B
:104860008C0530918D058091D1039091D203A09158
:10487000D303B091D403AC0163E1649FC001659F91
:10488000900D1124820F931FFC01228589819A814A
:10489000FC01218309C04F8158852D813E818B8188
:1048A0009C81B9010E942015000028960FB6F8944B
:1048B000DEBF0FBECDBFDF91CF910895CF93DF93C1
:1048C000CDB7DEB766970FB6F894DEBF0FBECDBF8B
:1048D0009A8B898B7C8B6B8B5E8B4D8B18861F82A2
:1048E00029893A898B899C89820F931F9A878987A6
:1048F00089859A859C878B871D861E8619821A82D8
:104900001B821C828B859C85FC0181815DD98D87F2
:104910008D85882351F48D899E8922E030E0FC0149
:104920003183208386EF9FEF20C280918C05909188
:104930008D05892B49F080918E0590918F05892BEB
:1049400019F081E090E002C080E090E08D878D85D5
:10495000882351F48D899E8922E030E0FC01318367
:1049600020838EEF9FEF01C20E9436338E878E85A3
:10497000882309F4EBC11E821D82188A1F868B854D
:104980009C85FC018181882F90E08130910509F49C
:1049900056C08230910509F46CC1892B09F0BFC162
:1049A00019821A821B821C8231C020918C053091A1
:1049B0008D0549815A8163E1649FC001659F900D17
:1049C0001124820F931FFC0183819481892B99F01C
:1049D00020918C0530918D0549815A8163E1649F56
:1049E000C001659F900D1124820F931F21E030E0DC
:1049F000FC013483238389819A81AB81BC81019638
:104A0000A11DB11D89839A83AB83BC8380918E05E0
:104A100090918F05CC01A0E0B0E029813A814B81D3
:104A20005C81281739074A075B070CF4BECF81E089
:104A300090E00E94CC1480E40E94FA1470C11982A4
:104A40001A821B821C82ACC020918C0530918D058E
:104A500049815A8163E1649FC001659F900D1124D3
:104A6000820F931FFC0183819481029709F08DC00E
:104A700020918C0530918D0549815A8163E1649FB5
:104A8000C001659F900D1124820F931FFC01818945
:104A90009289019609F079C020918C0530918D059D
:104AA00049815A8163E1649FC001659F900D112483
:104AB000820F931FFC01258136818091D90390914B
:104AC000DA0328173907F9F420918C0530918D0508
:104AD00049815A8163E1649FC001659F900D112453
:104AE000820F931FAC014F5E5F4F2091DD03309129
:104AF000DE038091DB039091DC03B9010E946241E7
:104B00009E838D8342C089819A81AB81BC811816B6
:104B100019061A061B06CCF120918C0530918D05E3
:104B200049815A8163E1649FC001659F900D112402
:104B3000820F931FFC0185819681892B31F520918D
:104B40008C0530918D0549815A8163E1649FC001D4
:104B5000659F900D1124820F931FEFD89E838D8344
:104B600020918C0530918D0549815A8163E1649FC4
:104B7000C001659F900D1124820F931FFC01108AC4
:104B8000178689819A81988B8F8789819A81AB81D9
:104B9000BC810196A11DB11D89839A83AB83BC831F
:104BA00080918E0590918F05CC01A0E0B0E0298125
:104BB0003A814B815C81281739074A075B072CF43F
:104BC0008D819E81892B09F43FCF8D819E81892B18
:104BD00009F0A2C019821A821B821C8238C020915F
:104BE0008C0530918D0549815A8163E1649FC00134
:104BF000659F900D1124820F931FFC018381948186
:104C00000297D1F420918C0530918D0549815A810C
:104C100063E1649FC001659F900D1124820F931F73
:104C200023E030E0FC013483238382E090E00E94A3
:104C3000CC1480E40E94E91489819A81AB81BC8103
:104C40000196A11DB11D89839A83AB83BC8380919A
:104C50008E0590918F05CC01A0E0B0E029813A81CA
:104C60004B815C81281739074A075B070CF4B7CFE3
:104C700053C019821A821B821C8231C020918C057C
:104C800030918D0549815A8163E1649FC001659F20
:104C9000900D1124820F931FFC0183819481029750
:104CA00099F420918C0530918D0549815A8163E1F9
:104CB000649FC001659F900D1124820F931F21E016
:104CC00030E0FC013483238389819A81AB81BC81EC
:104CD0000196A11DB11D89839A83AB83BC8380910A
:104CE0008E0590918F05CC01A0E0B0E029813A813A
:104CF0004B815C81281739074A075B070CF4BECF4C
:104D00000E94D01C882351F081E090E00E94CC14D6
:104D100080E40E94FA1402C0000001C000000E945A
:104D200047338D819E81892B51F08D899E8922E0A8
:104D300030E0FC01318320838DEF9FEF16C08D8919
:104D40009E8921E030E0FC01318320838E85882319
:104D500051F48D899E8922E030E0FC01318320836B
:104D600085EF9FEF02C08F81988566960FB6F89405
:104D7000DEBF0FBECDBFDF91CF910895CF93DF93FC
:104D800000D000D0CDB7DEB79A8389837C836B8354
:104D90005E834D838D819E8128E030E0FC0131836C
:104DA000208380E090E026960FB6F894DEBF0FBE19
:104DB000CDBFDF91CF910895CF93DF9300D000D086
:104DC0001F921F92CDB7DEB79C838B837E836D834A
:104DD00058874F838D819E819A83898389819A81A7
:104DE00048E050E060E070E00E94865C89819A8132
:104DF0002FEFFC01208389819A8121E1FC0121832D
:104E000089819A812FEF3FEFFC01338322838981CF
:104E10009A8120E830E0FC013583248389819A81DE
:104E2000FC01168289819A81FC0117820000289674
:104E30000FB6F894DEBF0FBECDBFDF91CF910895BE
:104E4000CF93DF9300D000D0CDB7DEB79A838983AC
:104E50007C836B835E834D838D819E8128E030E06F
:104E6000FC013183208380E090E026960FB6F89411
:104E7000DEBF0FBECDBFDF91CF910895CF93DF93FB
:104E800000D000D01F921F92CDB7DEB79C838B83DA
:104E90007E836D8358874F838D819E819A8389831A
:104EA00089819A8148E050E060E070E00E94865C71
:104EB00089819A812FEFFC01208389819A8121E0E9
:104EC000FC01218389819A812FEFFC012283898152
:104ED0009A8121E0FC01238389819A812FEFFC01D3
:104EE000248389819A8124E3FC01258389819A8125
:104EF00021E030E0FC0137832683000028960FB6BE
:104F0000F894DEBF0FBECDBFDF91CF910895CF9350
:104F1000DF9300D000D000D0CDB7DEB79D838C8367
:104F20007F836E83598748871A8219821B820E9469
:104F300053338B838B81882351F48885998522E0B4
:104F400030E0FC013183208385EF9FEF0DC081E0CD
:104F500090E00E94CC148885998521E030E0FC0126
:104F60003183208389819A8129960FB6F894DEBF18
:104F70000FBECDBFDF91CF910895CF93DF93CDB713
:104F8000DEB765970FB6F894DEBF0FBECDBF998B25
:104F9000888B7B8B6A8B5D8B4C8B1C821B82288958
:104FA00039898A899B89820F931F9E838D838D8186
:104FB0009E8198878F838F819885FC018281938160
:104FC000CC01A0E0B0E089879A87AB87BC871E86BA
:104FD0001D861F861A82198280918C0590918D05FD
:104FE00021E0892B09F020E02F878F85882351F459
:104FF0008C899D8922E030E0FC01318320838CEF95
:105000009FEFC9C089859A85AB85BC85181619069E
:105010001A061B065CF489859A85AB85BC850097CA
:10502000A140B1051CF481E090E002C080E090E076
:105030008F878F85882351F48C899D8922E030E009
:10504000FC01318320838EEF9FEFA5C089859A856F
:1050500043E1489F9001499F300D1124C9010E94EE
:105060001E3D9E878D878D859E85892B51F48C8969
:105070009D8922E030E0FC01318320838DEF9FEF9A
:105080008AC089859A8543E1489F9001499F300DE8
:1050900011248D859E85A90160E070E00E94865CE8
:1050A0008D859E8590938D0580938C0589859A8545
:1050B00090938F0580938E051A82198253C029819F
:1050C0003A8143E1429FC001439F900D11242D85F9
:1050D0003E85820F931F2FEF3FEFFC01328B218B18
:1050E00029813A8143E1429FC001439F900D1124E1
:1050F0002D853E85820F931FFC01138629813A81FD
:1051000043E1429FC001439F900D11242D853E85B0
:10511000820F931F21E0FC01248729813A8143E11A
:10512000429FC001439F900D11242D853E85820F23
:10513000931F21E030E0FC013687258729813A81E1
:1051400043E1429FC001439F900D11242D853E8570
:10515000820F931FFC01108A178689819A8101961C
:105160009A83898389819A81092E000CAA0BBB0B33
:1051700029853A854B855C8582179307A407B50777
:105180000CF49DCF8C899D8921E030E0FC013183B6
:1051900020838B819C8165960FB6F894DEBF0FBE8D
:1051A000CDBFDF91CF9108950F931F93CF93DF93DE
:1051B000CDB7DEB760970FB6F894DEBF0FBECDBF98
:1051C0009C878B877E876D87588B4F871A821982C1
:1051D0002B853C858D859E85820F931F9C838B83B9
:1051E0008B819C819E838D838D819E81FC01828138
:1051F000938198878F838D819E81FC01848189872B
:105200001A8680918C0590918D0521E0892B09F4F7
:1052100020E02A878A85882351F48F85988922E0A7
:1052200030E0FC01318320838CEF9FEFC9C0809177
:105230008E0590918F0541E02F8138852817390719
:1052400008F040E04A878A85882351F48F85988941
:1052500022E030E0FC01318320838EEF9FEFB0C06D
:105260008985882331F089858D3F18F481E090E0AD
:1052700002C080E090E08A878A85882351F48F8578
:10528000988922E030E0FC01318320838EEF9FEF8C
:1052900097C020918C0530918D054F81588563E131
:1052A000649FC001659F900D1124820F931FFC0124
:1052B0008081918121E0892B09F020E02A878A856D
:1052C000882351F48F85988922E030E0FC013183F6
:1052D00020838CEF9FEF74C08985882F90E02DE0AC
:1052E000289FB001299F700D112420918C053091C9
:1052F0008D054F815885E3E1E49FC001E59F900D46
:1053000011248901080F191FCB010E941E3DF801CD
:105310009183808320918C0530918D054F81588534
:1053200063E1649FC001659F900D1124820F931F5C
:10533000FC0180819181892B51F48F85988922E02D
:1053400030E0FC01318320838DEF9FEF39C08985E8
:10535000882F90E02DE0289FB001299F700D112427
:1053600020918C0530918D054F815885E3E1E49FB4
:10537000C001E59F900D1124820F931FFC018081D5
:105380009181AB0160E070E00E94865C20918C0509
:1053900030918D054F81588563E1649FC001659F01
:1053A000900D1124820F931F2985FC0122838F8584
:1053B000988921E030E0FC013183208389819A8142
:1053C00060960FB6F894DEBF0FBECDBFDF91CF91D0
:1053D0001F910F9108950F931F93CF93DF93CDB734
:1053E000DEB761970FB6F894DEBF0FBECDBF9D87C5
:1053F0008C877F876E87598B488B1A8219822C8500
:105400003D858E859F85820F931F9C838B838B8127
:105410009C819E838D838D819E81FC0182819381FD
:1054200098878F838D819E81FC01848189878D81FE
:105430009E81FC0185818A871B8680918C059091D5
:105440008D0521E0892B09F420E02B878B858823AB
:1054500051F48889998922E030E0FC01318320836E
:105460008CEF9FEF57C180918E0590918F0541E0A1
:105470002F8138852817390708F040E04B878B8546
:10548000882351F48889998922E030E0FC01318336
:1054900020838EEF9FEF3EC120918C0530918D05CA
:1054A0004F81588563E1649FC001659F900D112471
:1054B000820F931FFC018081918121E0892B09F4E7
:1054C00020E02B878B85882351F48889998922E0F5
:1054D00030E0FC01318320838CEF9FEF1BC12091D2
:1054E0008C0530918D054F81588563E1649FC00123
:1054F000659F900D1124820F931FFC01928181E022
:105500002985291708F080E08B878B85882351F443
:105510008889998922E030E0FC01318320838EEF75
:105520009FEFF8C020918C0530918D054F815885F3
:1055300063E1649FC001659F900D1124820F931F4A
:10554000FC01208131818985482F50E06DE0649F06
:10555000C001659F900D1124820F931FFC01808173
:10556000918121E0892B09F020E02B878B8588230E
:1055700051F48889998922E030E0FC01318320834D
:105580008CEF9FEFC7C081E09A85992309F480E0F2
:105590008B878B85882351F48889998922E030E0B4
:1055A000FC01318320838EEF9FEFB4C08A85282FC2
:1055B00030E0C901880F991F880F991F880F991F24
:1055C000BC01621B730B20918C0530918D054F81BE
:1055D0005885E3E1E49FC001E59F900D1124820FFF
:1055E000931FFC01208131818985482F50E0EDE037
:1055F000E49FC001E59F900D11248901080F191F38
:10560000CB010E941E3DF8019183808320918C057F
:1056100030918D054F81588563E1649FC001659F7E
:10562000900D1124820F931FFC0120813181898507
:10563000482F50E06DE0649FC001659F900D1124DC
:10564000820F931FFC0180819181892B51F48889FD
:10565000998922E030E0FC01318320838DEF9FEFB8
:1056600059C08A85282F30E0C901880F991F880FFB
:10567000991F880F991FBC01621B730B20918C0529
:1056800030918D054F815885E3E1E49FC001E59F8E
:10569000900D1124820F931FFC0120813181898597
:1056A000482F50E0EDE0E49FC001E59F900D1124EC
:1056B000820F931FFC0180819181AB0160E070E05B
:1056C0000E94865C20918C0530918D054F81588514
:1056D00063E1649FC001659F900D1124820F931FA9
:1056E000FC01208131818985482F50E06DE0649F65
:1056F000C001659F900D1124820F931F2A85FC0124
:1057000022838889998921E030E0FC01318320835C
:1057100089819A8161960FB6F894DEBF0FBECDBF26
:10572000DF91CF911F910F910895CF93DF9300D018
:1057300000D0CDB7DEB79A8389837C836B835E8389
:105740004D838D819E8122E030E0FC0131832083F6
:1057500080EF9FEF26960FB6F894DEBF0FBECDBF49
:10576000DF91CF910895CF93DF93CDB7DEB76397E5
:105770000FB6F894DEBF0FBECDBF9F878E87798BA3
:10578000688B5B8B4A8B1A8219822E853F858889AC
:105790009989820F931F9C838B838B819C819E832D
:1057A0008D838D819E81FC018281938198878F8377
:1057B0008D819E81FC01848189878D819E81FC0180
:1057C00085818A878D819E81FC01868197819C8756
:1057D0008B8781E08D8780918C0590918D0521E0EC
:1057E000892B09F420E02D878D85882351F48A893F
:1057F0009B8922E030E0FC01318320838CEF9FEF16
:10580000E0C080918E0590918F0541E02F81388511
:105810002817390708F040E04D878D85882351F41B
:105820008A899B8922E030E0FC01318320838EEF5E
:105830009FEFC7C021E08F819885892B09F020E078
:105840002D878D85882351F48A899B8922E030E059
:10585000FC013183208386EF9FEFB3C089858823C5
:1058600019F08985823019F481E090E002C080E06F
:1058700090E08D878D85882351F48A899B8922E069
:1058800030E0FC013183208386EF9FEF9AC081E0F6
:105890009A85913009F080E08D878D85882351F4B9
:1058A0008A899B8922E030E0FC013183208386EFE6
:1058B0009FEF87C08985882321F48B859C8501977C
:1058C00039F08985882339F08B859C85029718F0FB
:1058D00081E090E002C080E090E08D878D85882394
:1058E00051F48A899B8922E030E0FC0131832083D6
:1058F00086EF9FEF66C08F8198850E94981C982F35
:1059000081E0992309F080E08D878D85882351F40B
:105910008A899B8922E030E0FC013183208388EF73
:105920009FEF4FC020918C0530918D054F81588598
:1059300063E1649FC001659F900D1124820F931F46
:105940002985FC01238720918C0530918D054F819D
:10595000588563E1649FC001659F900D1124820FFB
:10596000931F2A85FC01248720918C0530918D0599
:105970004F81588563E1649FC001659F900D11249C
:10598000820F931F2B853C85FC013687258720914C
:105990008C0530918D054F81588563E1649FC0016E
:1059A000659F900D1124820F931FFC01108A1786AA
:1059B0008A899B8921E030E0FC0131832083898141
:1059C0009A8163960FB6F894DEBF0FBECDBFDF910C
:1059D000CF910895CF93DF9300D000D000D01F92D5
:1059E0001F92CDB7DEB79F838E83798768875B87E9
:1059F0004A871A8219822E813F8188859985820F74
:105A0000931F9C838B838B819C81FC01918181E01E
:105A1000913009F080E08D838D81882351F48A854F
:105A20009B8522E030E0FC01318320838FEF9FEFE4
:105A30000CC04A855B85288539858E819F81B90197
:105A400092DE9A83898389819A812B960FB6F89486
:105A5000DEBF0FBECDBFDF91CF910895CF93DF930F
:105A60001F921F92CDB7DEB79A83898389819A816D
:105A70004DE050E06EE174E00E94DA150F900F9057
:105A8000DF91CF910895CF93DF93CDB7DEB710921A
:105A900093051092920546E050E060E070E08CE8DB
:105AA00095E00E94865C8EE29DE210D05ED70000F9
:105AB000DF91CF910895CF93DF93CDB7DEB780917B
:105AC000940590919505DF91CF910895CF93DF9341
:105AD0001F921F92CDB7DEB79A83898389819A81FD
